{
	"contracts/FundMe.sol": {
		"FundMe": {
			"abi": [
				{
					"inputs": [],
					"stateMutability": "nonpayable",
					"type": "constructor"
				},
				{
					"inputs": [],
					"name": "NotOwner",
					"type": "error"
				},
				{
					"stateMutability": "payable",
					"type": "fallback"
				},
				{
					"inputs": [],
					"name": "MINIMUM_USD",
					"outputs": [
						{
							"internalType": "uint256",
							"name": "",
							"type": "uint256"
						}
					],
					"stateMutability": "view",
					"type": "function"
				},
				{
					"inputs": [
						{
							"internalType": "address",
							"name": "",
							"type": "address"
						}
					],
					"name": "addressToAmountFunded",
					"outputs": [
						{
							"internalType": "uint256",
							"name": "",
							"type": "uint256"
						}
					],
					"stateMutability": "view",
					"type": "function"
				},
				{
					"inputs": [],
					"name": "fund",
					"outputs": [],
					"stateMutability": "payable",
					"type": "function"
				},
				{
					"inputs": [
						{
							"internalType": "uint256",
							"name": "",
							"type": "uint256"
						}
					],
					"name": "funders",
					"outputs": [
						{
							"internalType": "address",
							"name": "",
							"type": "address"
						}
					],
					"stateMutability": "view",
					"type": "function"
				},
				{
					"inputs": [],
					"name": "i_owner",
					"outputs": [
						{
							"internalType": "address",
							"name": "",
							"type": "address"
						}
					],
					"stateMutability": "view",
					"type": "function"
				},
				{
					"inputs": [],
					"name": "withdraw",
					"outputs": [],
					"stateMutability": "nonpayable",
					"type": "function"
				},
				{
					"stateMutability": "payable",
					"type": "receive"
				}
			],
			"devdoc": {
				"kind": "dev",
				"methods": {},
				"version": 1
			},
			"evm": {
				"assembly": "    /* \"contracts/FundMe.sol\":258:1959  contract FundMe {... */\n  mstore(0x40, 0xa0)\n    /* \"contracts/FundMe.sol\":829:952  constructor() {... */\n  callvalue\n  dup1\n  iszero\n  tag_1\n  jumpi\n  0x00\n  dup1\n  revert\ntag_1:\n  pop\n    /* \"contracts/FundMe.sol\":934:944  msg.sender */\n  caller\n    /* \"contracts/FundMe.sol\":924:944  i_owner = msg.sender */\n  0xffffffffffffffffffffffffffffffffffffffff\n  and\n  0x80\n  dup2\n  0xffffffffffffffffffffffffffffffffffffffff\n  and\n  dup2\n  mstore\n  pop\n  pop\n    /* \"contracts/FundMe.sol\":258:1959  contract FundMe {... */\n  mload(0x80)\n  codecopy(0x00, dataOffset(sub_0), dataSize(sub_0))\n  0x00\n  assignImmutable(\"0xcc143a676b82d5e07b2c9d57717b403ab3c58caa273a42cdb95b15980141a86c\")\n  return(0x00, dataSize(sub_0))\nstop\n\nsub_0: assembly {\n        /* \"contracts/FundMe.sol\":258:1959  contract FundMe {... */\n      mstore(0x40, 0x80)\n      jumpi(tag_1, lt(calldatasize, 0x04))\n      shr(0xe0, calldataload(0x00))\n      dup1\n      0x3ccfd60b\n      eq\n      tag_3\n      jumpi\n      dup1\n      0x3e47d6f3\n      eq\n      tag_4\n      jumpi\n      dup1\n      0x6b69a592\n      eq\n      tag_5\n      jumpi\n      dup1\n      0xb60d4288\n      eq\n      tag_6\n      jumpi\n      dup1\n      0xdba6335f\n      eq\n      tag_7\n      jumpi\n      dup1\n      0xdc0d3dff\n      eq\n      tag_8\n      jumpi\n      jump(tag_2)\n    tag_1:\n      jumpi(tag_2, calldatasize)\n        /* \"contracts/FundMe.sol\":1881:1887  fund() */\n      tag_11\n        /* \"contracts/FundMe.sol\":1881:1885  fund */\n      tag_12\n        /* \"contracts/FundMe.sol\":1881:1887  fund() */\n      jump\t// in\n    tag_11:\n        /* \"contracts/FundMe.sol\":258:1959  contract FundMe {... */\n      stop\n    tag_2:\n        /* \"contracts/FundMe.sol\":1942:1948  fund() */\n      tag_15\n        /* \"contracts/FundMe.sol\":1942:1946  fund */\n      tag_12\n        /* \"contracts/FundMe.sol\":1942:1948  fund() */\n      jump\t// in\n    tag_15:\n        /* \"contracts/FundMe.sol\":258:1959  contract FundMe {... */\n      stop\n        /* \"contracts/FundMe.sol\":1186:1507  function withdraw() public onlyOwner {... */\n    tag_3:\n      callvalue\n      dup1\n      iszero\n      tag_16\n      jumpi\n      0x00\n      dup1\n      revert\n    tag_16:\n      pop\n      tag_17\n      tag_18\n      jump\t// in\n    tag_17:\n      stop\n        /* \"contracts/FundMe.sol\":725:781  mapping(address => uint256) public addressToAmountFunded */\n    tag_4:\n      callvalue\n      dup1\n      iszero\n      tag_19\n      jumpi\n      0x00\n      dup1\n      revert\n    tag_19:\n      pop\n      tag_20\n      0x04\n      dup1\n      calldatasize\n      sub\n      dup2\n      add\n      swap1\n      tag_21\n      swap2\n      swap1\n      tag_22\n      jump\t// in\n    tag_21:\n      tag_23\n      jump\t// in\n    tag_20:\n      mload(0x40)\n      tag_24\n      swap2\n      swap1\n      tag_25\n      jump\t// in\n    tag_24:\n      mload(0x40)\n      dup1\n      swap2\n      sub\n      swap1\n      return\n        /* \"contracts/FundMe.sol\":640:687  uint256 public constant MINIMUM_USD = 50 * 1e18 */\n    tag_5:\n      callvalue\n      dup1\n      iszero\n      tag_26\n      jumpi\n      0x00\n      dup1\n      revert\n    tag_26:\n      pop\n      tag_27\n      tag_28\n      jump\t// in\n    tag_27:\n      mload(0x40)\n      tag_29\n      swap2\n      swap1\n      tag_25\n      jump\t// in\n    tag_29:\n      mload(0x40)\n      dup1\n      swap2\n      sub\n      swap1\n      return\n        /* \"contracts/FundMe.sol\":960:1178  function fund() public payable {... */\n    tag_6:\n      tag_30\n      tag_12\n      jump\t// in\n    tag_30:\n      stop\n        /* \"contracts/FundMe.sol\":788:820  address public immutable i_owner */\n    tag_7:\n      callvalue\n      dup1\n      iszero\n      tag_31\n      jumpi\n      0x00\n      dup1\n      revert\n    tag_31:\n      pop\n      tag_32\n      tag_33\n      jump\t// in\n    tag_32:\n      mload(0x40)\n      tag_34\n      swap2\n      swap1\n      tag_35\n      jump\t// in\n    tag_34:\n      mload(0x40)\n      dup1\n      swap2\n      sub\n      swap1\n      return\n        /* \"contracts/FundMe.sol\":694:718  address[] public funders */\n    tag_8:\n      callvalue\n      dup1\n      iszero\n      tag_36\n      jumpi\n      0x00\n      dup1\n      revert\n    tag_36:\n      pop\n      tag_37\n      0x04\n      dup1\n      calldatasize\n      sub\n      dup2\n      add\n      swap1\n      tag_38\n      swap2\n      swap1\n      tag_39\n      jump\t// in\n    tag_38:\n      tag_40\n      jump\t// in\n    tag_37:\n      mload(0x40)\n      tag_41\n      swap2\n      swap1\n      tag_35\n      jump\t// in\n    tag_41:\n      mload(0x40)\n      dup1\n      swap2\n      sub\n      swap1\n      return\n        /* \"contracts/FundMe.sol\":960:1178  function fund() public payable {... */\n    tag_12:\n        /* \"contracts/FundMe.sol\":678:687  50 * 1e18 */\n      0x02b5e3af16b1880000\n        /* \"contracts/FundMe.sol\":1010:1039  msg.value.getConversionRate() */\n      tag_43\n        /* \"contracts/FundMe.sol\":1010:1019  msg.value */\n      callvalue\n        /* \"contracts/FundMe.sol\":1010:1037  msg.value.getConversionRate */\n      tag_44\n        /* \"contracts/FundMe.sol\":1010:1039  msg.value.getConversionRate() */\n      jump\t// in\n    tag_43:\n        /* \"contracts/FundMe.sol\":1010:1054  msg.value.getConversionRate() >= MINIMUM_USD */\n      lt\n      iszero\n        /* \"contracts/FundMe.sol\":1002:1078  require(msg.value.getConversionRate() >= MINIMUM_USD, \"Didn't send enough!\") */\n      tag_45\n      jumpi\n      mload(0x40)\n      0x08c379a000000000000000000000000000000000000000000000000000000000\n      dup2\n      mstore\n      0x04\n      add\n      tag_46\n      swap1\n      tag_47\n      jump\t// in\n    tag_46:\n      mload(0x40)\n      dup1\n      swap2\n      sub\n      swap1\n      revert\n    tag_45:\n        /* \"contracts/FundMe.sol\":1126:1135  msg.value */\n      callvalue\n        /* \"contracts/FundMe.sol\":1089:1110  addressToAmountFunded */\n      0x01\n        /* \"contracts/FundMe.sol\":1089:1122  addressToAmountFunded[msg.sender] */\n      0x00\n        /* \"contracts/FundMe.sol\":1111:1121  msg.sender */\n      caller\n        /* \"contracts/FundMe.sol\":1089:1122  addressToAmountFunded[msg.sender] */\n      0xffffffffffffffffffffffffffffffffffffffff\n      and\n      0xffffffffffffffffffffffffffffffffffffffff\n      and\n      dup2\n      mstore\n      0x20\n      add\n      swap1\n      dup2\n      mstore\n      0x20\n      add\n      0x00\n      keccak256\n      0x00\n        /* \"contracts/FundMe.sol\":1089:1135  addressToAmountFunded[msg.sender] += msg.value */\n      dup3\n      dup3\n      sload\n      tag_48\n      swap2\n      swap1\n      tag_49\n      jump\t// in\n    tag_48:\n      swap3\n      pop\n      pop\n      dup2\n      swap1\n      sstore\n      pop\n        /* \"contracts/FundMe.sol\":1146:1153  funders */\n      0x00\n        /* \"contracts/FundMe.sol\":1159:1169  msg.sender */\n      caller\n        /* \"contracts/FundMe.sol\":1146:1170  funders.push(msg.sender) */\n      swap1\n      dup1\n      0x01\n      dup2\n      sload\n      add\n      dup1\n      dup3\n      sstore\n      dup1\n      swap2\n      pop\n      pop\n      0x01\n      swap1\n      sub\n      swap1\n      0x00\n      mstore\n      keccak256(0x00, 0x20)\n      add\n      0x00\n      swap1\n      swap2\n      swap1\n      swap2\n      swap1\n      swap2\n      0x0100\n      exp\n      dup2\n      sload\n      dup2\n      0xffffffffffffffffffffffffffffffffffffffff\n      mul\n      not\n      and\n      swap1\n      dup4\n      0xffffffffffffffffffffffffffffffffffffffff\n      and\n      mul\n      or\n      swap1\n      sstore\n      pop\n        /* \"contracts/FundMe.sol\":960:1178  function fund() public payable {... */\n      jump\t// out\n        /* \"contracts/FundMe.sol\":1186:1507  function withdraw() public onlyOwner {... */\n    tag_18:\n        /* \"contracts/FundMe.sol\":1636:1643  i_owner */\n      immutable(\"0xcc143a676b82d5e07b2c9d57717b403ab3c58caa273a42cdb95b15980141a86c\")\n        /* \"contracts/FundMe.sol\":1622:1643  msg.sender != i_owner */\n      0xffffffffffffffffffffffffffffffffffffffff\n      and\n        /* \"contracts/FundMe.sol\":1622:1632  msg.sender */\n      caller\n        /* \"contracts/FundMe.sol\":1622:1643  msg.sender != i_owner */\n      0xffffffffffffffffffffffffffffffffffffffff\n      and\n      eq\n        /* \"contracts/FundMe.sol\":1619:1689  if(msg.sender != i_owner) {... */\n      tag_52\n      jumpi\n        /* \"contracts/FundMe.sol\":1667:1677  NotOwner() */\n      mload(0x40)\n      0x30cd747100000000000000000000000000000000000000000000000000000000\n      dup2\n      mstore\n      0x04\n      add\n      mload(0x40)\n      dup1\n      swap2\n      sub\n      swap1\n      revert\n        /* \"contracts/FundMe.sol\":1619:1689  if(msg.sender != i_owner) {... */\n    tag_52:\n        /* \"contracts/FundMe.sol\":1306:1307  0 */\n      0x00\n        /* \"contracts/FundMe.sol\":1292:1308  new address[](0) */\n      0xffffffffffffffff\n      dup2\n      gt\n      iszero\n      tag_54\n      jumpi\n      tag_55\n      tag_56\n      jump\t// in\n    tag_55:\n    tag_54:\n      mload(0x40)\n      swap1\n      dup1\n      dup3\n      mstore\n      dup1\n      0x20\n      mul\n      0x20\n      add\n      dup3\n      add\n      0x40\n      mstore\n      dup1\n      iszero\n      tag_57\n      jumpi\n      dup2\n      0x20\n      add\n      0x20\n      dup3\n      mul\n      dup1\n      calldatasize\n      dup4\n      calldatacopy\n      dup1\n      dup3\n      add\n      swap2\n      pop\n      pop\n      swap1\n      pop\n    tag_57:\n      pop\n        /* \"contracts/FundMe.sol\":1282:1289  funders */\n      0x00\n        /* \"contracts/FundMe.sol\":1282:1308  funders = new address[](0) */\n      swap1\n      dup1\n      mload\n      swap1\n      0x20\n      add\n      swap1\n      tag_58\n      swap3\n      swap2\n      swap1\n      tag_59\n      jump\t// in\n    tag_58:\n      pop\n        /* \"contracts/FundMe.sol\":1374:1390  bool callSuccess */\n      0x00\n        /* \"contracts/FundMe.sol\":1403:1413  msg.sender */\n      caller\n        /* \"contracts/FundMe.sol\":1395:1419  payable(msg.sender).call */\n      0xffffffffffffffffffffffffffffffffffffffff\n      and\n        /* \"contracts/FundMe.sol\":1427:1448  address(this).balance */\n      selfbalance\n        /* \"contracts/FundMe.sol\":1395:1453  payable(msg.sender).call{value: address(this).balance}(\"\") */\n      mload(0x40)\n      tag_60\n      swap1\n      tag_61\n      jump\t// in\n    tag_60:\n      0x00\n      mload(0x40)\n      dup1\n      dup4\n      sub\n      dup2\n      dup6\n      dup8\n      gas\n      call\n      swap3\n      pop\n      pop\n      pop\n      returndatasize\n      dup1\n      0x00\n      dup2\n      eq\n      tag_64\n      jumpi\n      mload(0x40)\n      swap2\n      pop\n      and(add(returndatasize, 0x3f), not(0x1f))\n      dup3\n      add\n      0x40\n      mstore\n      returndatasize\n      dup3\n      mstore\n      returndatasize\n      0x00\n      0x20\n      dup5\n      add\n      returndatacopy\n      jump(tag_63)\n    tag_64:\n      0x60\n      swap2\n      pop\n    tag_63:\n      pop\n        /* \"contracts/FundMe.sol\":1373:1453  (bool callSuccess,) = payable(msg.sender).call{value: address(this).balance}(\"\") */\n      pop\n      swap1\n      pop\n        /* \"contracts/FundMe.sol\":1472:1483  callSuccess */\n      dup1\n        /* \"contracts/FundMe.sol\":1464:1499  require(callSuccess, \"Call failed\") */\n      tag_65\n      jumpi\n      mload(0x40)\n      0x08c379a000000000000000000000000000000000000000000000000000000000\n      dup2\n      mstore\n      0x04\n      add\n      tag_66\n      swap1\n      tag_67\n      jump\t// in\n    tag_66:\n      mload(0x40)\n      dup1\n      swap2\n      sub\n      swap1\n      revert\n    tag_65:\n        /* \"contracts/FundMe.sol\":1223:1507  {... */\n      pop\n        /* \"contracts/FundMe.sol\":1186:1507  function withdraw() public onlyOwner {... */\n      jump\t// out\n        /* \"contracts/FundMe.sol\":725:781  mapping(address => uint256) public addressToAmountFunded */\n    tag_23:\n      mstore(0x20, 0x01)\n      dup1\n      0x00\n      mstore\n      keccak256(0x00, 0x40)\n      0x00\n      swap2\n      pop\n      swap1\n      pop\n      sload\n      dup2\n      jump\t// out\n        /* \"contracts/FundMe.sol\":640:687  uint256 public constant MINIMUM_USD = 50 * 1e18 */\n    tag_28:\n        /* \"contracts/FundMe.sol\":678:687  50 * 1e18 */\n      0x02b5e3af16b1880000\n        /* \"contracts/FundMe.sol\":640:687  uint256 public constant MINIMUM_USD = 50 * 1e18 */\n      dup2\n      jump\t// out\n        /* \"contracts/FundMe.sol\":788:820  address public immutable i_owner */\n    tag_33:\n      immutable(\"0xcc143a676b82d5e07b2c9d57717b403ab3c58caa273a42cdb95b15980141a86c\")\n      dup2\n      jump\t// out\n        /* \"contracts/FundMe.sol\":694:718  address[] public funders */\n    tag_40:\n      0x00\n      dup2\n      dup2\n      sload\n      dup2\n      lt\n      tag_68\n      jumpi\n      0x00\n      dup1\n      revert\n    tag_68:\n      swap1\n      0x00\n      mstore\n      keccak256(0x00, 0x20)\n      add\n      0x00\n      swap2\n      pop\n      sload\n      swap1\n      0x0100\n      exp\n      swap1\n      div\n      0xffffffffffffffffffffffffffffffffffffffff\n      and\n      dup2\n      jump\t// out\n        /* \"contracts/PriceConverter.sol\":1538:1834  function getConversionRate(uint256 ethAmt) internal view returns (uint256){... */\n    tag_44:\n        /* \"contracts/PriceConverter.sol\":1604:1611  uint256 */\n      0x00\n        /* \"contracts/PriceConverter.sol\":1623:1639  uint256 ethPrice */\n      dup1\n        /* \"contracts/PriceConverter.sol\":1642:1652  getPrice() */\n      tag_71\n        /* \"contracts/PriceConverter.sol\":1642:1650  getPrice */\n      tag_72\n        /* \"contracts/PriceConverter.sol\":1642:1652  getPrice() */\n      jump\t// in\n    tag_71:\n        /* \"contracts/PriceConverter.sol\":1623:1652  uint256 ethPrice = getPrice() */\n      swap1\n      pop\n        /* \"contracts/PriceConverter.sol\":1697:1720  uint256 EthAmmountInUSD */\n      0x00\n        /* \"contracts/PriceConverter.sol\":1745:1749  1e18 */\n      0x0de0b6b3a7640000\n        /* \"contracts/PriceConverter.sol\":1735:1741  ethAmt */\n      dup5\n        /* \"contracts/PriceConverter.sol\":1724:1732  ethPrice */\n      dup4\n        /* \"contracts/PriceConverter.sol\":1724:1741  ethPrice * ethAmt */\n      tag_73\n      swap2\n      swap1\n      tag_74\n      jump\t// in\n    tag_73:\n        /* \"contracts/PriceConverter.sol\":1723:1749  (ethPrice * ethAmt) / 1e18 */\n      tag_75\n      swap2\n      swap1\n      tag_76\n      jump\t// in\n    tag_75:\n        /* \"contracts/PriceConverter.sol\":1697:1749  uint256 EthAmmountInUSD = (ethPrice * ethAmt) / 1e18 */\n      swap1\n      pop\n        /* \"contracts/PriceConverter.sol\":1811:1826  EthAmmountInUSD */\n      dup1\n        /* \"contracts/PriceConverter.sol\":1804:1826  return EthAmmountInUSD */\n      swap3\n      pop\n      pop\n      pop\n        /* \"contracts/PriceConverter.sol\":1538:1834  function getConversionRate(uint256 ethAmt) internal view returns (uint256){... */\n      swap2\n      swap1\n      pop\n      jump\t// out\n        /* \"contracts/PriceConverter.sol\":300:1314  function getPrice() internal  view returns (uint256) {... */\n    tag_72:\n        /* \"contracts/PriceConverter.sol\":344:351  uint256 */\n      0x00\n        /* \"contracts/PriceConverter.sol\":928:959  AggregatorV3Interface priceFeed */\n      dup1\n        /* \"contracts/PriceConverter.sol\":984:1026  0x694AA1769357215DE4FAC081bf1f309aDC325306 */\n      0x694aa1769357215de4fac081bf1f309adc325306\n        /* \"contracts/PriceConverter.sol\":928:1027  AggregatorV3Interface priceFeed = AggregatorV3Interface(0x694AA1769357215DE4FAC081bf1f309aDC325306) */\n      swap1\n      pop\n        /* \"contracts/PriceConverter.sol\":1168:1180  int256 price */\n      0x00\n        /* \"contracts/PriceConverter.sol\":1187:1196  priceFeed */\n      dup2\n        /* \"contracts/PriceConverter.sol\":1187:1212  priceFeed.latestRoundData */\n      0xffffffffffffffffffffffffffffffffffffffff\n      and\n      0xfeaf968c\n        /* \"contracts/PriceConverter.sol\":1187:1214  priceFeed.latestRoundData() */\n      mload(0x40)\n      dup2\n      0xffffffff\n      and\n      0xe0\n      shl\n      dup2\n      mstore\n      0x04\n      add\n      0xa0\n      mload(0x40)\n      dup1\n      dup4\n      sub\n      dup2\n      dup7\n      gas\n      staticcall\n      iszero\n      dup1\n      iszero\n      tag_79\n      jumpi\n      returndatasize\n      0x00\n      dup1\n      returndatacopy\n      revert(0x00, returndatasize)\n    tag_79:\n      pop\n      pop\n      pop\n      pop\n      mload(0x40)\n      returndatasize\n      not(0x1f)\n      0x1f\n      dup3\n      add\n      and\n      dup3\n      add\n      dup1\n      0x40\n      mstore\n      pop\n      dup2\n      add\n      swap1\n      tag_80\n      swap2\n      swap1\n      tag_81\n      jump\t// in\n    tag_80:\n        /* \"contracts/PriceConverter.sol\":1166:1214  (,int256 price,,,) = priceFeed.latestRoundData() */\n      pop\n      pop\n      pop\n      swap2\n      pop\n      pop\n        /* \"contracts/PriceConverter.sol\":1248:1252  1e10 */\n      0x02540be400\n        /* \"contracts/PriceConverter.sol\":1240:1245  price */\n      dup2\n        /* \"contracts/PriceConverter.sol\":1240:1252  price * 1e10 */\n      tag_82\n      swap2\n      swap1\n      tag_83\n      jump\t// in\n    tag_82:\n        /* \"contracts/PriceConverter.sol\":1225:1253  return uint256(price * 1e10) */\n      swap3\n      pop\n      pop\n      pop\n        /* \"contracts/PriceConverter.sol\":300:1314  function getPrice() internal  view returns (uint256) {... */\n      swap1\n      jump\t// out\n    tag_59:\n      dup3\n      dup1\n      sload\n      dup3\n      dup3\n      sstore\n      swap1\n      0x00\n      mstore\n      keccak256(0x00, 0x20)\n      swap1\n      dup2\n      add\n      swap3\n      dup3\n      iszero\n      tag_84\n      jumpi\n      swap2\n      0x20\n      mul\n      dup3\n      add\n    tag_85:\n      dup3\n      dup2\n      gt\n      iszero\n      tag_86\n      jumpi\n      dup3\n      mload\n      dup3\n      exp(0x0100, 0x00)\n      dup2\n      sload\n      dup2\n      0xffffffffffffffffffffffffffffffffffffffff\n      mul\n      not\n      and\n      swap1\n      dup4\n      0xffffffffffffffffffffffffffffffffffffffff\n      and\n      mul\n      or\n      swap1\n      sstore\n      pop\n      swap2\n      0x20\n      add\n      swap2\n      swap1\n      0x01\n      add\n      swap1\n      jump(tag_85)\n    tag_86:\n    tag_84:\n      pop\n      swap1\n      pop\n      tag_87\n      swap2\n      swap1\n      tag_88\n      jump\t// in\n    tag_87:\n      pop\n      swap1\n      jump\t// out\n    tag_88:\n    tag_89:\n      dup1\n      dup3\n      gt\n      iszero\n      tag_90\n      jumpi\n      0x00\n      dup2\n      0x00\n      swap1\n      sstore\n      pop\n      0x01\n      add\n      jump(tag_89)\n    tag_90:\n      pop\n      swap1\n      jump\t// out\n        /* \"#utility.yul\":88:205   */\n    tag_92:\n        /* \"#utility.yul\":197:198   */\n      0x00\n        /* \"#utility.yul\":194:195   */\n      dup1\n        /* \"#utility.yul\":187:199   */\n      revert\n        /* \"#utility.yul\":334:460   */\n    tag_94:\n        /* \"#utility.yul\":371:378   */\n      0x00\n        /* \"#utility.yul\":411:453   */\n      0xffffffffffffffffffffffffffffffffffffffff\n        /* \"#utility.yul\":404:409   */\n      dup3\n        /* \"#utility.yul\":400:454   */\n      and\n        /* \"#utility.yul\":389:454   */\n      swap1\n      pop\n        /* \"#utility.yul\":334:460   */\n      swap2\n      swap1\n      pop\n      jump\t// out\n        /* \"#utility.yul\":466:562   */\n    tag_95:\n        /* \"#utility.yul\":503:510   */\n      0x00\n        /* \"#utility.yul\":532:556   */\n      tag_126\n        /* \"#utility.yul\":550:555   */\n      dup3\n        /* \"#utility.yul\":532:556   */\n      tag_94\n      jump\t// in\n    tag_126:\n        /* \"#utility.yul\":521:556   */\n      swap1\n      pop\n        /* \"#utility.yul\":466:562   */\n      swap2\n      swap1\n      pop\n      jump\t// out\n        /* \"#utility.yul\":568:690   */\n    tag_96:\n        /* \"#utility.yul\":641:665   */\n      tag_128\n        /* \"#utility.yul\":659:664   */\n      dup2\n        /* \"#utility.yul\":641:665   */\n      tag_95\n      jump\t// in\n    tag_128:\n        /* \"#utility.yul\":634:639   */\n      dup2\n        /* \"#utility.yul\":631:666   */\n      eq\n        /* \"#utility.yul\":621:684   */\n      tag_129\n      jumpi\n        /* \"#utility.yul\":680:681   */\n      0x00\n        /* \"#utility.yul\":677:678   */\n      dup1\n        /* \"#utility.yul\":670:682   */\n      revert\n        /* \"#utility.yul\":621:684   */\n    tag_129:\n        /* \"#utility.yul\":568:690   */\n      pop\n      jump\t// out\n        /* \"#utility.yul\":696:835   */\n    tag_97:\n        /* \"#utility.yul\":742:747   */\n      0x00\n        /* \"#utility.yul\":780:786   */\n      dup2\n        /* \"#utility.yul\":767:787   */\n      calldataload\n        /* \"#utility.yul\":758:787   */\n      swap1\n      pop\n        /* \"#utility.yul\":796:829   */\n      tag_131\n        /* \"#utility.yul\":823:828   */\n      dup2\n        /* \"#utility.yul\":796:829   */\n      tag_96\n      jump\t// in\n    tag_131:\n        /* \"#utility.yul\":696:835   */\n      swap3\n      swap2\n      pop\n      pop\n      jump\t// out\n        /* \"#utility.yul\":841:1170   */\n    tag_22:\n        /* \"#utility.yul\":900:906   */\n      0x00\n        /* \"#utility.yul\":949:951   */\n      0x20\n        /* \"#utility.yul\":937:946   */\n      dup3\n        /* \"#utility.yul\":928:935   */\n      dup5\n        /* \"#utility.yul\":924:947   */\n      sub\n        /* \"#utility.yul\":920:952   */\n      slt\n        /* \"#utility.yul\":917:1036   */\n      iszero\n      tag_133\n      jumpi\n        /* \"#utility.yul\":955:1034   */\n      tag_134\n      tag_92\n      jump\t// in\n    tag_134:\n        /* \"#utility.yul\":917:1036   */\n    tag_133:\n        /* \"#utility.yul\":1075:1076   */\n      0x00\n        /* \"#utility.yul\":1100:1153   */\n      tag_135\n        /* \"#utility.yul\":1145:1152   */\n      dup5\n        /* \"#utility.yul\":1136:1142   */\n      dup3\n        /* \"#utility.yul\":1125:1134   */\n      dup6\n        /* \"#utility.yul\":1121:1143   */\n      add\n        /* \"#utility.yul\":1100:1153   */\n      tag_97\n      jump\t// in\n    tag_135:\n        /* \"#utility.yul\":1090:1153   */\n      swap2\n      pop\n        /* \"#utility.yul\":1046:1163   */\n      pop\n        /* \"#utility.yul\":841:1170   */\n      swap3\n      swap2\n      pop\n      pop\n      jump\t// out\n        /* \"#utility.yul\":1176:1253   */\n    tag_98:\n        /* \"#utility.yul\":1213:1220   */\n      0x00\n        /* \"#utility.yul\":1242:1247   */\n      dup2\n        /* \"#utility.yul\":1231:1247   */\n      swap1\n      pop\n        /* \"#utility.yul\":1176:1253   */\n      swap2\n      swap1\n      pop\n      jump\t// out\n        /* \"#utility.yul\":1259:1377   */\n    tag_99:\n        /* \"#utility.yul\":1346:1370   */\n      tag_138\n        /* \"#utility.yul\":1364:1369   */\n      dup2\n        /* \"#utility.yul\":1346:1370   */\n      tag_98\n      jump\t// in\n    tag_138:\n        /* \"#utility.yul\":1341:1344   */\n      dup3\n        /* \"#utility.yul\":1334:1371   */\n      mstore\n        /* \"#utility.yul\":1259:1377   */\n      pop\n      pop\n      jump\t// out\n        /* \"#utility.yul\":1383:1605   */\n    tag_25:\n        /* \"#utility.yul\":1476:1480   */\n      0x00\n        /* \"#utility.yul\":1514:1516   */\n      0x20\n        /* \"#utility.yul\":1503:1512   */\n      dup3\n        /* \"#utility.yul\":1499:1517   */\n      add\n        /* \"#utility.yul\":1491:1517   */\n      swap1\n      pop\n        /* \"#utility.yul\":1527:1598   */\n      tag_140\n        /* \"#utility.yul\":1595:1596   */\n      0x00\n        /* \"#utility.yul\":1584:1593   */\n      dup4\n        /* \"#utility.yul\":1580:1597   */\n      add\n        /* \"#utility.yul\":1571:1577   */\n      dup5\n        /* \"#utility.yul\":1527:1598   */\n      tag_99\n      jump\t// in\n    tag_140:\n        /* \"#utility.yul\":1383:1605   */\n      swap3\n      swap2\n      pop\n      pop\n      jump\t// out\n        /* \"#utility.yul\":1611:1729   */\n    tag_100:\n        /* \"#utility.yul\":1698:1722   */\n      tag_142\n        /* \"#utility.yul\":1716:1721   */\n      dup2\n        /* \"#utility.yul\":1698:1722   */\n      tag_95\n      jump\t// in\n    tag_142:\n        /* \"#utility.yul\":1693:1696   */\n      dup3\n        /* \"#utility.yul\":1686:1723   */\n      mstore\n        /* \"#utility.yul\":1611:1729   */\n      pop\n      pop\n      jump\t// out\n        /* \"#utility.yul\":1735:1957   */\n    tag_35:\n        /* \"#utility.yul\":1828:1832   */\n      0x00\n        /* \"#utility.yul\":1866:1868   */\n      0x20\n        /* \"#utility.yul\":1855:1864   */\n      dup3\n        /* \"#utility.yul\":1851:1869   */\n      add\n        /* \"#utility.yul\":1843:1869   */\n      swap1\n      pop\n        /* \"#utility.yul\":1879:1950   */\n      tag_144\n        /* \"#utility.yul\":1947:1948   */\n      0x00\n        /* \"#utility.yul\":1936:1945   */\n      dup4\n        /* \"#utility.yul\":1932:1949   */\n      add\n        /* \"#utility.yul\":1923:1929   */\n      dup5\n        /* \"#utility.yul\":1879:1950   */\n      tag_100\n      jump\t// in\n    tag_144:\n        /* \"#utility.yul\":1735:1957   */\n      swap3\n      swap2\n      pop\n      pop\n      jump\t// out\n        /* \"#utility.yul\":1963:2085   */\n    tag_101:\n        /* \"#utility.yul\":2036:2060   */\n      tag_146\n        /* \"#utility.yul\":2054:2059   */\n      dup2\n        /* \"#utility.yul\":2036:2060   */\n      tag_98\n      jump\t// in\n    tag_146:\n        /* \"#utility.yul\":2029:2034   */\n      dup2\n        /* \"#utility.yul\":2026:2061   */\n      eq\n        /* \"#utility.yul\":2016:2079   */\n      tag_147\n      jumpi\n        /* \"#utility.yul\":2075:2076   */\n      0x00\n        /* \"#utility.yul\":2072:2073   */\n      dup1\n        /* \"#utility.yul\":2065:2077   */\n      revert\n        /* \"#utility.yul\":2016:2079   */\n    tag_147:\n        /* \"#utility.yul\":1963:2085   */\n      pop\n      jump\t// out\n        /* \"#utility.yul\":2091:2230   */\n    tag_102:\n        /* \"#utility.yul\":2137:2142   */\n      0x00\n        /* \"#utility.yul\":2175:2181   */\n      dup2\n        /* \"#utility.yul\":2162:2182   */\n      calldataload\n        /* \"#utility.yul\":2153:2182   */\n      swap1\n      pop\n        /* \"#utility.yul\":2191:2224   */\n      tag_149\n        /* \"#utility.yul\":2218:2223   */\n      dup2\n        /* \"#utility.yul\":2191:2224   */\n      tag_101\n      jump\t// in\n    tag_149:\n        /* \"#utility.yul\":2091:2230   */\n      swap3\n      swap2\n      pop\n      pop\n      jump\t// out\n        /* \"#utility.yul\":2236:2565   */\n    tag_39:\n        /* \"#utility.yul\":2295:2301   */\n      0x00\n        /* \"#utility.yul\":2344:2346   */\n      0x20\n        /* \"#utility.yul\":2332:2341   */\n      dup3\n        /* \"#utility.yul\":2323:2330   */\n      dup5\n        /* \"#utility.yul\":2319:2342   */\n      sub\n        /* \"#utility.yul\":2315:2347   */\n      slt\n        /* \"#utility.yul\":2312:2431   */\n      iszero\n      tag_151\n      jumpi\n        /* \"#utility.yul\":2350:2429   */\n      tag_152\n      tag_92\n      jump\t// in\n    tag_152:\n        /* \"#utility.yul\":2312:2431   */\n    tag_151:\n        /* \"#utility.yul\":2470:2471   */\n      0x00\n        /* \"#utility.yul\":2495:2548   */\n      tag_153\n        /* \"#utility.yul\":2540:2547   */\n      dup5\n        /* \"#utility.yul\":2531:2537   */\n      dup3\n        /* \"#utility.yul\":2520:2529   */\n      dup6\n        /* \"#utility.yul\":2516:2538   */\n      add\n        /* \"#utility.yul\":2495:2548   */\n      tag_102\n      jump\t// in\n    tag_153:\n        /* \"#utility.yul\":2485:2548   */\n      swap2\n      pop\n        /* \"#utility.yul\":2441:2558   */\n      pop\n        /* \"#utility.yul\":2236:2565   */\n      swap3\n      swap2\n      pop\n      pop\n      jump\t// out\n        /* \"#utility.yul\":2571:2740   */\n    tag_103:\n        /* \"#utility.yul\":2655:2666   */\n      0x00\n        /* \"#utility.yul\":2689:2695   */\n      dup3\n        /* \"#utility.yul\":2684:2687   */\n      dup3\n        /* \"#utility.yul\":2677:2696   */\n      mstore\n        /* \"#utility.yul\":2729:2733   */\n      0x20\n        /* \"#utility.yul\":2724:2727   */\n      dup3\n        /* \"#utility.yul\":2720:2734   */\n      add\n        /* \"#utility.yul\":2705:2734   */\n      swap1\n      pop\n        /* \"#utility.yul\":2571:2740   */\n      swap3\n      swap2\n      pop\n      pop\n      jump\t// out\n        /* \"#utility.yul\":2746:2915   */\n    tag_104:\n        /* \"#utility.yul\":2886:2907   */\n      0x4469646e27742073656e6420656e6f7567682100000000000000000000000000\n        /* \"#utility.yul\":2882:2883   */\n      0x00\n        /* \"#utility.yul\":2874:2880   */\n      dup3\n        /* \"#utility.yul\":2870:2884   */\n      add\n        /* \"#utility.yul\":2863:2908   */\n      mstore\n        /* \"#utility.yul\":2746:2915   */\n      pop\n      jump\t// out\n        /* \"#utility.yul\":2921:3287   */\n    tag_105:\n        /* \"#utility.yul\":3063:3066   */\n      0x00\n        /* \"#utility.yul\":3084:3151   */\n      tag_157\n        /* \"#utility.yul\":3148:3150   */\n      0x13\n        /* \"#utility.yul\":3143:3146   */\n      dup4\n        /* \"#utility.yul\":3084:3151   */\n      tag_103\n      jump\t// in\n    tag_157:\n        /* \"#utility.yul\":3077:3151   */\n      swap2\n      pop\n        /* \"#utility.yul\":3160:3253   */\n      tag_158\n        /* \"#utility.yul\":3249:3252   */\n      dup3\n        /* \"#utility.yul\":3160:3253   */\n      tag_104\n      jump\t// in\n    tag_158:\n        /* \"#utility.yul\":3278:3280   */\n      0x20\n        /* \"#utility.yul\":3273:3276   */\n      dup3\n        /* \"#utility.yul\":3269:3281   */\n      add\n        /* \"#utility.yul\":3262:3281   */\n      swap1\n      pop\n        /* \"#utility.yul\":2921:3287   */\n      swap2\n      swap1\n      pop\n      jump\t// out\n        /* \"#utility.yul\":3293:3712   */\n    tag_47:\n        /* \"#utility.yul\":3459:3463   */\n      0x00\n        /* \"#utility.yul\":3497:3499   */\n      0x20\n        /* \"#utility.yul\":3486:3495   */\n      dup3\n        /* \"#utility.yul\":3482:3500   */\n      add\n        /* \"#utility.yul\":3474:3500   */\n      swap1\n      pop\n        /* \"#utility.yul\":3546:3555   */\n      dup2\n        /* \"#utility.yul\":3540:3544   */\n      dup2\n        /* \"#utility.yul\":3536:3556   */\n      sub\n        /* \"#utility.yul\":3532:3533   */\n      0x00\n        /* \"#utility.yul\":3521:3530   */\n      dup4\n        /* \"#utility.yul\":3517:3534   */\n      add\n        /* \"#utility.yul\":3510:3557   */\n      mstore\n        /* \"#utility.yul\":3574:3705   */\n      tag_160\n        /* \"#utility.yul\":3700:3704   */\n      dup2\n        /* \"#utility.yul\":3574:3705   */\n      tag_105\n      jump\t// in\n    tag_160:\n        /* \"#utility.yul\":3566:3705   */\n      swap1\n      pop\n        /* \"#utility.yul\":3293:3712   */\n      swap2\n      swap1\n      pop\n      jump\t// out\n        /* \"#utility.yul\":3718:3898   */\n    tag_106:\n        /* \"#utility.yul\":3766:3843   */\n      0x4e487b7100000000000000000000000000000000000000000000000000000000\n        /* \"#utility.yul\":3763:3764   */\n      0x00\n        /* \"#utility.yul\":3756:3844   */\n      mstore\n        /* \"#utility.yul\":3863:3867   */\n      0x11\n        /* \"#utility.yul\":3860:3861   */\n      0x04\n        /* \"#utility.yul\":3853:3868   */\n      mstore\n        /* \"#utility.yul\":3887:3891   */\n      0x24\n        /* \"#utility.yul\":3884:3885   */\n      0x00\n        /* \"#utility.yul\":3877:3892   */\n      revert\n        /* \"#utility.yul\":3904:4095   */\n    tag_49:\n        /* \"#utility.yul\":3944:3947   */\n      0x00\n        /* \"#utility.yul\":3963:3983   */\n      tag_163\n        /* \"#utility.yul\":3981:3982   */\n      dup3\n        /* \"#utility.yul\":3963:3983   */\n      tag_98\n      jump\t// in\n    tag_163:\n        /* \"#utility.yul\":3958:3983   */\n      swap2\n      pop\n        /* \"#utility.yul\":3997:4017   */\n      tag_164\n        /* \"#utility.yul\":4015:4016   */\n      dup4\n        /* \"#utility.yul\":3997:4017   */\n      tag_98\n      jump\t// in\n    tag_164:\n        /* \"#utility.yul\":3992:4017   */\n      swap3\n      pop\n        /* \"#utility.yul\":4040:4041   */\n      dup3\n        /* \"#utility.yul\":4037:4038   */\n      dup3\n        /* \"#utility.yul\":4033:4042   */\n      add\n        /* \"#utility.yul\":4026:4042   */\n      swap1\n      pop\n        /* \"#utility.yul\":4061:4064   */\n      dup1\n        /* \"#utility.yul\":4058:4059   */\n      dup3\n        /* \"#utility.yul\":4055:4065   */\n      gt\n        /* \"#utility.yul\":4052:4088   */\n      iszero\n      tag_165\n      jumpi\n        /* \"#utility.yul\":4068:4086   */\n      tag_166\n      tag_106\n      jump\t// in\n    tag_166:\n        /* \"#utility.yul\":4052:4088   */\n    tag_165:\n        /* \"#utility.yul\":3904:4095   */\n      swap3\n      swap2\n      pop\n      pop\n      jump\t// out\n        /* \"#utility.yul\":4101:4281   */\n    tag_56:\n        /* \"#utility.yul\":4149:4226   */\n      0x4e487b7100000000000000000000000000000000000000000000000000000000\n        /* \"#utility.yul\":4146:4147   */\n      0x00\n        /* \"#utility.yul\":4139:4227   */\n      mstore\n        /* \"#utility.yul\":4246:4250   */\n      0x41\n        /* \"#utility.yul\":4243:4244   */\n      0x04\n        /* \"#utility.yul\":4236:4251   */\n      mstore\n        /* \"#utility.yul\":4270:4274   */\n      0x24\n        /* \"#utility.yul\":4267:4268   */\n      0x00\n        /* \"#utility.yul\":4260:4275   */\n      revert\n        /* \"#utility.yul\":4287:4434   */\n    tag_107:\n        /* \"#utility.yul\":4388:4399   */\n      0x00\n        /* \"#utility.yul\":4425:4428   */\n      dup2\n        /* \"#utility.yul\":4410:4428   */\n      swap1\n      pop\n        /* \"#utility.yul\":4287:4434   */\n      swap3\n      swap2\n      pop\n      pop\n      jump\t// out\n        /* \"#utility.yul\":4440:4554   */\n    tag_108:\n      pop\n      jump\t// out\n        /* \"#utility.yul\":4560:4958   */\n    tag_109:\n        /* \"#utility.yul\":4719:4722   */\n      0x00\n        /* \"#utility.yul\":4740:4823   */\n      tag_171\n        /* \"#utility.yul\":4821:4822   */\n      0x00\n        /* \"#utility.yul\":4816:4819   */\n      dup4\n        /* \"#utility.yul\":4740:4823   */\n      tag_107\n      jump\t// in\n    tag_171:\n        /* \"#utility.yul\":4733:4823   */\n      swap2\n      pop\n        /* \"#utility.yul\":4832:4925   */\n      tag_172\n        /* \"#utility.yul\":4921:4924   */\n      dup3\n        /* \"#utility.yul\":4832:4925   */\n      tag_108\n      jump\t// in\n    tag_172:\n        /* \"#utility.yul\":4950:4951   */\n      0x00\n        /* \"#utility.yul\":4945:4948   */\n      dup3\n        /* \"#utility.yul\":4941:4952   */\n      add\n        /* \"#utility.yul\":4934:4952   */\n      swap1\n      pop\n        /* \"#utility.yul\":4560:4958   */\n      swap2\n      swap1\n      pop\n      jump\t// out\n        /* \"#utility.yul\":4964:5343   */\n    tag_61:\n        /* \"#utility.yul\":5148:5151   */\n      0x00\n        /* \"#utility.yul\":5170:5317   */\n      tag_174\n        /* \"#utility.yul\":5313:5316   */\n      dup3\n        /* \"#utility.yul\":5170:5317   */\n      tag_109\n      jump\t// in\n    tag_174:\n        /* \"#utility.yul\":5163:5317   */\n      swap2\n      pop\n        /* \"#utility.yul\":5334:5337   */\n      dup2\n        /* \"#utility.yul\":5327:5337   */\n      swap1\n      pop\n        /* \"#utility.yul\":4964:5343   */\n      swap2\n      swap1\n      pop\n      jump\t// out\n        /* \"#utility.yul\":5349:5510   */\n    tag_110:\n        /* \"#utility.yul\":5489:5502   */\n      0x43616c6c206661696c6564000000000000000000000000000000000000000000\n        /* \"#utility.yul\":5485:5486   */\n      0x00\n        /* \"#utility.yul\":5477:5483   */\n      dup3\n        /* \"#utility.yul\":5473:5487   */\n      add\n        /* \"#utility.yul\":5466:5503   */\n      mstore\n        /* \"#utility.yul\":5349:5510   */\n      pop\n      jump\t// out\n        /* \"#utility.yul\":5516:5882   */\n    tag_111:\n        /* \"#utility.yul\":5658:5661   */\n      0x00\n        /* \"#utility.yul\":5679:5746   */\n      tag_177\n        /* \"#utility.yul\":5743:5745   */\n      0x0b\n        /* \"#utility.yul\":5738:5741   */\n      dup4\n        /* \"#utility.yul\":5679:5746   */\n      tag_103\n      jump\t// in\n    tag_177:\n        /* \"#utility.yul\":5672:5746   */\n      swap2\n      pop\n        /* \"#utility.yul\":5755:5848   */\n      tag_178\n        /* \"#utility.yul\":5844:5847   */\n      dup3\n        /* \"#utility.yul\":5755:5848   */\n      tag_110\n      jump\t// in\n    tag_178:\n        /* \"#utility.yul\":5873:5875   */\n      0x20\n        /* \"#utility.yul\":5868:5871   */\n      dup3\n        /* \"#utility.yul\":5864:5876   */\n      add\n        /* \"#utility.yul\":5857:5876   */\n      swap1\n      pop\n        /* \"#utility.yul\":5516:5882   */\n      swap2\n      swap1\n      pop\n      jump\t// out\n        /* \"#utility.yul\":5888:6307   */\n    tag_67:\n        /* \"#utility.yul\":6054:6058   */\n      0x00\n        /* \"#utility.yul\":6092:6094   */\n      0x20\n        /* \"#utility.yul\":6081:6090   */\n      dup3\n        /* \"#utility.yul\":6077:6095   */\n      add\n        /* \"#utility.yul\":6069:6095   */\n      swap1\n      pop\n        /* \"#utility.yul\":6141:6150   */\n      dup2\n        /* \"#utility.yul\":6135:6139   */\n      dup2\n        /* \"#utility.yul\":6131:6151   */\n      sub\n        /* \"#utility.yul\":6127:6128   */\n      0x00\n        /* \"#utility.yul\":6116:6125   */\n      dup4\n        /* \"#utility.yul\":6112:6129   */\n      add\n        /* \"#utility.yul\":6105:6152   */\n      mstore\n        /* \"#utility.yul\":6169:6300   */\n      tag_180\n        /* \"#utility.yul\":6295:6299   */\n      dup2\n        /* \"#utility.yul\":6169:6300   */\n      tag_111\n      jump\t// in\n    tag_180:\n        /* \"#utility.yul\":6161:6300   */\n      swap1\n      pop\n        /* \"#utility.yul\":5888:6307   */\n      swap2\n      swap1\n      pop\n      jump\t// out\n        /* \"#utility.yul\":6313:6723   */\n    tag_74:\n        /* \"#utility.yul\":6353:6360   */\n      0x00\n        /* \"#utility.yul\":6376:6396   */\n      tag_182\n        /* \"#utility.yul\":6394:6395   */\n      dup3\n        /* \"#utility.yul\":6376:6396   */\n      tag_98\n      jump\t// in\n    tag_182:\n        /* \"#utility.yul\":6371:6396   */\n      swap2\n      pop\n        /* \"#utility.yul\":6410:6430   */\n      tag_183\n        /* \"#utility.yul\":6428:6429   */\n      dup4\n        /* \"#utility.yul\":6410:6430   */\n      tag_98\n      jump\t// in\n    tag_183:\n        /* \"#utility.yul\":6405:6430   */\n      swap3\n      pop\n        /* \"#utility.yul\":6465:6466   */\n      dup3\n        /* \"#utility.yul\":6462:6463   */\n      dup3\n        /* \"#utility.yul\":6458:6467   */\n      mul\n        /* \"#utility.yul\":6487:6517   */\n      tag_184\n        /* \"#utility.yul\":6505:6516   */\n      dup2\n        /* \"#utility.yul\":6487:6517   */\n      tag_98\n      jump\t// in\n    tag_184:\n        /* \"#utility.yul\":6476:6517   */\n      swap2\n      pop\n        /* \"#utility.yul\":6666:6667   */\n      dup3\n        /* \"#utility.yul\":6657:6664   */\n      dup3\n        /* \"#utility.yul\":6653:6668   */\n      div\n        /* \"#utility.yul\":6650:6651   */\n      dup5\n        /* \"#utility.yul\":6647:6669   */\n      eq\n        /* \"#utility.yul\":6627:6628   */\n      dup4\n        /* \"#utility.yul\":6620:6629   */\n      iszero\n        /* \"#utility.yul\":6600:6683   */\n      or\n        /* \"#utility.yul\":6577:6716   */\n      tag_185\n      jumpi\n        /* \"#utility.yul\":6696:6714   */\n      tag_186\n      tag_106\n      jump\t// in\n    tag_186:\n        /* \"#utility.yul\":6577:6716   */\n    tag_185:\n        /* \"#utility.yul\":6361:6723   */\n      pop\n        /* \"#utility.yul\":6313:6723   */\n      swap3\n      swap2\n      pop\n      pop\n      jump\t// out\n        /* \"#utility.yul\":6729:6909   */\n    tag_112:\n        /* \"#utility.yul\":6777:6854   */\n      0x4e487b7100000000000000000000000000000000000000000000000000000000\n        /* \"#utility.yul\":6774:6775   */\n      0x00\n        /* \"#utility.yul\":6767:6855   */\n      mstore\n        /* \"#utility.yul\":6874:6878   */\n      0x12\n        /* \"#utility.yul\":6871:6872   */\n      0x04\n        /* \"#utility.yul\":6864:6879   */\n      mstore\n        /* \"#utility.yul\":6898:6902   */\n      0x24\n        /* \"#utility.yul\":6895:6896   */\n      0x00\n        /* \"#utility.yul\":6888:6903   */\n      revert\n        /* \"#utility.yul\":6915:7100   */\n    tag_76:\n        /* \"#utility.yul\":6955:6956   */\n      0x00\n        /* \"#utility.yul\":6972:6992   */\n      tag_189\n        /* \"#utility.yul\":6990:6991   */\n      dup3\n        /* \"#utility.yul\":6972:6992   */\n      tag_98\n      jump\t// in\n    tag_189:\n        /* \"#utility.yul\":6967:6992   */\n      swap2\n      pop\n        /* \"#utility.yul\":7006:7026   */\n      tag_190\n        /* \"#utility.yul\":7024:7025   */\n      dup4\n        /* \"#utility.yul\":7006:7026   */\n      tag_98\n      jump\t// in\n    tag_190:\n        /* \"#utility.yul\":7001:7026   */\n      swap3\n      pop\n        /* \"#utility.yul\":7045:7046   */\n      dup3\n        /* \"#utility.yul\":7035:7070   */\n      tag_191\n      jumpi\n        /* \"#utility.yul\":7050:7068   */\n      tag_192\n      tag_112\n      jump\t// in\n    tag_192:\n        /* \"#utility.yul\":7035:7070   */\n    tag_191:\n        /* \"#utility.yul\":7092:7093   */\n      dup3\n        /* \"#utility.yul\":7089:7090   */\n      dup3\n        /* \"#utility.yul\":7085:7094   */\n      div\n        /* \"#utility.yul\":7080:7094   */\n      swap1\n      pop\n        /* \"#utility.yul\":6915:7100   */\n      swap3\n      swap2\n      pop\n      pop\n      jump\t// out\n        /* \"#utility.yul\":7106:7211   */\n    tag_113:\n        /* \"#utility.yul\":7142:7149   */\n      0x00\n        /* \"#utility.yul\":7182:7204   */\n      0xffffffffffffffffffff\n        /* \"#utility.yul\":7175:7180   */\n      dup3\n        /* \"#utility.yul\":7171:7205   */\n      and\n        /* \"#utility.yul\":7160:7205   */\n      swap1\n      pop\n        /* \"#utility.yul\":7106:7211   */\n      swap2\n      swap1\n      pop\n      jump\t// out\n        /* \"#utility.yul\":7217:7337   */\n    tag_114:\n        /* \"#utility.yul\":7289:7312   */\n      tag_195\n        /* \"#utility.yul\":7306:7311   */\n      dup2\n        /* \"#utility.yul\":7289:7312   */\n      tag_113\n      jump\t// in\n    tag_195:\n        /* \"#utility.yul\":7282:7287   */\n      dup2\n        /* \"#utility.yul\":7279:7313   */\n      eq\n        /* \"#utility.yul\":7269:7331   */\n      tag_196\n      jumpi\n        /* \"#utility.yul\":7327:7328   */\n      0x00\n        /* \"#utility.yul\":7324:7325   */\n      dup1\n        /* \"#utility.yul\":7317:7329   */\n      revert\n        /* \"#utility.yul\":7269:7331   */\n    tag_196:\n        /* \"#utility.yul\":7217:7337   */\n      pop\n      jump\t// out\n        /* \"#utility.yul\":7343:7484   */\n    tag_115:\n        /* \"#utility.yul\":7399:7404   */\n      0x00\n        /* \"#utility.yul\":7430:7436   */\n      dup2\n        /* \"#utility.yul\":7424:7437   */\n      mload\n        /* \"#utility.yul\":7415:7437   */\n      swap1\n      pop\n        /* \"#utility.yul\":7446:7478   */\n      tag_198\n        /* \"#utility.yul\":7472:7477   */\n      dup2\n        /* \"#utility.yul\":7446:7478   */\n      tag_114\n      jump\t// in\n    tag_198:\n        /* \"#utility.yul\":7343:7484   */\n      swap3\n      swap2\n      pop\n      pop\n      jump\t// out\n        /* \"#utility.yul\":7490:7566   */\n    tag_116:\n        /* \"#utility.yul\":7526:7533   */\n      0x00\n        /* \"#utility.yul\":7555:7560   */\n      dup2\n        /* \"#utility.yul\":7544:7560   */\n      swap1\n      pop\n        /* \"#utility.yul\":7490:7566   */\n      swap2\n      swap1\n      pop\n      jump\t// out\n        /* \"#utility.yul\":7572:7692   */\n    tag_117:\n        /* \"#utility.yul\":7644:7667   */\n      tag_201\n        /* \"#utility.yul\":7661:7666   */\n      dup2\n        /* \"#utility.yul\":7644:7667   */\n      tag_116\n      jump\t// in\n    tag_201:\n        /* \"#utility.yul\":7637:7642   */\n      dup2\n        /* \"#utility.yul\":7634:7668   */\n      eq\n        /* \"#utility.yul\":7624:7686   */\n      tag_202\n      jumpi\n        /* \"#utility.yul\":7682:7683   */\n      0x00\n        /* \"#utility.yul\":7679:7680   */\n      dup1\n        /* \"#utility.yul\":7672:7684   */\n      revert\n        /* \"#utility.yul\":7624:7686   */\n    tag_202:\n        /* \"#utility.yul\":7572:7692   */\n      pop\n      jump\t// out\n        /* \"#utility.yul\":7698:7839   */\n    tag_118:\n        /* \"#utility.yul\":7754:7759   */\n      0x00\n        /* \"#utility.yul\":7785:7791   */\n      dup2\n        /* \"#utility.yul\":7779:7792   */\n      mload\n        /* \"#utility.yul\":7770:7792   */\n      swap1\n      pop\n        /* \"#utility.yul\":7801:7833   */\n      tag_204\n        /* \"#utility.yul\":7827:7832   */\n      dup2\n        /* \"#utility.yul\":7801:7833   */\n      tag_117\n      jump\t// in\n    tag_204:\n        /* \"#utility.yul\":7698:7839   */\n      swap3\n      swap2\n      pop\n      pop\n      jump\t// out\n        /* \"#utility.yul\":7845:7988   */\n    tag_119:\n        /* \"#utility.yul\":7902:7907   */\n      0x00\n        /* \"#utility.yul\":7933:7939   */\n      dup2\n        /* \"#utility.yul\":7927:7940   */\n      mload\n        /* \"#utility.yul\":7918:7940   */\n      swap1\n      pop\n        /* \"#utility.yul\":7949:7982   */\n      tag_206\n        /* \"#utility.yul\":7976:7981   */\n      dup2\n        /* \"#utility.yul\":7949:7982   */\n      tag_101\n      jump\t// in\n    tag_206:\n        /* \"#utility.yul\":7845:7988   */\n      swap3\n      swap2\n      pop\n      pop\n      jump\t// out\n        /* \"#utility.yul\":7994:8965   */\n    tag_81:\n        /* \"#utility.yul\":8097:8103   */\n      0x00\n        /* \"#utility.yul\":8105:8111   */\n      dup1\n        /* \"#utility.yul\":8113:8119   */\n      0x00\n        /* \"#utility.yul\":8121:8127   */\n      dup1\n        /* \"#utility.yul\":8129:8135   */\n      0x00\n        /* \"#utility.yul\":8178:8181   */\n      0xa0\n        /* \"#utility.yul\":8166:8175   */\n      dup7\n        /* \"#utility.yul\":8157:8164   */\n      dup9\n        /* \"#utility.yul\":8153:8176   */\n      sub\n        /* \"#utility.yul\":8149:8182   */\n      slt\n        /* \"#utility.yul\":8146:8266   */\n      iszero\n      tag_208\n      jumpi\n        /* \"#utility.yul\":8185:8264   */\n      tag_209\n      tag_92\n      jump\t// in\n    tag_209:\n        /* \"#utility.yul\":8146:8266   */\n    tag_208:\n        /* \"#utility.yul\":8305:8306   */\n      0x00\n        /* \"#utility.yul\":8330:8393   */\n      tag_210\n        /* \"#utility.yul\":8385:8392   */\n      dup9\n        /* \"#utility.yul\":8376:8382   */\n      dup3\n        /* \"#utility.yul\":8365:8374   */\n      dup10\n        /* \"#utility.yul\":8361:8383   */\n      add\n        /* \"#utility.yul\":8330:8393   */\n      tag_115\n      jump\t// in\n    tag_210:\n        /* \"#utility.yul\":8320:8393   */\n      swap6\n      pop\n        /* \"#utility.yul\":8276:8403   */\n      pop\n        /* \"#utility.yul\":8442:8444   */\n      0x20\n        /* \"#utility.yul\":8468:8531   */\n      tag_211\n        /* \"#utility.yul\":8523:8530   */\n      dup9\n        /* \"#utility.yul\":8514:8520   */\n      dup3\n        /* \"#utility.yul\":8503:8512   */\n      dup10\n        /* \"#utility.yul\":8499:8521   */\n      add\n        /* \"#utility.yul\":8468:8531   */\n      tag_118\n      jump\t// in\n    tag_211:\n        /* \"#utility.yul\":8458:8531   */\n      swap5\n      pop\n        /* \"#utility.yul\":8413:8541   */\n      pop\n        /* \"#utility.yul\":8580:8582   */\n      0x40\n        /* \"#utility.yul\":8606:8670   */\n      tag_212\n        /* \"#utility.yul\":8662:8669   */\n      dup9\n        /* \"#utility.yul\":8653:8659   */\n      dup3\n        /* \"#utility.yul\":8642:8651   */\n      dup10\n        /* \"#utility.yul\":8638:8660   */\n      add\n        /* \"#utility.yul\":8606:8670   */\n      tag_119\n      jump\t// in\n    tag_212:\n        /* \"#utility.yul\":8596:8670   */\n      swap4\n      pop\n        /* \"#utility.yul\":8551:8680   */\n      pop\n        /* \"#utility.yul\":8719:8721   */\n      0x60\n        /* \"#utility.yul\":8745:8809   */\n      tag_213\n        /* \"#utility.yul\":8801:8808   */\n      dup9\n        /* \"#utility.yul\":8792:8798   */\n      dup3\n        /* \"#utility.yul\":8781:8790   */\n      dup10\n        /* \"#utility.yul\":8777:8799   */\n      add\n        /* \"#utility.yul\":8745:8809   */\n      tag_119\n      jump\t// in\n    tag_213:\n        /* \"#utility.yul\":8735:8809   */\n      swap3\n      pop\n        /* \"#utility.yul\":8690:8819   */\n      pop\n        /* \"#utility.yul\":8858:8861   */\n      0x80\n        /* \"#utility.yul\":8885:8948   */\n      tag_214\n        /* \"#utility.yul\":8940:8947   */\n      dup9\n        /* \"#utility.yul\":8931:8937   */\n      dup3\n        /* \"#utility.yul\":8920:8929   */\n      dup10\n        /* \"#utility.yul\":8916:8938   */\n      add\n        /* \"#utility.yul\":8885:8948   */\n      tag_115\n      jump\t// in\n    tag_214:\n        /* \"#utility.yul\":8875:8948   */\n      swap2\n      pop\n        /* \"#utility.yul\":8829:8958   */\n      pop\n        /* \"#utility.yul\":7994:8965   */\n      swap3\n      swap6\n      pop\n      swap3\n      swap6\n      swap1\n      swap4\n      pop\n      jump\t// out\n        /* \"#utility.yul\":8971:9527   */\n    tag_83:\n        /* \"#utility.yul\":9010:9017   */\n      0x00\n        /* \"#utility.yul\":9033:9052   */\n      tag_216\n        /* \"#utility.yul\":9050:9051   */\n      dup3\n        /* \"#utility.yul\":9033:9052   */\n      tag_116\n      jump\t// in\n    tag_216:\n        /* \"#utility.yul\":9028:9052   */\n      swap2\n      pop\n        /* \"#utility.yul\":9066:9085   */\n      tag_217\n        /* \"#utility.yul\":9083:9084   */\n      dup4\n        /* \"#utility.yul\":9066:9085   */\n      tag_116\n      jump\t// in\n    tag_217:\n        /* \"#utility.yul\":9061:9085   */\n      swap3\n      pop\n        /* \"#utility.yul\":9120:9121   */\n      dup3\n        /* \"#utility.yul\":9117:9118   */\n      dup3\n        /* \"#utility.yul\":9113:9122   */\n      mul\n        /* \"#utility.yul\":9142:9171   */\n      tag_218\n        /* \"#utility.yul\":9159:9170   */\n      dup2\n        /* \"#utility.yul\":9142:9171   */\n      tag_116\n      jump\t// in\n    tag_218:\n        /* \"#utility.yul\":9131:9171   */\n      swap2\n      pop\n        /* \"#utility.yul\":9229:9295   */\n      0x8000000000000000000000000000000000000000000000000000000000000000\n        /* \"#utility.yul\":9226:9227   */\n      dup5\n        /* \"#utility.yul\":9223:9296   */\n      eq\n        /* \"#utility.yul\":9219:9220   */\n      0x00\n        /* \"#utility.yul\":9216:9217   */\n      dup5\n        /* \"#utility.yul\":9212:9221   */\n      slt\n        /* \"#utility.yul\":9208:9297   */\n      and\n        /* \"#utility.yul\":9205:9320   */\n      iszero\n      tag_219\n      jumpi\n        /* \"#utility.yul\":9300:9318   */\n      tag_220\n      tag_106\n      jump\t// in\n    tag_220:\n        /* \"#utility.yul\":9205:9320   */\n    tag_219:\n        /* \"#utility.yul\":9470:9471   */\n      dup3\n        /* \"#utility.yul\":9461:9468   */\n      dup3\n        /* \"#utility.yul\":9456:9472   */\n      sdiv\n        /* \"#utility.yul\":9453:9454   */\n      dup5\n        /* \"#utility.yul\":9450:9473   */\n      eq\n        /* \"#utility.yul\":9430:9431   */\n      dup4\n        /* \"#utility.yul\":9423:9432   */\n      iszero\n        /* \"#utility.yul\":9403:9487   */\n      or\n        /* \"#utility.yul\":9380:9520   */\n      tag_221\n      jumpi\n        /* \"#utility.yul\":9500:9518   */\n      tag_222\n      tag_106\n      jump\t// in\n    tag_222:\n        /* \"#utility.yul\":9380:9520   */\n    tag_221:\n        /* \"#utility.yul\":9018:9527   */\n      pop\n        /* \"#utility.yul\":8971:9527   */\n      swap3\n      swap2\n      pop\n      pop\n      jump\t// out\n\n    auxdata: 0xa26469706673582212201604bcdd44e317fe67cd196eaf92382bf0334f686ff40fd9b954af92b406190664736f6c634300081a0033\n}\n",
				"bytecode": {
					"linkReferences": {},
					"object": "60a0604052348015600e575f80fd5b503373ffffffffffffffffffffffffffffffffffffffff1660808173ffffffffffffffffffffffffffffffffffffffff1681525050608051610b1e6100625f395f818161026701526104170152610b1e5ff3fe608060405260043610610058575f3560e01c80633ccfd60b146100715780633e47d6f3146100875780636b69a592146100c3578063b60d4288146100ed578063dba6335f146100f7578063dc0d3dff1461012157610067565b366100675761006561015d565b005b61006f61015d565b005b34801561007c575f80fd5b50610085610265565b005b348015610092575f80fd5b506100ad60048036038101906100a89190610650565b6103f3565b6040516100ba9190610693565b60405180910390f35b3480156100ce575f80fd5b506100d7610408565b6040516100e49190610693565b60405180910390f35b6100f561015d565b005b348015610102575f80fd5b5061010b610415565b60405161011891906106bb565b60405180910390f35b34801561012c575f80fd5b50610147600480360381019061014291906106fe565b610439565b60405161015491906106bb565b60405180910390f35b6802b5e3af16b188000061017034610473565b10156101b1576040517f08c379a00000000000000000000000000000000000000000000000000000000081526004016101a890610783565b60405180910390fd5b3460015f3373ffffffffffffffffffffffffffffffffffffffff1673ffffffffffffffffffffffffffffffffffffffff1681526020019081526020015f205f8282546101fd91906107ce565b925050819055505f33908060018154018082558091505060019003905f5260205f20015f9091909190916101000a81548173ffffffffffffffffffffffffffffffffffffffff021916908373ffffffffffffffffffffffffffffffffffffffff160217905550565b7f000000000000000000000000000000000000000000000000000000000000000073ffffffffffffffffffffffffffffffffffffffff163373ffffffffffffffffffffffffffffffffffffffff16146102ea576040517f30cd747100000000000000000000000000000000000000000000000000000000815260040160405180910390fd5b5f67ffffffffffffffff81111561030457610303610801565b5b6040519080825280602002602001820160405280156103325781602001602082028036833780820191505090505b505f9080519060200190610347929190610550565b505f3373ffffffffffffffffffffffffffffffffffffffff164760405161036d9061085b565b5f6040518083038185875af1925050503d805f81146103a7576040519150601f19603f3d011682016040523d82523d5f602084013e6103ac565b606091505b50509050806103f0576040517f08c379a00000000000000000000000000000000000000000000000000000000081526004016103e7906108b9565b60405180910390fd5b50565b6001602052805f5260405f205f915090505481565b6802b5e3af16b188000081565b7f000000000000000000000000000000000000000000000000000000000000000081565b5f8181548110610447575f80fd5b905f5260205f20015f915054906101000a900473ffffffffffffffffffffffffffffffffffffffff1681565b5f8061047d6104ab565b90505f670de0b6b3a7640000848361049591906108d7565b61049f9190610945565b90508092505050919050565b5f8073694aa1769357215de4fac081bf1f309adc32530690505f8173ffffffffffffffffffffffffffffffffffffffff1663feaf968c6040518163ffffffff1660e01b815260040160a060405180830381865afa15801561050e573d5f803e3d5ffd5b505050506040513d601f19601f8201168201806040525081019061053291906109fb565b5050509150506402540be400816105499190610a72565b9250505090565b828054828255905f5260205f209081019282156105c6579160200282015b828111156105c5578251825f6101000a81548173ffffffffffffffffffffffffffffffffffffffff021916908373ffffffffffffffffffffffffffffffffffffffff1602179055509160200191906001019061056e565b5b5090506105d391906105d7565b5090565b5b808211156105ee575f815f9055506001016105d8565b5090565b5f80fd5b5f73ffffffffffffffffffffffffffffffffffffffff82169050919050565b5f61061f826105f6565b9050919050565b61062f81610615565b8114610639575f80fd5b50565b5f8135905061064a81610626565b92915050565b5f60208284031215610665576106646105f2565b5b5f6106728482850161063c565b91505092915050565b5f819050919050565b61068d8161067b565b82525050565b5f6020820190506106a65f830184610684565b92915050565b6106b581610615565b82525050565b5f6020820190506106ce5f8301846106ac565b92915050565b6106dd8161067b565b81146106e7575f80fd5b50565b5f813590506106f8816106d4565b92915050565b5f60208284031215610713576107126105f2565b5b5f610720848285016106ea565b91505092915050565b5f82825260208201905092915050565b7f4469646e27742073656e6420656e6f75676821000000000000000000000000005f82015250565b5f61076d601383610729565b915061077882610739565b602082019050919050565b5f6020820190508181035f83015261079a81610761565b9050919050565b7f4e487b71000000000000000000000000000000000000000000000000000000005f52601160045260245ffd5b5f6107d88261067b565b91506107e38361067b565b92508282019050808211156107fb576107fa6107a1565b5b92915050565b7f4e487b71000000000000000000000000000000000000000000000000000000005f52604160045260245ffd5b5f81905092915050565b50565b5f6108465f8361082e565b915061085182610838565b5f82019050919050565b5f6108658261083b565b9150819050919050565b7f43616c6c206661696c65640000000000000000000000000000000000000000005f82015250565b5f6108a3600b83610729565b91506108ae8261086f565b602082019050919050565b5f6020820190508181035f8301526108d081610897565b9050919050565b5f6108e18261067b565b91506108ec8361067b565b92508282026108fa8161067b565b91508282048414831517610911576109106107a1565b5b5092915050565b7f4e487b71000000000000000000000000000000000000000000000000000000005f52601260045260245ffd5b5f61094f8261067b565b915061095a8361067b565b92508261096a57610969610918565b5b828204905092915050565b5f69ffffffffffffffffffff82169050919050565b61099381610975565b811461099d575f80fd5b50565b5f815190506109ae8161098a565b92915050565b5f819050919050565b6109c6816109b4565b81146109d0575f80fd5b50565b5f815190506109e1816109bd565b92915050565b5f815190506109f5816106d4565b92915050565b5f805f805f60a08688031215610a1457610a136105f2565b5b5f610a21888289016109a0565b9550506020610a32888289016109d3565b9450506040610a43888289016109e7565b9350506060610a54888289016109e7565b9250506080610a65888289016109a0565b9150509295509295909350565b5f610a7c826109b4565b9150610a87836109b4565b9250828202610a95816109b4565b91507f800000000000000000000000000000000000000000000000000000000000000084145f84121615610acc57610acb6107a1565b5b8282058414831517610ae157610ae06107a1565b5b509291505056fea26469706673582212201604bcdd44e317fe67cd196eaf92382bf0334f686ff40fd9b954af92b406190664736f6c634300081a0033",
					"opcodes": "PUSH1 0xA0 PUSH1 0x40 MSTORE CALLVALUE DUP1 ISZERO PUSH1 0xE JUMPI PUSH0 DUP1 REVERT JUMPDEST POP CALLER PUSH20 0xFFFFFFFFFFFFFFFFFFFFFFFFFFFFFFFFFFFFFFFF AND PUSH1 0x80 DUP2 PUSH20 0xFFFFFFFFFFFFFFFFFFFFFFFFFFFFFFFFFFFFFFFF AND DUP2 MSTORE POP POP PUSH1 0x80 MLOAD PUSH2 0xB1E PUSH2 0x62 PUSH0 CODECOPY PUSH0 DUP2 DUP2 PUSH2 0x267 ADD MSTORE PUSH2 0x417 ADD MSTORE PUSH2 0xB1E PUSH0 RETURN INVALID PUSH1 0x80 PUSH1 0x40 MSTORE PUSH1 0x4 CALLDATASIZE LT PUSH2 0x58 JUMPI PUSH0 CALLDATALOAD PUSH1 0xE0 SHR DUP1 PUSH4 0x3CCFD60B EQ PUSH2 0x71 JUMPI DUP1 PUSH4 0x3E47D6F3 EQ PUSH2 0x87 JUMPI DUP1 PUSH4 0x6B69A592 EQ PUSH2 0xC3 JUMPI DUP1 PUSH4 0xB60D4288 EQ PUSH2 0xED JUMPI DUP1 PUSH4 0xDBA6335F EQ PUSH2 0xF7 JUMPI DUP1 PUSH4 0xDC0D3DFF EQ PUSH2 0x121 JUMPI PUSH2 0x67 JUMP JUMPDEST CALLDATASIZE PUSH2 0x67 JUMPI PUSH2 0x65 PUSH2 0x15D JUMP JUMPDEST STOP JUMPDEST PUSH2 0x6F PUSH2 0x15D JUMP JUMPDEST STOP JUMPDEST CALLVALUE DUP1 ISZERO PUSH2 0x7C JUMPI PUSH0 DUP1 REVERT JUMPDEST POP PUSH2 0x85 PUSH2 0x265 JUMP JUMPDEST STOP JUMPDEST CALLVALUE DUP1 ISZERO PUSH2 0x92 JUMPI PUSH0 DUP1 REVERT JUMPDEST POP PUSH2 0xAD PUSH1 0x4 DUP1 CALLDATASIZE SUB DUP2 ADD SWAP1 PUSH2 0xA8 SWAP2 SWAP1 PUSH2 0x650 JUMP JUMPDEST PUSH2 0x3F3 JUMP JUMPDEST PUSH1 0x40 MLOAD PUSH2 0xBA SWAP2 SWAP1 PUSH2 0x693 JUMP JUMPDEST PUSH1 0x40 MLOAD DUP1 SWAP2 SUB SWAP1 RETURN JUMPDEST CALLVALUE DUP1 ISZERO PUSH2 0xCE JUMPI PUSH0 DUP1 REVERT JUMPDEST POP PUSH2 0xD7 PUSH2 0x408 JUMP JUMPDEST PUSH1 0x40 MLOAD PUSH2 0xE4 SWAP2 SWAP1 PUSH2 0x693 JUMP JUMPDEST PUSH1 0x40 MLOAD DUP1 SWAP2 SUB SWAP1 RETURN JUMPDEST PUSH2 0xF5 PUSH2 0x15D JUMP JUMPDEST STOP JUMPDEST CALLVALUE DUP1 ISZERO PUSH2 0x102 JUMPI PUSH0 DUP1 REVERT JUMPDEST POP PUSH2 0x10B PUSH2 0x415 JUMP JUMPDEST PUSH1 0x40 MLOAD PUSH2 0x118 SWAP2 SWAP1 PUSH2 0x6BB JUMP JUMPDEST PUSH1 0x40 MLOAD DUP1 SWAP2 SUB SWAP1 RETURN JUMPDEST CALLVALUE DUP1 ISZERO PUSH2 0x12C JUMPI PUSH0 DUP1 REVERT JUMPDEST POP PUSH2 0x147 PUSH1 0x4 DUP1 CALLDATASIZE SUB DUP2 ADD SWAP1 PUSH2 0x142 SWAP2 SWAP1 PUSH2 0x6FE JUMP JUMPDEST PUSH2 0x439 JUMP JUMPDEST PUSH1 0x40 MLOAD PUSH2 0x154 SWAP2 SWAP1 PUSH2 0x6BB JUMP JUMPDEST PUSH1 0x40 MLOAD DUP1 SWAP2 SUB SWAP1 RETURN JUMPDEST PUSH9 0x2B5E3AF16B1880000 PUSH2 0x170 CALLVALUE PUSH2 0x473 JUMP JUMPDEST LT ISZERO PUSH2 0x1B1 JUMPI PUSH1 0x40 MLOAD PUSH32 0x8C379A000000000000000000000000000000000000000000000000000000000 DUP2 MSTORE PUSH1 0x4 ADD PUSH2 0x1A8 SWAP1 PUSH2 0x783 JUMP JUMPDEST PUSH1 0x40 MLOAD DUP1 SWAP2 SUB SWAP1 REVERT JUMPDEST CALLVALUE PUSH1 0x1 PUSH0 CALLER PUSH20 0xFFFFFFFFFFFFFFFFFFFFFFFFFFFFFFFFFFFFFFFF AND PUSH20 0xFFFFFFFFFFFFFFFFFFFFFFFFFFFFFFFFFFFFFFFF AND DUP2 MSTORE PUSH1 0x20 ADD SWAP1 DUP2 MSTORE PUSH1 0x20 ADD PUSH0 KECCAK256 PUSH0 DUP3 DUP3 SLOAD PUSH2 0x1FD SWAP2 SWAP1 PUSH2 0x7CE JUMP JUMPDEST SWAP3 POP POP DUP2 SWAP1 SSTORE POP PUSH0 CALLER SWAP1 DUP1 PUSH1 0x1 DUP2 SLOAD ADD DUP1 DUP3 SSTORE DUP1 SWAP2 POP POP PUSH1 0x1 SWAP1 SUB SWAP1 PUSH0 MSTORE PUSH1 0x20 PUSH0 KECCAK256 ADD PUSH0 SWAP1 SWAP2 SWAP1 SWAP2 SWAP1 SWAP2 PUSH2 0x100 EXP DUP2 SLOAD DUP2 PUSH20 0xFFFFFFFFFFFFFFFFFFFFFFFFFFFFFFFFFFFFFFFF MUL NOT AND SWAP1 DUP4 PUSH20 0xFFFFFFFFFFFFFFFFFFFFFFFFFFFFFFFFFFFFFFFF AND MUL OR SWAP1 SSTORE POP JUMP JUMPDEST PUSH32 0x0 PUSH20 0xFFFFFFFFFFFFFFFFFFFFFFFFFFFFFFFFFFFFFFFF AND CALLER PUSH20 0xFFFFFFFFFFFFFFFFFFFFFFFFFFFFFFFFFFFFFFFF AND EQ PUSH2 0x2EA JUMPI PUSH1 0x40 MLOAD PUSH32 0x30CD747100000000000000000000000000000000000000000000000000000000 DUP2 MSTORE PUSH1 0x4 ADD PUSH1 0x40 MLOAD DUP1 SWAP2 SUB SWAP1 REVERT JUMPDEST PUSH0 PUSH8 0xFFFFFFFFFFFFFFFF DUP2 GT ISZERO PUSH2 0x304 JUMPI PUSH2 0x303 PUSH2 0x801 JUMP JUMPDEST JUMPDEST PUSH1 0x40 MLOAD SWAP1 DUP1 DUP3 MSTORE DUP1 PUSH1 0x20 MUL PUSH1 0x20 ADD DUP3 ADD PUSH1 0x40 MSTORE DUP1 ISZERO PUSH2 0x332 JUMPI DUP2 PUSH1 0x20 ADD PUSH1 0x20 DUP3 MUL DUP1 CALLDATASIZE DUP4 CALLDATACOPY DUP1 DUP3 ADD SWAP2 POP POP SWAP1 POP JUMPDEST POP PUSH0 SWAP1 DUP1 MLOAD SWAP1 PUSH1 0x20 ADD SWAP1 PUSH2 0x347 SWAP3 SWAP2 SWAP1 PUSH2 0x550 JUMP JUMPDEST POP PUSH0 CALLER PUSH20 0xFFFFFFFFFFFFFFFFFFFFFFFFFFFFFFFFFFFFFFFF AND SELFBALANCE PUSH1 0x40 MLOAD PUSH2 0x36D SWAP1 PUSH2 0x85B JUMP JUMPDEST PUSH0 PUSH1 0x40 MLOAD DUP1 DUP4 SUB DUP2 DUP6 DUP8 GAS CALL SWAP3 POP POP POP RETURNDATASIZE DUP1 PUSH0 DUP2 EQ PUSH2 0x3A7 JUMPI PUSH1 0x40 MLOAD SWAP2 POP PUSH1 0x1F NOT PUSH1 0x3F RETURNDATASIZE ADD AND DUP3 ADD PUSH1 0x40 MSTORE RETURNDATASIZE DUP3 MSTORE RETURNDATASIZE PUSH0 PUSH1 0x20 DUP5 ADD RETURNDATACOPY PUSH2 0x3AC JUMP JUMPDEST PUSH1 0x60 SWAP2 POP JUMPDEST POP POP SWAP1 POP DUP1 PUSH2 0x3F0 JUMPI PUSH1 0x40 MLOAD PUSH32 0x8C379A000000000000000000000000000000000000000000000000000000000 DUP2 MSTORE PUSH1 0x4 ADD PUSH2 0x3E7 SWAP1 PUSH2 0x8B9 JUMP JUMPDEST PUSH1 0x40 MLOAD DUP1 SWAP2 SUB SWAP1 REVERT JUMPDEST POP JUMP JUMPDEST PUSH1 0x1 PUSH1 0x20 MSTORE DUP1 PUSH0 MSTORE PUSH1 0x40 PUSH0 KECCAK256 PUSH0 SWAP2 POP SWAP1 POP SLOAD DUP2 JUMP JUMPDEST PUSH9 0x2B5E3AF16B1880000 DUP2 JUMP JUMPDEST PUSH32 0x0 DUP2 JUMP JUMPDEST PUSH0 DUP2 DUP2 SLOAD DUP2 LT PUSH2 0x447 JUMPI PUSH0 DUP1 REVERT JUMPDEST SWAP1 PUSH0 MSTORE PUSH1 0x20 PUSH0 KECCAK256 ADD PUSH0 SWAP2 POP SLOAD SWAP1 PUSH2 0x100 EXP SWAP1 DIV PUSH20 0xFFFFFFFFFFFFFFFFFFFFFFFFFFFFFFFFFFFFFFFF AND DUP2 JUMP JUMPDEST PUSH0 DUP1 PUSH2 0x47D PUSH2 0x4AB JUMP JUMPDEST SWAP1 POP PUSH0 PUSH8 0xDE0B6B3A7640000 DUP5 DUP4 PUSH2 0x495 SWAP2 SWAP1 PUSH2 0x8D7 JUMP JUMPDEST PUSH2 0x49F SWAP2 SWAP1 PUSH2 0x945 JUMP JUMPDEST SWAP1 POP DUP1 SWAP3 POP POP POP SWAP2 SWAP1 POP JUMP JUMPDEST PUSH0 DUP1 PUSH20 0x694AA1769357215DE4FAC081BF1F309ADC325306 SWAP1 POP PUSH0 DUP2 PUSH20 0xFFFFFFFFFFFFFFFFFFFFFFFFFFFFFFFFFFFFFFFF AND PUSH4 0xFEAF968C PUSH1 0x40 MLOAD DUP2 PUSH4 0xFFFFFFFF AND PUSH1 0xE0 SHL DUP2 MSTORE PUSH1 0x4 ADD PUSH1 0xA0 PUSH1 0x40 MLOAD DUP1 DUP4 SUB DUP2 DUP7 GAS STATICCALL ISZERO DUP1 ISZERO PUSH2 0x50E JUMPI RETURNDATASIZE PUSH0 DUP1 RETURNDATACOPY RETURNDATASIZE PUSH0 REVERT JUMPDEST POP POP POP POP PUSH1 0x40 MLOAD RETURNDATASIZE PUSH1 0x1F NOT PUSH1 0x1F DUP3 ADD AND DUP3 ADD DUP1 PUSH1 0x40 MSTORE POP DUP2 ADD SWAP1 PUSH2 0x532 SWAP2 SWAP1 PUSH2 0x9FB JUMP JUMPDEST POP POP POP SWAP2 POP POP PUSH5 0x2540BE400 DUP2 PUSH2 0x549 SWAP2 SWAP1 PUSH2 0xA72 JUMP JUMPDEST SWAP3 POP POP POP SWAP1 JUMP JUMPDEST DUP3 DUP1 SLOAD DUP3 DUP3 SSTORE SWAP1 PUSH0 MSTORE PUSH1 0x20 PUSH0 KECCAK256 SWAP1 DUP2 ADD SWAP3 DUP3 ISZERO PUSH2 0x5C6 JUMPI SWAP2 PUSH1 0x20 MUL DUP3 ADD JUMPDEST DUP3 DUP2 GT ISZERO PUSH2 0x5C5 JUMPI DUP3 MLOAD DUP3 PUSH0 PUSH2 0x100 EXP DUP2 SLOAD DUP2 PUSH20 0xFFFFFFFFFFFFFFFFFFFFFFFFFFFFFFFFFFFFFFFF MUL NOT AND SWAP1 DUP4 PUSH20 0xFFFFFFFFFFFFFFFFFFFFFFFFFFFFFFFFFFFFFFFF AND MUL OR SWAP1 SSTORE POP SWAP2 PUSH1 0x20 ADD SWAP2 SWAP1 PUSH1 0x1 ADD SWAP1 PUSH2 0x56E JUMP JUMPDEST JUMPDEST POP SWAP1 POP PUSH2 0x5D3 SWAP2 SWAP1 PUSH2 0x5D7 JUMP JUMPDEST POP SWAP1 JUMP JUMPDEST JUMPDEST DUP1 DUP3 GT ISZERO PUSH2 0x5EE JUMPI PUSH0 DUP2 PUSH0 SWAP1 SSTORE POP PUSH1 0x1 ADD PUSH2 0x5D8 JUMP JUMPDEST POP SWAP1 JUMP JUMPDEST PUSH0 DUP1 REVERT JUMPDEST PUSH0 PUSH20 0xFFFFFFFFFFFFFFFFFFFFFFFFFFFFFFFFFFFFFFFF DUP3 AND SWAP1 POP SWAP2 SWAP1 POP JUMP JUMPDEST PUSH0 PUSH2 0x61F DUP3 PUSH2 0x5F6 JUMP JUMPDEST SWAP1 POP SWAP2 SWAP1 POP JUMP JUMPDEST PUSH2 0x62F DUP2 PUSH2 0x615 JUMP JUMPDEST DUP2 EQ PUSH2 0x639 JUMPI PUSH0 DUP1 REVERT JUMPDEST POP JUMP JUMPDEST PUSH0 DUP2 CALLDATALOAD SWAP1 POP PUSH2 0x64A DUP2 PUSH2 0x626 JUMP JUMPDEST SWAP3 SWAP2 POP POP JUMP JUMPDEST PUSH0 PUSH1 0x20 DUP3 DUP5 SUB SLT ISZERO PUSH2 0x665 JUMPI PUSH2 0x664 PUSH2 0x5F2 JUMP JUMPDEST JUMPDEST PUSH0 PUSH2 0x672 DUP5 DUP3 DUP6 ADD PUSH2 0x63C JUMP JUMPDEST SWAP2 POP POP SWAP3 SWAP2 POP POP JUMP JUMPDEST PUSH0 DUP2 SWAP1 POP SWAP2 SWAP1 POP JUMP JUMPDEST PUSH2 0x68D DUP2 PUSH2 0x67B JUMP JUMPDEST DUP3 MSTORE POP POP JUMP JUMPDEST PUSH0 PUSH1 0x20 DUP3 ADD SWAP1 POP PUSH2 0x6A6 PUSH0 DUP4 ADD DUP5 PUSH2 0x684 JUMP JUMPDEST SWAP3 SWAP2 POP POP JUMP JUMPDEST PUSH2 0x6B5 DUP2 PUSH2 0x615 JUMP JUMPDEST DUP3 MSTORE POP POP JUMP JUMPDEST PUSH0 PUSH1 0x20 DUP3 ADD SWAP1 POP PUSH2 0x6CE PUSH0 DUP4 ADD DUP5 PUSH2 0x6AC JUMP JUMPDEST SWAP3 SWAP2 POP POP JUMP JUMPDEST PUSH2 0x6DD DUP2 PUSH2 0x67B JUMP JUMPDEST DUP2 EQ PUSH2 0x6E7 JUMPI PUSH0 DUP1 REVERT JUMPDEST POP JUMP JUMPDEST PUSH0 DUP2 CALLDATALOAD SWAP1 POP PUSH2 0x6F8 DUP2 PUSH2 0x6D4 JUMP JUMPDEST SWAP3 SWAP2 POP POP JUMP JUMPDEST PUSH0 PUSH1 0x20 DUP3 DUP5 SUB SLT ISZERO PUSH2 0x713 JUMPI PUSH2 0x712 PUSH2 0x5F2 JUMP JUMPDEST JUMPDEST PUSH0 PUSH2 0x720 DUP5 DUP3 DUP6 ADD PUSH2 0x6EA JUMP JUMPDEST SWAP2 POP POP SWAP3 SWAP2 POP POP JUMP JUMPDEST PUSH0 DUP3 DUP3 MSTORE PUSH1 0x20 DUP3 ADD SWAP1 POP SWAP3 SWAP2 POP POP JUMP JUMPDEST PUSH32 0x4469646E27742073656E6420656E6F7567682100000000000000000000000000 PUSH0 DUP3 ADD MSTORE POP JUMP JUMPDEST PUSH0 PUSH2 0x76D PUSH1 0x13 DUP4 PUSH2 0x729 JUMP JUMPDEST SWAP2 POP PUSH2 0x778 DUP3 PUSH2 0x739 JUMP JUMPDEST PUSH1 0x20 DUP3 ADD SWAP1 POP SWAP2 SWAP1 POP JUMP JUMPDEST PUSH0 PUSH1 0x20 DUP3 ADD SWAP1 POP DUP2 DUP2 SUB PUSH0 DUP4 ADD MSTORE PUSH2 0x79A DUP2 PUSH2 0x761 JUMP JUMPDEST SWAP1 POP SWAP2 SWAP1 POP JUMP JUMPDEST PUSH32 0x4E487B7100000000000000000000000000000000000000000000000000000000 PUSH0 MSTORE PUSH1 0x11 PUSH1 0x4 MSTORE PUSH1 0x24 PUSH0 REVERT JUMPDEST PUSH0 PUSH2 0x7D8 DUP3 PUSH2 0x67B JUMP JUMPDEST SWAP2 POP PUSH2 0x7E3 DUP4 PUSH2 0x67B JUMP JUMPDEST SWAP3 POP DUP3 DUP3 ADD SWAP1 POP DUP1 DUP3 GT ISZERO PUSH2 0x7FB JUMPI PUSH2 0x7FA PUSH2 0x7A1 JUMP JUMPDEST JUMPDEST SWAP3 SWAP2 POP POP JUMP JUMPDEST PUSH32 0x4E487B7100000000000000000000000000000000000000000000000000000000 PUSH0 MSTORE PUSH1 0x41 PUSH1 0x4 MSTORE PUSH1 0x24 PUSH0 REVERT JUMPDEST PUSH0 DUP2 SWAP1 POP SWAP3 SWAP2 POP POP JUMP JUMPDEST POP JUMP JUMPDEST PUSH0 PUSH2 0x846 PUSH0 DUP4 PUSH2 0x82E JUMP JUMPDEST SWAP2 POP PUSH2 0x851 DUP3 PUSH2 0x838 JUMP JUMPDEST PUSH0 DUP3 ADD SWAP1 POP SWAP2 SWAP1 POP JUMP JUMPDEST PUSH0 PUSH2 0x865 DUP3 PUSH2 0x83B JUMP JUMPDEST SWAP2 POP DUP2 SWAP1 POP SWAP2 SWAP1 POP JUMP JUMPDEST PUSH32 0x43616C6C206661696C6564000000000000000000000000000000000000000000 PUSH0 DUP3 ADD MSTORE POP JUMP JUMPDEST PUSH0 PUSH2 0x8A3 PUSH1 0xB DUP4 PUSH2 0x729 JUMP JUMPDEST SWAP2 POP PUSH2 0x8AE DUP3 PUSH2 0x86F JUMP JUMPDEST PUSH1 0x20 DUP3 ADD SWAP1 POP SWAP2 SWAP1 POP JUMP JUMPDEST PUSH0 PUSH1 0x20 DUP3 ADD SWAP1 POP DUP2 DUP2 SUB PUSH0 DUP4 ADD MSTORE PUSH2 0x8D0 DUP2 PUSH2 0x897 JUMP JUMPDEST SWAP1 POP SWAP2 SWAP1 POP JUMP JUMPDEST PUSH0 PUSH2 0x8E1 DUP3 PUSH2 0x67B JUMP JUMPDEST SWAP2 POP PUSH2 0x8EC DUP4 PUSH2 0x67B JUMP JUMPDEST SWAP3 POP DUP3 DUP3 MUL PUSH2 0x8FA DUP2 PUSH2 0x67B JUMP JUMPDEST SWAP2 POP DUP3 DUP3 DIV DUP5 EQ DUP4 ISZERO OR PUSH2 0x911 JUMPI PUSH2 0x910 PUSH2 0x7A1 JUMP JUMPDEST JUMPDEST POP SWAP3 SWAP2 POP POP JUMP JUMPDEST PUSH32 0x4E487B7100000000000000000000000000000000000000000000000000000000 PUSH0 MSTORE PUSH1 0x12 PUSH1 0x4 MSTORE PUSH1 0x24 PUSH0 REVERT JUMPDEST PUSH0 PUSH2 0x94F DUP3 PUSH2 0x67B JUMP JUMPDEST SWAP2 POP PUSH2 0x95A DUP4 PUSH2 0x67B JUMP JUMPDEST SWAP3 POP DUP3 PUSH2 0x96A JUMPI PUSH2 0x969 PUSH2 0x918 JUMP JUMPDEST JUMPDEST DUP3 DUP3 DIV SWAP1 POP SWAP3 SWAP2 POP POP JUMP JUMPDEST PUSH0 PUSH10 0xFFFFFFFFFFFFFFFFFFFF DUP3 AND SWAP1 POP SWAP2 SWAP1 POP JUMP JUMPDEST PUSH2 0x993 DUP2 PUSH2 0x975 JUMP JUMPDEST DUP2 EQ PUSH2 0x99D JUMPI PUSH0 DUP1 REVERT JUMPDEST POP JUMP JUMPDEST PUSH0 DUP2 MLOAD SWAP1 POP PUSH2 0x9AE DUP2 PUSH2 0x98A JUMP JUMPDEST SWAP3 SWAP2 POP POP JUMP JUMPDEST PUSH0 DUP2 SWAP1 POP SWAP2 SWAP1 POP JUMP JUMPDEST PUSH2 0x9C6 DUP2 PUSH2 0x9B4 JUMP JUMPDEST DUP2 EQ PUSH2 0x9D0 JUMPI PUSH0 DUP1 REVERT JUMPDEST POP JUMP JUMPDEST PUSH0 DUP2 MLOAD SWAP1 POP PUSH2 0x9E1 DUP2 PUSH2 0x9BD JUMP JUMPDEST SWAP3 SWAP2 POP POP JUMP JUMPDEST PUSH0 DUP2 MLOAD SWAP1 POP PUSH2 0x9F5 DUP2 PUSH2 0x6D4 JUMP JUMPDEST SWAP3 SWAP2 POP POP JUMP JUMPDEST PUSH0 DUP1 PUSH0 DUP1 PUSH0 PUSH1 0xA0 DUP7 DUP9 SUB SLT ISZERO PUSH2 0xA14 JUMPI PUSH2 0xA13 PUSH2 0x5F2 JUMP JUMPDEST JUMPDEST PUSH0 PUSH2 0xA21 DUP9 DUP3 DUP10 ADD PUSH2 0x9A0 JUMP JUMPDEST SWAP6 POP POP PUSH1 0x20 PUSH2 0xA32 DUP9 DUP3 DUP10 ADD PUSH2 0x9D3 JUMP JUMPDEST SWAP5 POP POP PUSH1 0x40 PUSH2 0xA43 DUP9 DUP3 DUP10 ADD PUSH2 0x9E7 JUMP JUMPDEST SWAP4 POP POP PUSH1 0x60 PUSH2 0xA54 DUP9 DUP3 DUP10 ADD PUSH2 0x9E7 JUMP JUMPDEST SWAP3 POP POP PUSH1 0x80 PUSH2 0xA65 DUP9 DUP3 DUP10 ADD PUSH2 0x9A0 JUMP JUMPDEST SWAP2 POP POP SWAP3 SWAP6 POP SWAP3 SWAP6 SWAP1 SWAP4 POP JUMP JUMPDEST PUSH0 PUSH2 0xA7C DUP3 PUSH2 0x9B4 JUMP JUMPDEST SWAP2 POP PUSH2 0xA87 DUP4 PUSH2 0x9B4 JUMP JUMPDEST SWAP3 POP DUP3 DUP3 MUL PUSH2 0xA95 DUP2 PUSH2 0x9B4 JUMP JUMPDEST SWAP2 POP PUSH32 0x8000000000000000000000000000000000000000000000000000000000000000 DUP5 EQ PUSH0 DUP5 SLT AND ISZERO PUSH2 0xACC JUMPI PUSH2 0xACB PUSH2 0x7A1 JUMP JUMPDEST JUMPDEST DUP3 DUP3 SDIV DUP5 EQ DUP4 ISZERO OR PUSH2 0xAE1 JUMPI PUSH2 0xAE0 PUSH2 0x7A1 JUMP JUMPDEST JUMPDEST POP SWAP3 SWAP2 POP POP JUMP INVALID LOG2 PUSH5 0x6970667358 0x22 SLT KECCAK256 AND DIV 0xBC 0xDD PREVRANDAO 0xE3 OR INVALID PUSH8 0xCD196EAF92382BF0 CALLER 0x4F PUSH9 0x6FF40FD9B954AF92B4 MOD NOT MOD PUSH5 0x736F6C6343 STOP ADDMOD BYTE STOP CALLER "
				},
				"gasEstimates": {
					"creation": {
						"codeDepositCost": "569200",
						"executionCost": "infinite",
						"totalCost": "infinite"
					},
					"external": {
						"": "infinite",
						"MINIMUM_USD()": "347",
						"addressToAmountFunded(address)": "2802",
						"fund()": "infinite",
						"funders(uint256)": "5031",
						"i_owner()": "infinite",
						"withdraw()": "infinite"
					}
				},
				"methodIdentifiers": {
					"MINIMUM_USD()": "6b69a592",
					"addressToAmountFunded(address)": "3e47d6f3",
					"fund()": "b60d4288",
					"funders(uint256)": "dc0d3dff",
					"i_owner()": "dba6335f",
					"withdraw()": "3ccfd60b"
				}
			},
			"storageLayout": {
				"storage": [
					{
						"astId": 62,
						"contract": "contracts/FundMe.sol:FundMe",
						"label": "funders",
						"offset": 0,
						"slot": "0",
						"type": "t_array(t_address)dyn_storage"
					},
					{
						"astId": 66,
						"contract": "contracts/FundMe.sol:FundMe",
						"label": "addressToAmountFunded",
						"offset": 0,
						"slot": "1",
						"type": "t_mapping(t_address,t_uint256)"
					}
				],
				"types": {
					"t_address": {
						"encoding": "inplace",
						"label": "address",
						"numberOfBytes": "20"
					},
					"t_array(t_address)dyn_storage": {
						"base": "t_address",
						"encoding": "dynamic_array",
						"label": "address[]",
						"numberOfBytes": "32"
					},
					"t_mapping(t_address,t_uint256)": {
						"encoding": "mapping",
						"key": "t_address",
						"label": "mapping(address => uint256)",
						"numberOfBytes": "32",
						"value": "t_uint256"
					},
					"t_uint256": {
						"encoding": "inplace",
						"label": "uint256",
						"numberOfBytes": "32"
					}
				}
			},
			"userdoc": {
				"kind": "user",
				"methods": {},
				"version": 1
			}
		}
	}
}