{
	"contracts/StorageFactory.sol": {
		"StorageFactory": {
			"abi": [
				{
					"inputs": [],
					"name": "createSimpleStorageContract",
					"outputs": [],
					"stateMutability": "nonpayable",
					"type": "function"
				},
				{
					"inputs": [
						{
							"internalType": "uint256",
							"name": "_simpleStorageIndex",
							"type": "uint256"
						}
					],
					"name": "sfGet",
					"outputs": [
						{
							"internalType": "uint256",
							"name": "",
							"type": "uint256"
						}
					],
					"stateMutability": "view",
					"type": "function"
				},
				{
					"inputs": [
						{
							"internalType": "uint256",
							"name": "_simpleStorageIndex",
							"type": "uint256"
						},
						{
							"internalType": "uint256",
							"name": "_simpleStorageNumber",
							"type": "uint256"
						}
					],
					"name": "sfStore",
					"outputs": [],
					"stateMutability": "nonpayable",
					"type": "function"
				},
				{
					"inputs": [
						{
							"internalType": "uint256",
							"name": "",
							"type": "uint256"
						}
					],
					"name": "simpleStorageArray",
					"outputs": [
						{
							"internalType": "contract SimpleStorage",
							"name": "",
							"type": "address"
						}
					],
					"stateMutability": "view",
					"type": "function"
				}
			],
			"devdoc": {
				"kind": "dev",
				"methods": {},
				"version": 1
			},
			"evm": {
				"assembly": "    /* \"contracts/StorageFactory.sol\":95:2098  contract StorageFactory{... */\n  mstore(0x40, 0x80)\n  callvalue\n  dup1\n  iszero\n  tag_1\n  jumpi\n  0x00\n  dup1\n  revert\ntag_1:\n  pop\n  dataSize(sub_0)\n  dup1\n  dataOffset(sub_0)\n  0x00\n  codecopy\n  0x00\n  return\nstop\n\nsub_0: assembly {\n        /* \"contracts/StorageFactory.sol\":95:2098  contract StorageFactory{... */\n      mstore(0x40, 0x80)\n      callvalue\n      dup1\n      iszero\n      tag_1\n      jumpi\n      0x00\n      dup1\n      revert\n    tag_1:\n      pop\n      jumpi(tag_2, lt(calldatasize, 0x04))\n      shr(0xe0, calldataload(0x00))\n      dup1\n      0x1563700f\n      eq\n      tag_3\n      jumpi\n      dup1\n      0x1dda6541\n      eq\n      tag_4\n      jumpi\n      dup1\n      0x64591bf1\n      eq\n      tag_5\n      jumpi\n      dup1\n      0xc5f19c20\n      eq\n      tag_6\n      jumpi\n    tag_2:\n      0x00\n      dup1\n      revert\n        /* \"contracts/StorageFactory.sol\":904:1936  function sfStore(uint256 _simpleStorageIndex,uint256 _simpleStorageNumber) public {... */\n    tag_3:\n      tag_7\n      0x04\n      dup1\n      calldatasize\n      sub\n      dup2\n      add\n      swap1\n      tag_8\n      swap2\n      swap1\n      tag_9\n      jump\t// in\n    tag_8:\n      tag_10\n      jump\t// in\n    tag_7:\n      stop\n        /* \"contracts/StorageFactory.sol\":217:898  function createSimpleStorageContract() public  {... */\n    tag_4:\n      tag_11\n      tag_12\n      jump\t// in\n    tag_11:\n      stop\n        /* \"contracts/StorageFactory.sol\":169:210  SimpleStorage[] public simpleStorageArray */\n    tag_5:\n      tag_13\n      0x04\n      dup1\n      calldatasize\n      sub\n      dup2\n      add\n      swap1\n      tag_14\n      swap2\n      swap1\n      tag_15\n      jump\t// in\n    tag_14:\n      tag_16\n      jump\t// in\n    tag_13:\n      mload(0x40)\n      tag_17\n      swap2\n      swap1\n      tag_18\n      jump\t// in\n    tag_17:\n      mload(0x40)\n      dup1\n      swap2\n      sub\n      swap1\n      return\n        /* \"contracts/StorageFactory.sol\":1942:2088  function sfGet(uint256 _simpleStorageIndex) public view returns (uint256){... */\n    tag_6:\n      tag_19\n      0x04\n      dup1\n      calldatasize\n      sub\n      dup2\n      add\n      swap1\n      tag_20\n      swap2\n      swap1\n      tag_15\n      jump\t// in\n    tag_20:\n      tag_21\n      jump\t// in\n    tag_19:\n      mload(0x40)\n      tag_22\n      swap2\n      swap1\n      tag_23\n      jump\t// in\n    tag_22:\n      mload(0x40)\n      dup1\n      swap2\n      sub\n      swap1\n      return\n        /* \"contracts/StorageFactory.sol\":904:1936  function sfStore(uint256 _simpleStorageIndex,uint256 _simpleStorageNumber) public {... */\n    tag_10:\n        /* \"contracts/StorageFactory.sol\":1861:1879  simpleStorageArray */\n      0x00\n        /* \"contracts/StorageFactory.sol\":1880:1899  _simpleStorageIndex */\n      dup3\n        /* \"contracts/StorageFactory.sol\":1861:1900  simpleStorageArray[_simpleStorageIndex] */\n      dup2\n      sload\n      dup2\n      lt\n      tag_25\n      jumpi\n      tag_26\n      tag_27\n      jump\t// in\n    tag_26:\n    tag_25:\n      swap1\n      0x00\n      mstore\n      keccak256(0x00, 0x20)\n      add\n      0x00\n      swap1\n      sload\n      swap1\n      0x0100\n      exp\n      swap1\n      div\n      0xffffffffffffffffffffffffffffffffffffffff\n      and\n        /* \"contracts/StorageFactory.sol\":1861:1906  simpleStorageArray[_simpleStorageIndex].store */\n      0xffffffffffffffffffffffffffffffffffffffff\n      and\n      0x6057361d\n        /* \"contracts/StorageFactory.sol\":1907:1927  _simpleStorageNumber */\n      dup3\n        /* \"contracts/StorageFactory.sol\":1861:1928  simpleStorageArray[_simpleStorageIndex].store(_simpleStorageNumber) */\n      mload(0x40)\n      dup3\n      0xffffffff\n      and\n      0xe0\n      shl\n      dup2\n      mstore\n      0x04\n      add\n      tag_29\n      swap2\n      swap1\n      tag_23\n      jump\t// in\n    tag_29:\n      0x00\n      mload(0x40)\n      dup1\n      dup4\n      sub\n      dup2\n      0x00\n      dup8\n      dup1\n      extcodesize\n      iszero\n      dup1\n      iszero\n      tag_30\n      jumpi\n      0x00\n      dup1\n      revert\n    tag_30:\n      pop\n      gas\n      call\n      iszero\n      dup1\n      iszero\n      tag_32\n      jumpi\n      returndatasize\n      0x00\n      dup1\n      returndatacopy\n      revert(0x00, returndatasize)\n    tag_32:\n      pop\n      pop\n      pop\n      pop\n        /* \"contracts/StorageFactory.sol\":904:1936  function sfStore(uint256 _simpleStorageIndex,uint256 _simpleStorageNumber) public {... */\n      pop\n      pop\n      jump\t// out\n        /* \"contracts/StorageFactory.sol\":217:898  function createSimpleStorageContract() public  {... */\n    tag_12:\n        /* \"contracts/StorageFactory.sol\":792:819  SimpleStorage simpleStorage */\n      0x00\n        /* \"contracts/StorageFactory.sol\":822:841  new SimpleStorage() */\n      mload(0x40)\n      tag_34\n      swap1\n      tag_35\n      jump\t// in\n    tag_34:\n      mload(0x40)\n      dup1\n      swap2\n      sub\n      swap1\n      0x00\n      create\n      dup1\n      iszero\n      dup1\n      iszero\n      tag_36\n      jumpi\n      returndatasize\n      0x00\n      dup1\n      returndatacopy\n      revert(0x00, returndatasize)\n    tag_36:\n      pop\n        /* \"contracts/StorageFactory.sol\":792:841  SimpleStorage simpleStorage = new SimpleStorage() */\n      swap1\n      pop\n        /* \"contracts/StorageFactory.sol\":852:870  simpleStorageArray */\n      0x00\n        /* \"contracts/StorageFactory.sol\":876:889  simpleStorage */\n      dup2\n        /* \"contracts/StorageFactory.sol\":852:890  simpleStorageArray.push(simpleStorage) */\n      swap1\n      dup1\n      0x01\n      dup2\n      sload\n      add\n      dup1\n      dup3\n      sstore\n      dup1\n      swap2\n      pop\n      pop\n      0x01\n      swap1\n      sub\n      swap1\n      0x00\n      mstore\n      keccak256(0x00, 0x20)\n      add\n      0x00\n      swap1\n      swap2\n      swap1\n      swap2\n      swap1\n      swap2\n      0x0100\n      exp\n      dup2\n      sload\n      dup2\n      0xffffffffffffffffffffffffffffffffffffffff\n      mul\n      not\n      and\n      swap1\n      dup4\n      0xffffffffffffffffffffffffffffffffffffffff\n      and\n      mul\n      or\n      swap1\n      sstore\n      pop\n        /* \"contracts/StorageFactory.sol\":264:898  {... */\n      pop\n        /* \"contracts/StorageFactory.sol\":217:898  function createSimpleStorageContract() public  {... */\n      jump\t// out\n        /* \"contracts/StorageFactory.sol\":169:210  SimpleStorage[] public simpleStorageArray */\n    tag_16:\n      0x00\n      dup2\n      dup2\n      sload\n      dup2\n      lt\n      tag_38\n      jumpi\n      0x00\n      dup1\n      revert\n    tag_38:\n      swap1\n      0x00\n      mstore\n      keccak256(0x00, 0x20)\n      add\n      0x00\n      swap2\n      pop\n      sload\n      swap1\n      0x0100\n      exp\n      swap1\n      div\n      0xffffffffffffffffffffffffffffffffffffffff\n      and\n      dup2\n      jump\t// out\n        /* \"contracts/StorageFactory.sol\":1942:2088  function sfGet(uint256 _simpleStorageIndex) public view returns (uint256){... */\n    tag_21:\n        /* \"contracts/StorageFactory.sol\":2007:2014  uint256 */\n      0x00\n        /* \"contracts/StorageFactory.sol\":2030:2048  simpleStorageArray */\n      dup1\n        /* \"contracts/StorageFactory.sol\":2049:2068  _simpleStorageIndex */\n      dup3\n        /* \"contracts/StorageFactory.sol\":2030:2069  simpleStorageArray[_simpleStorageIndex] */\n      dup2\n      sload\n      dup2\n      lt\n      tag_41\n      jumpi\n      tag_42\n      tag_27\n      jump\t// in\n    tag_42:\n    tag_41:\n      swap1\n      0x00\n      mstore\n      keccak256(0x00, 0x20)\n      add\n      0x00\n      swap1\n      sload\n      swap1\n      0x0100\n      exp\n      swap1\n      div\n      0xffffffffffffffffffffffffffffffffffffffff\n      and\n        /* \"contracts/StorageFactory.sol\":2030:2078  simpleStorageArray[_simpleStorageIndex].retrieve */\n      0xffffffffffffffffffffffffffffffffffffffff\n      and\n      0x2e64cec1\n        /* \"contracts/StorageFactory.sol\":2030:2080  simpleStorageArray[_simpleStorageIndex].retrieve() */\n      mload(0x40)\n      dup2\n      0xffffffff\n      and\n      0xe0\n      shl\n      dup2\n      mstore\n      0x04\n      add\n      0x20\n      mload(0x40)\n      dup1\n      dup4\n      sub\n      dup2\n      dup7\n      gas\n      staticcall\n      iszero\n      dup1\n      iszero\n      tag_45\n      jumpi\n      returndatasize\n      0x00\n      dup1\n      returndatacopy\n      revert(0x00, returndatasize)\n    tag_45:\n      pop\n      pop\n      pop\n      pop\n      mload(0x40)\n      returndatasize\n      not(0x1f)\n      0x1f\n      dup3\n      add\n      and\n      dup3\n      add\n      dup1\n      0x40\n      mstore\n      pop\n      dup2\n      add\n      swap1\n      tag_46\n      swap2\n      swap1\n      tag_47\n      jump\t// in\n    tag_46:\n        /* \"contracts/StorageFactory.sol\":2023:2080  return simpleStorageArray[_simpleStorageIndex].retrieve() */\n      swap1\n      pop\n        /* \"contracts/StorageFactory.sol\":1942:2088  function sfGet(uint256 _simpleStorageIndex) public view returns (uint256){... */\n      swap2\n      swap1\n      pop\n      jump\t// out\n    tag_35:\n      dataSize(sub_0)\n      dup1\n      dataOffset(sub_0)\n      dup4\n      codecopy\n      add\n      swap1\n      jump\t// out\n        /* \"#utility.yul\":88:205   */\n    tag_49:\n        /* \"#utility.yul\":197:198   */\n      0x00\n        /* \"#utility.yul\":194:195   */\n      dup1\n        /* \"#utility.yul\":187:199   */\n      revert\n        /* \"#utility.yul\":334:411   */\n    tag_51:\n        /* \"#utility.yul\":371:378   */\n      0x00\n        /* \"#utility.yul\":400:405   */\n      dup2\n        /* \"#utility.yul\":389:405   */\n      swap1\n      pop\n        /* \"#utility.yul\":334:411   */\n      swap2\n      swap1\n      pop\n      jump\t// out\n        /* \"#utility.yul\":417:539   */\n    tag_52:\n        /* \"#utility.yul\":490:514   */\n      tag_68\n        /* \"#utility.yul\":508:513   */\n      dup2\n        /* \"#utility.yul\":490:514   */\n      tag_51\n      jump\t// in\n    tag_68:\n        /* \"#utility.yul\":483:488   */\n      dup2\n        /* \"#utility.yul\":480:515   */\n      eq\n        /* \"#utility.yul\":470:533   */\n      tag_69\n      jumpi\n        /* \"#utility.yul\":529:530   */\n      0x00\n        /* \"#utility.yul\":526:527   */\n      dup1\n        /* \"#utility.yul\":519:531   */\n      revert\n        /* \"#utility.yul\":470:533   */\n    tag_69:\n        /* \"#utility.yul\":417:539   */\n      pop\n      jump\t// out\n        /* \"#utility.yul\":545:684   */\n    tag_53:\n        /* \"#utility.yul\":591:596   */\n      0x00\n        /* \"#utility.yul\":629:635   */\n      dup2\n        /* \"#utility.yul\":616:636   */\n      calldataload\n        /* \"#utility.yul\":607:636   */\n      swap1\n      pop\n        /* \"#utility.yul\":645:678   */\n      tag_71\n        /* \"#utility.yul\":672:677   */\n      dup2\n        /* \"#utility.yul\":645:678   */\n      tag_52\n      jump\t// in\n    tag_71:\n        /* \"#utility.yul\":545:684   */\n      swap3\n      swap2\n      pop\n      pop\n      jump\t// out\n        /* \"#utility.yul\":690:1164   */\n    tag_9:\n        /* \"#utility.yul\":758:764   */\n      0x00\n        /* \"#utility.yul\":766:772   */\n      dup1\n        /* \"#utility.yul\":815:817   */\n      0x40\n        /* \"#utility.yul\":803:812   */\n      dup4\n        /* \"#utility.yul\":794:801   */\n      dup6\n        /* \"#utility.yul\":790:813   */\n      sub\n        /* \"#utility.yul\":786:818   */\n      slt\n        /* \"#utility.yul\":783:902   */\n      iszero\n      tag_73\n      jumpi\n        /* \"#utility.yul\":821:900   */\n      tag_74\n      tag_49\n      jump\t// in\n    tag_74:\n        /* \"#utility.yul\":783:902   */\n    tag_73:\n        /* \"#utility.yul\":941:942   */\n      0x00\n        /* \"#utility.yul\":966:1019   */\n      tag_75\n        /* \"#utility.yul\":1011:1018   */\n      dup6\n        /* \"#utility.yul\":1002:1008   */\n      dup3\n        /* \"#utility.yul\":991:1000   */\n      dup7\n        /* \"#utility.yul\":987:1009   */\n      add\n        /* \"#utility.yul\":966:1019   */\n      tag_53\n      jump\t// in\n    tag_75:\n        /* \"#utility.yul\":956:1019   */\n      swap3\n      pop\n        /* \"#utility.yul\":912:1029   */\n      pop\n        /* \"#utility.yul\":1068:1070   */\n      0x20\n        /* \"#utility.yul\":1094:1147   */\n      tag_76\n        /* \"#utility.yul\":1139:1146   */\n      dup6\n        /* \"#utility.yul\":1130:1136   */\n      dup3\n        /* \"#utility.yul\":1119:1128   */\n      dup7\n        /* \"#utility.yul\":1115:1137   */\n      add\n        /* \"#utility.yul\":1094:1147   */\n      tag_53\n      jump\t// in\n    tag_76:\n        /* \"#utility.yul\":1084:1147   */\n      swap2\n      pop\n        /* \"#utility.yul\":1039:1157   */\n      pop\n        /* \"#utility.yul\":690:1164   */\n      swap3\n      pop\n      swap3\n      swap1\n      pop\n      jump\t// out\n        /* \"#utility.yul\":1170:1499   */\n    tag_15:\n        /* \"#utility.yul\":1229:1235   */\n      0x00\n        /* \"#utility.yul\":1278:1280   */\n      0x20\n        /* \"#utility.yul\":1266:1275   */\n      dup3\n        /* \"#utility.yul\":1257:1264   */\n      dup5\n        /* \"#utility.yul\":1253:1276   */\n      sub\n        /* \"#utility.yul\":1249:1281   */\n      slt\n        /* \"#utility.yul\":1246:1365   */\n      iszero\n      tag_78\n      jumpi\n        /* \"#utility.yul\":1284:1363   */\n      tag_79\n      tag_49\n      jump\t// in\n    tag_79:\n        /* \"#utility.yul\":1246:1365   */\n    tag_78:\n        /* \"#utility.yul\":1404:1405   */\n      0x00\n        /* \"#utility.yul\":1429:1482   */\n      tag_80\n        /* \"#utility.yul\":1474:1481   */\n      dup5\n        /* \"#utility.yul\":1465:1471   */\n      dup3\n        /* \"#utility.yul\":1454:1463   */\n      dup6\n        /* \"#utility.yul\":1450:1472   */\n      add\n        /* \"#utility.yul\":1429:1482   */\n      tag_53\n      jump\t// in\n    tag_80:\n        /* \"#utility.yul\":1419:1482   */\n      swap2\n      pop\n        /* \"#utility.yul\":1375:1492   */\n      pop\n        /* \"#utility.yul\":1170:1499   */\n      swap3\n      swap2\n      pop\n      pop\n      jump\t// out\n        /* \"#utility.yul\":1505:1631   */\n    tag_54:\n        /* \"#utility.yul\":1542:1549   */\n      0x00\n        /* \"#utility.yul\":1582:1624   */\n      0xffffffffffffffffffffffffffffffffffffffff\n        /* \"#utility.yul\":1575:1580   */\n      dup3\n        /* \"#utility.yul\":1571:1625   */\n      and\n        /* \"#utility.yul\":1560:1625   */\n      swap1\n      pop\n        /* \"#utility.yul\":1505:1631   */\n      swap2\n      swap1\n      pop\n      jump\t// out\n        /* \"#utility.yul\":1637:1697   */\n    tag_55:\n        /* \"#utility.yul\":1665:1668   */\n      0x00\n        /* \"#utility.yul\":1686:1691   */\n      dup2\n        /* \"#utility.yul\":1679:1691   */\n      swap1\n      pop\n        /* \"#utility.yul\":1637:1697   */\n      swap2\n      swap1\n      pop\n      jump\t// out\n        /* \"#utility.yul\":1703:1845   */\n    tag_56:\n        /* \"#utility.yul\":1753:1762   */\n      0x00\n        /* \"#utility.yul\":1786:1839   */\n      tag_84\n        /* \"#utility.yul\":1804:1838   */\n      tag_85\n        /* \"#utility.yul\":1813:1837   */\n      tag_86\n        /* \"#utility.yul\":1831:1836   */\n      dup5\n        /* \"#utility.yul\":1813:1837   */\n      tag_54\n      jump\t// in\n    tag_86:\n        /* \"#utility.yul\":1804:1838   */\n      tag_55\n      jump\t// in\n    tag_85:\n        /* \"#utility.yul\":1786:1839   */\n      tag_54\n      jump\t// in\n    tag_84:\n        /* \"#utility.yul\":1773:1839   */\n      swap1\n      pop\n        /* \"#utility.yul\":1703:1845   */\n      swap2\n      swap1\n      pop\n      jump\t// out\n        /* \"#utility.yul\":1851:1977   */\n    tag_57:\n        /* \"#utility.yul\":1901:1910   */\n      0x00\n        /* \"#utility.yul\":1934:1971   */\n      tag_88\n        /* \"#utility.yul\":1965:1970   */\n      dup3\n        /* \"#utility.yul\":1934:1971   */\n      tag_56\n      jump\t// in\n    tag_88:\n        /* \"#utility.yul\":1921:1971   */\n      swap1\n      pop\n        /* \"#utility.yul\":1851:1977   */\n      swap2\n      swap1\n      pop\n      jump\t// out\n        /* \"#utility.yul\":1983:2129   */\n    tag_58:\n        /* \"#utility.yul\":2053:2062   */\n      0x00\n        /* \"#utility.yul\":2086:2123   */\n      tag_90\n        /* \"#utility.yul\":2117:2122   */\n      dup3\n        /* \"#utility.yul\":2086:2123   */\n      tag_57\n      jump\t// in\n    tag_90:\n        /* \"#utility.yul\":2073:2123   */\n      swap1\n      pop\n        /* \"#utility.yul\":1983:2129   */\n      swap2\n      swap1\n      pop\n      jump\t// out\n        /* \"#utility.yul\":2135:2306   */\n    tag_59:\n        /* \"#utility.yul\":2242:2299   */\n      tag_92\n        /* \"#utility.yul\":2293:2298   */\n      dup2\n        /* \"#utility.yul\":2242:2299   */\n      tag_58\n      jump\t// in\n    tag_92:\n        /* \"#utility.yul\":2237:2240   */\n      dup3\n        /* \"#utility.yul\":2230:2300   */\n      mstore\n        /* \"#utility.yul\":2135:2306   */\n      pop\n      pop\n      jump\t// out\n        /* \"#utility.yul\":2312:2574   */\n    tag_18:\n        /* \"#utility.yul\":2425:2429   */\n      0x00\n        /* \"#utility.yul\":2463:2465   */\n      0x20\n        /* \"#utility.yul\":2452:2461   */\n      dup3\n        /* \"#utility.yul\":2448:2466   */\n      add\n        /* \"#utility.yul\":2440:2466   */\n      swap1\n      pop\n        /* \"#utility.yul\":2476:2567   */\n      tag_94\n        /* \"#utility.yul\":2564:2565   */\n      0x00\n        /* \"#utility.yul\":2553:2562   */\n      dup4\n        /* \"#utility.yul\":2549:2566   */\n      add\n        /* \"#utility.yul\":2540:2546   */\n      dup5\n        /* \"#utility.yul\":2476:2567   */\n      tag_59\n      jump\t// in\n    tag_94:\n        /* \"#utility.yul\":2312:2574   */\n      swap3\n      swap2\n      pop\n      pop\n      jump\t// out\n        /* \"#utility.yul\":2580:2698   */\n    tag_60:\n        /* \"#utility.yul\":2667:2691   */\n      tag_96\n        /* \"#utility.yul\":2685:2690   */\n      dup2\n        /* \"#utility.yul\":2667:2691   */\n      tag_51\n      jump\t// in\n    tag_96:\n        /* \"#utility.yul\":2662:2665   */\n      dup3\n        /* \"#utility.yul\":2655:2692   */\n      mstore\n        /* \"#utility.yul\":2580:2698   */\n      pop\n      pop\n      jump\t// out\n        /* \"#utility.yul\":2704:2926   */\n    tag_23:\n        /* \"#utility.yul\":2797:2801   */\n      0x00\n        /* \"#utility.yul\":2835:2837   */\n      0x20\n        /* \"#utility.yul\":2824:2833   */\n      dup3\n        /* \"#utility.yul\":2820:2838   */\n      add\n        /* \"#utility.yul\":2812:2838   */\n      swap1\n      pop\n        /* \"#utility.yul\":2848:2919   */\n      tag_98\n        /* \"#utility.yul\":2916:2917   */\n      0x00\n        /* \"#utility.yul\":2905:2914   */\n      dup4\n        /* \"#utility.yul\":2901:2918   */\n      add\n        /* \"#utility.yul\":2892:2898   */\n      dup5\n        /* \"#utility.yul\":2848:2919   */\n      tag_60\n      jump\t// in\n    tag_98:\n        /* \"#utility.yul\":2704:2926   */\n      swap3\n      swap2\n      pop\n      pop\n      jump\t// out\n        /* \"#utility.yul\":2932:3112   */\n    tag_27:\n        /* \"#utility.yul\":2980:3057   */\n      0x4e487b7100000000000000000000000000000000000000000000000000000000\n        /* \"#utility.yul\":2977:2978   */\n      0x00\n        /* \"#utility.yul\":2970:3058   */\n      mstore\n        /* \"#utility.yul\":3077:3081   */\n      0x32\n        /* \"#utility.yul\":3074:3075   */\n      0x04\n        /* \"#utility.yul\":3067:3082   */\n      mstore\n        /* \"#utility.yul\":3101:3105   */\n      0x24\n        /* \"#utility.yul\":3098:3099   */\n      0x00\n        /* \"#utility.yul\":3091:3106   */\n      revert\n        /* \"#utility.yul\":3118:3261   */\n    tag_61:\n        /* \"#utility.yul\":3175:3180   */\n      0x00\n        /* \"#utility.yul\":3206:3212   */\n      dup2\n        /* \"#utility.yul\":3200:3213   */\n      mload\n        /* \"#utility.yul\":3191:3213   */\n      swap1\n      pop\n        /* \"#utility.yul\":3222:3255   */\n      tag_101\n        /* \"#utility.yul\":3249:3254   */\n      dup2\n        /* \"#utility.yul\":3222:3255   */\n      tag_52\n      jump\t// in\n    tag_101:\n        /* \"#utility.yul\":3118:3261   */\n      swap3\n      swap2\n      pop\n      pop\n      jump\t// out\n        /* \"#utility.yul\":3267:3618   */\n    tag_47:\n        /* \"#utility.yul\":3337:3343   */\n      0x00\n        /* \"#utility.yul\":3386:3388   */\n      0x20\n        /* \"#utility.yul\":3374:3383   */\n      dup3\n        /* \"#utility.yul\":3365:3372   */\n      dup5\n        /* \"#utility.yul\":3361:3384   */\n      sub\n        /* \"#utility.yul\":3357:3389   */\n      slt\n        /* \"#utility.yul\":3354:3473   */\n      iszero\n      tag_103\n      jumpi\n        /* \"#utility.yul\":3392:3471   */\n      tag_104\n      tag_49\n      jump\t// in\n    tag_104:\n        /* \"#utility.yul\":3354:3473   */\n    tag_103:\n        /* \"#utility.yul\":3512:3513   */\n      0x00\n        /* \"#utility.yul\":3537:3601   */\n      tag_105\n        /* \"#utility.yul\":3593:3600   */\n      dup5\n        /* \"#utility.yul\":3584:3590   */\n      dup3\n        /* \"#utility.yul\":3573:3582   */\n      dup6\n        /* \"#utility.yul\":3569:3591   */\n      add\n        /* \"#utility.yul\":3537:3601   */\n      tag_61\n      jump\t// in\n    tag_105:\n        /* \"#utility.yul\":3527:3601   */\n      swap2\n      pop\n        /* \"#utility.yul\":3483:3611   */\n      pop\n        /* \"#utility.yul\":3267:3618   */\n      swap3\n      swap2\n      pop\n      pop\n      jump\t// out\n    stop\n\n    sub_0: assembly {\n            /* \"contracts/SimpleStorage.sol\":60:2536  contract SimpleStorage{... */\n          mstore(0x40, 0x80)\n          callvalue\n          dup1\n          iszero\n          tag_1\n          jumpi\n          0x00\n          dup1\n          revert\n        tag_1:\n          pop\n          dataSize(sub_0)\n          dup1\n          dataOffset(sub_0)\n          0x00\n          codecopy\n          0x00\n          return\n        stop\n\n        sub_0: assembly {\n                /* \"contracts/SimpleStorage.sol\":60:2536  contract SimpleStorage{... */\n              mstore(0x40, 0x80)\n              callvalue\n              dup1\n              iszero\n              tag_1\n              jumpi\n              0x00\n              dup1\n              revert\n            tag_1:\n              pop\n              jumpi(tag_2, lt(calldatasize, 0x04))\n              shr(0xe0, calldataload(0x00))\n              dup1\n              0x2e64cec1\n              eq\n              tag_3\n              jumpi\n              dup1\n              0x43ec8f47\n              eq\n              tag_4\n              jumpi\n              dup1\n              0x6057361d\n              eq\n              tag_5\n              jumpi\n              dup1\n              0x795fff1d\n              eq\n              tag_6\n              jumpi\n              dup1\n              0x9e7a13ad\n              eq\n              tag_7\n              jumpi\n              dup1\n              0xcd1127f5\n              eq\n              tag_8\n              jumpi\n            tag_2:\n              0x00\n              dup1\n              revert\n                /* \"contracts/SimpleStorage.sol\":848:937  function retrieve() public view returns (uint256){... */\n            tag_3:\n              tag_9\n              tag_10\n              jump\t// in\n            tag_9:\n              mload(0x40)\n              tag_11\n              swap2\n              swap1\n              tag_12\n              jump\t// in\n            tag_11:\n              mload(0x40)\n              dup1\n              swap2\n              sub\n              swap1\n              return\n                /* \"contracts/SimpleStorage.sol\":397:446  mapping(string => uint256) public nameToFavNumber */\n            tag_4:\n              tag_13\n              0x04\n              dup1\n              calldatasize\n              sub\n              dup2\n              add\n              swap1\n              tag_14\n              swap2\n              swap1\n              tag_15\n              jump\t// in\n            tag_14:\n              tag_16\n              jump\t// in\n            tag_13:\n              mload(0x40)\n              tag_17\n              swap2\n              swap1\n              tag_12\n              jump\t// in\n            tag_17:\n              mload(0x40)\n              dup1\n              swap2\n              sub\n              swap1\n              return\n                /* \"contracts/SimpleStorage.sol\":455:553  function store(uint256 _favoriteNumber) public {... */\n            tag_5:\n              tag_18\n              0x04\n              dup1\n              calldatasize\n              sub\n              dup2\n              add\n              swap1\n              tag_19\n              swap2\n              swap1\n              tag_20\n              jump\t// in\n            tag_19:\n              tag_21\n              jump\t// in\n            tag_18:\n              stop\n                /* \"contracts/SimpleStorage.sol\":1125:1316  function addPeople(string memory _name,uint256 _favoriteNumber) public {... */\n            tag_6:\n              tag_22\n              0x04\n              dup1\n              calldatasize\n              sub\n              dup2\n              add\n              swap1\n              tag_23\n              swap2\n              swap1\n              tag_24\n              jump\t// in\n            tag_23:\n              tag_25\n              jump\t// in\n            tag_22:\n              stop\n                /* \"contracts/SimpleStorage.sol\":368:390  People[] public people */\n            tag_7:\n              tag_26\n              0x04\n              dup1\n              calldatasize\n              sub\n              dup2\n              add\n              swap1\n              tag_27\n              swap2\n              swap1\n              tag_20\n              jump\t// in\n            tag_27:\n              tag_28\n              jump\t// in\n            tag_26:\n              mload(0x40)\n              tag_29\n              swap3\n              swap2\n              swap1\n              tag_30\n              jump\t// in\n            tag_29:\n              mload(0x40)\n              dup1\n              swap2\n              sub\n              swap1\n              return\n                /* \"contracts/SimpleStorage.sol\":1028:1119  function multilply(uint256 a) public pure returns (uint256) {... */\n            tag_8:\n              tag_31\n              0x04\n              dup1\n              calldatasize\n              sub\n              dup2\n              add\n              swap1\n              tag_32\n              swap2\n              swap1\n              tag_20\n              jump\t// in\n            tag_32:\n              tag_33\n              jump\t// in\n            tag_31:\n              mload(0x40)\n              tag_34\n              swap2\n              swap1\n              tag_12\n              jump\t// in\n            tag_34:\n              mload(0x40)\n              dup1\n              swap2\n              sub\n              swap1\n              return\n                /* \"contracts/SimpleStorage.sol\":848:937  function retrieve() public view returns (uint256){... */\n            tag_10:\n                /* \"contracts/SimpleStorage.sol\":889:896  uint256 */\n              0x00\n                /* \"contracts/SimpleStorage.sol\":915:929  favoriteNumber */\n              dup1\n              sload\n                /* \"contracts/SimpleStorage.sol\":908:929  return favoriteNumber */\n              swap1\n              pop\n                /* \"contracts/SimpleStorage.sol\":848:937  function retrieve() public view returns (uint256){... */\n              swap1\n              jump\t// out\n                /* \"contracts/SimpleStorage.sol\":397:446  mapping(string => uint256) public nameToFavNumber */\n            tag_16:\n              0x02\n              dup2\n              dup1\n              mload\n              0x20\n              dup2\n              add\n              dup3\n              add\n              dup1\n              mload\n              dup5\n              dup3\n              mstore\n              0x20\n              dup4\n              add\n              0x20\n              dup6\n              add\n              keccak256\n              dup2\n              dup4\n              mstore\n              dup1\n              swap6\n              pop\n              pop\n              pop\n              pop\n              pop\n              pop\n              0x00\n              swap2\n              pop\n              swap1\n              pop\n              sload\n              dup2\n              jump\t// out\n                /* \"contracts/SimpleStorage.sol\":455:553  function store(uint256 _favoriteNumber) public {... */\n            tag_21:\n                /* \"contracts/SimpleStorage.sol\":530:545  _favoriteNumber */\n              dup1\n                /* \"contracts/SimpleStorage.sol\":513:527  favoriteNumber */\n              0x00\n                /* \"contracts/SimpleStorage.sol\":513:545  favoriteNumber = _favoriteNumber */\n              dup2\n              swap1\n              sstore\n              pop\n                /* \"contracts/SimpleStorage.sol\":455:553  function store(uint256 _favoriteNumber) public {... */\n              pop\n              jump\t// out\n                /* \"contracts/SimpleStorage.sol\":1125:1316  function addPeople(string memory _name,uint256 _favoriteNumber) public {... */\n            tag_25:\n                /* \"contracts/SimpleStorage.sol\":1215:1221  people */\n              0x01\n                /* \"contracts/SimpleStorage.sol\":1227:1256  People(_favoriteNumber,_name) */\n              mload(0x40)\n              dup1\n              0x40\n              add\n              0x40\n              mstore\n              dup1\n                /* \"contracts/SimpleStorage.sol\":1234:1249  _favoriteNumber */\n              dup4\n                /* \"contracts/SimpleStorage.sol\":1227:1256  People(_favoriteNumber,_name) */\n              dup2\n              mstore\n              0x20\n              add\n                /* \"contracts/SimpleStorage.sol\":1250:1255  _name */\n              dup5\n                /* \"contracts/SimpleStorage.sol\":1227:1256  People(_favoriteNumber,_name) */\n              dup2\n              mstore\n              pop\n                /* \"contracts/SimpleStorage.sol\":1215:1257  people.push(People(_favoriteNumber,_name)) */\n              swap1\n              dup1\n              0x01\n              dup2\n              sload\n              add\n              dup1\n              dup3\n              sstore\n              dup1\n              swap2\n              pop\n              pop\n              0x01\n              swap1\n              sub\n              swap1\n              0x00\n              mstore\n              keccak256(0x00, 0x20)\n              swap1\n              0x02\n              mul\n              add\n              0x00\n              swap1\n              swap2\n              swap1\n              swap2\n              swap1\n              swap2\n              pop\n              0x00\n              dup3\n              add\n              mload\n              dup2\n              0x00\n              add\n              sstore\n              0x20\n              dup3\n              add\n              mload\n              dup2\n              0x01\n              add\n              swap1\n              dup2\n              tag_39\n              swap2\n              swap1\n              tag_40\n              jump\t// in\n            tag_39:\n              pop\n              pop\n              pop\n                /* \"contracts/SimpleStorage.sol\":1293:1308  _favoriteNumber */\n              dup1\n                /* \"contracts/SimpleStorage.sol\":1268:1283  nameToFavNumber */\n              0x02\n                /* \"contracts/SimpleStorage.sol\":1284:1289  _name */\n              dup4\n                /* \"contracts/SimpleStorage.sol\":1268:1290  nameToFavNumber[_name] */\n              mload(0x40)\n              tag_41\n              swap2\n              swap1\n              tag_42\n              jump\t// in\n            tag_41:\n              swap1\n              dup2\n              mstore\n              0x20\n              add\n              mload(0x40)\n              dup1\n              swap2\n              sub\n              swap1\n              keccak256\n                /* \"contracts/SimpleStorage.sol\":1268:1308  nameToFavNumber[_name] = _favoriteNumber */\n              dup2\n              swap1\n              sstore\n              pop\n                /* \"contracts/SimpleStorage.sol\":1125:1316  function addPeople(string memory _name,uint256 _favoriteNumber) public {... */\n              pop\n              pop\n              jump\t// out\n                /* \"contracts/SimpleStorage.sol\":368:390  People[] public people */\n            tag_28:\n              0x01\n              dup2\n              dup2\n              sload\n              dup2\n              lt\n              tag_43\n              jumpi\n              0x00\n              dup1\n              revert\n            tag_43:\n              swap1\n              0x00\n              mstore\n              keccak256(0x00, 0x20)\n              swap1\n              0x02\n              mul\n              add\n              0x00\n              swap2\n              pop\n              swap1\n              pop\n              dup1\n              0x00\n              add\n              sload\n              swap1\n              dup1\n              0x01\n              add\n              dup1\n              sload\n              tag_45\n              swap1\n              tag_46\n              jump\t// in\n            tag_45:\n              dup1\n              0x1f\n              add\n              0x20\n              dup1\n              swap2\n              div\n              mul\n              0x20\n              add\n              mload(0x40)\n              swap1\n              dup2\n              add\n              0x40\n              mstore\n              dup1\n              swap3\n              swap2\n              swap1\n              dup2\n              dup2\n              mstore\n              0x20\n              add\n              dup3\n              dup1\n              sload\n              tag_47\n              swap1\n              tag_46\n              jump\t// in\n            tag_47:\n              dup1\n              iszero\n              tag_48\n              jumpi\n              dup1\n              0x1f\n              lt\n              tag_49\n              jumpi\n              0x0100\n              dup1\n              dup4\n              sload\n              div\n              mul\n              dup4\n              mstore\n              swap2\n              0x20\n              add\n              swap2\n              jump(tag_48)\n            tag_49:\n              dup3\n              add\n              swap2\n              swap1\n              0x00\n              mstore\n              keccak256(0x00, 0x20)\n              swap1\n            tag_50:\n              dup2\n              sload\n              dup2\n              mstore\n              swap1\n              0x01\n              add\n              swap1\n              0x20\n              add\n              dup1\n              dup4\n              gt\n              tag_50\n              jumpi\n              dup3\n              swap1\n              sub\n              0x1f\n              and\n              dup3\n              add\n              swap2\n            tag_48:\n              pop\n              pop\n              pop\n              pop\n              pop\n              swap1\n              pop\n              dup3\n              jump\t// out\n                /* \"contracts/SimpleStorage.sol\":1028:1119  function multilply(uint256 a) public pure returns (uint256) {... */\n            tag_33:\n                /* \"contracts/SimpleStorage.sol\":1079:1086  uint256 */\n              0x00\n                /* \"contracts/SimpleStorage.sol\":1109:1110  a */\n              dup2\n                /* \"contracts/SimpleStorage.sol\":1107:1108  a */\n              dup3\n                /* \"contracts/SimpleStorage.sol\":1107:1110  a*a */\n              tag_52\n              swap2\n              swap1\n              tag_53\n              jump\t// in\n            tag_52:\n                /* \"contracts/SimpleStorage.sol\":1099:1111  return (a*a) */\n              swap1\n              pop\n                /* \"contracts/SimpleStorage.sol\":1028:1119  function multilply(uint256 a) public pure returns (uint256) {... */\n              swap2\n              swap1\n              pop\n              jump\t// out\n                /* \"#utility.yul\":7:84   */\n            tag_54:\n                /* \"#utility.yul\":44:51   */\n              0x00\n                /* \"#utility.yul\":73:78   */\n              dup2\n                /* \"#utility.yul\":62:78   */\n              swap1\n              pop\n                /* \"#utility.yul\":7:84   */\n              swap2\n              swap1\n              pop\n              jump\t// out\n                /* \"#utility.yul\":90:208   */\n            tag_55:\n                /* \"#utility.yul\":177:201   */\n              tag_97\n                /* \"#utility.yul\":195:200   */\n              dup2\n                /* \"#utility.yul\":177:201   */\n              tag_54\n              jump\t// in\n            tag_97:\n                /* \"#utility.yul\":172:175   */\n              dup3\n                /* \"#utility.yul\":165:202   */\n              mstore\n                /* \"#utility.yul\":90:208   */\n              pop\n              pop\n              jump\t// out\n                /* \"#utility.yul\":214:436   */\n            tag_12:\n                /* \"#utility.yul\":307:311   */\n              0x00\n                /* \"#utility.yul\":345:347   */\n              0x20\n                /* \"#utility.yul\":334:343   */\n              dup3\n                /* \"#utility.yul\":330:348   */\n              add\n                /* \"#utility.yul\":322:348   */\n              swap1\n              pop\n                /* \"#utility.yul\":358:429   */\n              tag_99\n                /* \"#utility.yul\":426:427   */\n              0x00\n                /* \"#utility.yul\":415:424   */\n              dup4\n                /* \"#utility.yul\":411:428   */\n              add\n                /* \"#utility.yul\":402:408   */\n              dup5\n                /* \"#utility.yul\":358:429   */\n              tag_55\n              jump\t// in\n            tag_99:\n                /* \"#utility.yul\":214:436   */\n              swap3\n              swap2\n              pop\n              pop\n              jump\t// out\n                /* \"#utility.yul\":442:517   */\n            tag_56:\n                /* \"#utility.yul\":475:481   */\n              0x00\n                /* \"#utility.yul\":508:510   */\n              0x40\n                /* \"#utility.yul\":502:511   */\n              mload\n                /* \"#utility.yul\":492:511   */\n              swap1\n              pop\n                /* \"#utility.yul\":442:517   */\n              swap1\n              jump\t// out\n                /* \"#utility.yul\":523:640   */\n            tag_57:\n                /* \"#utility.yul\":632:633   */\n              0x00\n                /* \"#utility.yul\":629:630   */\n              dup1\n                /* \"#utility.yul\":622:634   */\n              revert\n                /* \"#utility.yul\":646:763   */\n            tag_58:\n                /* \"#utility.yul\":755:756   */\n              0x00\n                /* \"#utility.yul\":752:753   */\n              dup1\n                /* \"#utility.yul\":745:757   */\n              revert\n                /* \"#utility.yul\":769:886   */\n            tag_59:\n                /* \"#utility.yul\":878:879   */\n              0x00\n                /* \"#utility.yul\":875:876   */\n              dup1\n                /* \"#utility.yul\":868:880   */\n              revert\n                /* \"#utility.yul\":892:1009   */\n            tag_60:\n                /* \"#utility.yul\":1001:1002   */\n              0x00\n                /* \"#utility.yul\":998:999   */\n              dup1\n                /* \"#utility.yul\":991:1003   */\n              revert\n                /* \"#utility.yul\":1015:1117   */\n            tag_61:\n                /* \"#utility.yul\":1056:1062   */\n              0x00\n                /* \"#utility.yul\":1107:1109   */\n              0x1f\n                /* \"#utility.yul\":1103:1110   */\n              not\n                /* \"#utility.yul\":1098:1100   */\n              0x1f\n                /* \"#utility.yul\":1091:1096   */\n              dup4\n                /* \"#utility.yul\":1087:1101   */\n              add\n                /* \"#utility.yul\":1083:1111   */\n              and\n                /* \"#utility.yul\":1073:1111   */\n              swap1\n              pop\n                /* \"#utility.yul\":1015:1117   */\n              swap2\n              swap1\n              pop\n              jump\t// out\n                /* \"#utility.yul\":1123:1303   */\n            tag_62:\n                /* \"#utility.yul\":1171:1248   */\n              0x4e487b7100000000000000000000000000000000000000000000000000000000\n                /* \"#utility.yul\":1168:1169   */\n              0x00\n                /* \"#utility.yul\":1161:1249   */\n              mstore\n                /* \"#utility.yul\":1268:1272   */\n              0x41\n                /* \"#utility.yul\":1265:1266   */\n              0x04\n                /* \"#utility.yul\":1258:1273   */\n              mstore\n                /* \"#utility.yul\":1292:1296   */\n              0x24\n                /* \"#utility.yul\":1289:1290   */\n              0x00\n                /* \"#utility.yul\":1282:1297   */\n              revert\n                /* \"#utility.yul\":1309:1590   */\n            tag_63:\n                /* \"#utility.yul\":1392:1419   */\n              tag_108\n                /* \"#utility.yul\":1414:1418   */\n              dup3\n                /* \"#utility.yul\":1392:1419   */\n              tag_61\n              jump\t// in\n            tag_108:\n                /* \"#utility.yul\":1384:1390   */\n              dup2\n                /* \"#utility.yul\":1380:1420   */\n              add\n                /* \"#utility.yul\":1522:1528   */\n              dup2\n                /* \"#utility.yul\":1510:1520   */\n              dup2\n                /* \"#utility.yul\":1507:1529   */\n              lt\n                /* \"#utility.yul\":1486:1504   */\n              0xffffffffffffffff\n                /* \"#utility.yul\":1474:1484   */\n              dup3\n                /* \"#utility.yul\":1471:1505   */\n              gt\n                /* \"#utility.yul\":1468:1530   */\n              or\n                /* \"#utility.yul\":1465:1553   */\n              iszero\n              tag_109\n              jumpi\n                /* \"#utility.yul\":1533:1551   */\n              tag_110\n              tag_62\n              jump\t// in\n            tag_110:\n                /* \"#utility.yul\":1465:1553   */\n            tag_109:\n                /* \"#utility.yul\":1573:1583   */\n              dup1\n                /* \"#utility.yul\":1569:1571   */\n              0x40\n                /* \"#utility.yul\":1562:1584   */\n              mstore\n                /* \"#utility.yul\":1352:1590   */\n              pop\n                /* \"#utility.yul\":1309:1590   */\n              pop\n              pop\n              jump\t// out\n                /* \"#utility.yul\":1596:1725   */\n            tag_64:\n                /* \"#utility.yul\":1630:1636   */\n              0x00\n                /* \"#utility.yul\":1657:1677   */\n              tag_112\n              tag_56\n              jump\t// in\n            tag_112:\n                /* \"#utility.yul\":1647:1677   */\n              swap1\n              pop\n                /* \"#utility.yul\":1686:1719   */\n              tag_113\n                /* \"#utility.yul\":1714:1718   */\n              dup3\n                /* \"#utility.yul\":1706:1712   */\n              dup3\n                /* \"#utility.yul\":1686:1719   */\n              tag_63\n              jump\t// in\n            tag_113:\n                /* \"#utility.yul\":1596:1725   */\n              swap2\n              swap1\n              pop\n              jump\t// out\n                /* \"#utility.yul\":1731:2039   */\n            tag_65:\n                /* \"#utility.yul\":1793:1797   */\n              0x00\n                /* \"#utility.yul\":1883:1901   */\n              0xffffffffffffffff\n                /* \"#utility.yul\":1875:1881   */\n              dup3\n                /* \"#utility.yul\":1872:1902   */\n              gt\n                /* \"#utility.yul\":1869:1925   */\n              iszero\n              tag_115\n              jumpi\n                /* \"#utility.yul\":1905:1923   */\n              tag_116\n              tag_62\n              jump\t// in\n            tag_116:\n                /* \"#utility.yul\":1869:1925   */\n            tag_115:\n                /* \"#utility.yul\":1943:1972   */\n              tag_117\n                /* \"#utility.yul\":1965:1971   */\n              dup3\n                /* \"#utility.yul\":1943:1972   */\n              tag_61\n              jump\t// in\n            tag_117:\n                /* \"#utility.yul\":1935:1972   */\n              swap1\n              pop\n                /* \"#utility.yul\":2027:2031   */\n              0x20\n                /* \"#utility.yul\":2021:2025   */\n              dup2\n                /* \"#utility.yul\":2017:2032   */\n              add\n                /* \"#utility.yul\":2009:2032   */\n              swap1\n              pop\n                /* \"#utility.yul\":1731:2039   */\n              swap2\n              swap1\n              pop\n              jump\t// out\n                /* \"#utility.yul\":2045:2193   */\n            tag_66:\n                /* \"#utility.yul\":2143:2149   */\n              dup3\n                /* \"#utility.yul\":2138:2141   */\n              dup2\n                /* \"#utility.yul\":2133:2136   */\n              dup4\n                /* \"#utility.yul\":2120:2150   */\n              calldatacopy\n                /* \"#utility.yul\":2184:2185   */\n              0x00\n                /* \"#utility.yul\":2175:2181   */\n              dup4\n                /* \"#utility.yul\":2170:2173   */\n              dup4\n                /* \"#utility.yul\":2166:2182   */\n              add\n                /* \"#utility.yul\":2159:2186   */\n              mstore\n                /* \"#utility.yul\":2045:2193   */\n              pop\n              pop\n              pop\n              jump\t// out\n                /* \"#utility.yul\":2199:2624   */\n            tag_67:\n                /* \"#utility.yul\":2277:2282   */\n              0x00\n                /* \"#utility.yul\":2302:2368   */\n              tag_120\n                /* \"#utility.yul\":2318:2367   */\n              tag_121\n                /* \"#utility.yul\":2360:2366   */\n              dup5\n                /* \"#utility.yul\":2318:2367   */\n              tag_65\n              jump\t// in\n            tag_121:\n                /* \"#utility.yul\":2302:2368   */\n              tag_64\n              jump\t// in\n            tag_120:\n                /* \"#utility.yul\":2293:2368   */\n              swap1\n              pop\n                /* \"#utility.yul\":2391:2397   */\n              dup3\n                /* \"#utility.yul\":2384:2389   */\n              dup2\n                /* \"#utility.yul\":2377:2398   */\n              mstore\n                /* \"#utility.yul\":2429:2433   */\n              0x20\n                /* \"#utility.yul\":2422:2427   */\n              dup2\n                /* \"#utility.yul\":2418:2434   */\n              add\n                /* \"#utility.yul\":2467:2470   */\n              dup5\n                /* \"#utility.yul\":2458:2464   */\n              dup5\n                /* \"#utility.yul\":2453:2456   */\n              dup5\n                /* \"#utility.yul\":2449:2465   */\n              add\n                /* \"#utility.yul\":2446:2471   */\n              gt\n                /* \"#utility.yul\":2443:2555   */\n              iszero\n              tag_122\n              jumpi\n                /* \"#utility.yul\":2474:2553   */\n              tag_123\n              tag_60\n              jump\t// in\n            tag_123:\n                /* \"#utility.yul\":2443:2555   */\n            tag_122:\n                /* \"#utility.yul\":2564:2618   */\n              tag_124\n                /* \"#utility.yul\":2611:2617   */\n              dup5\n                /* \"#utility.yul\":2606:2609   */\n              dup3\n                /* \"#utility.yul\":2601:2604   */\n              dup6\n                /* \"#utility.yul\":2564:2618   */\n              tag_66\n              jump\t// in\n            tag_124:\n                /* \"#utility.yul\":2283:2624   */\n              pop\n                /* \"#utility.yul\":2199:2624   */\n              swap4\n              swap3\n              pop\n              pop\n              pop\n              jump\t// out\n                /* \"#utility.yul\":2644:2984   */\n            tag_68:\n                /* \"#utility.yul\":2700:2705   */\n              0x00\n                /* \"#utility.yul\":2749:2752   */\n              dup3\n                /* \"#utility.yul\":2742:2746   */\n              0x1f\n                /* \"#utility.yul\":2734:2740   */\n              dup4\n                /* \"#utility.yul\":2730:2747   */\n              add\n                /* \"#utility.yul\":2726:2753   */\n              slt\n                /* \"#utility.yul\":2716:2838   */\n              tag_126\n              jumpi\n                /* \"#utility.yul\":2757:2836   */\n              tag_127\n              tag_59\n              jump\t// in\n            tag_127:\n                /* \"#utility.yul\":2716:2838   */\n            tag_126:\n                /* \"#utility.yul\":2874:2880   */\n              dup2\n                /* \"#utility.yul\":2861:2881   */\n              calldataload\n                /* \"#utility.yul\":2899:2978   */\n              tag_128\n                /* \"#utility.yul\":2974:2977   */\n              dup5\n                /* \"#utility.yul\":2966:2972   */\n              dup3\n                /* \"#utility.yul\":2959:2963   */\n              0x20\n                /* \"#utility.yul\":2951:2957   */\n              dup7\n                /* \"#utility.yul\":2947:2964   */\n              add\n                /* \"#utility.yul\":2899:2978   */\n              tag_67\n              jump\t// in\n            tag_128:\n                /* \"#utility.yul\":2890:2978   */\n              swap2\n              pop\n                /* \"#utility.yul\":2706:2984   */\n              pop\n                /* \"#utility.yul\":2644:2984   */\n              swap3\n              swap2\n              pop\n              pop\n              jump\t// out\n                /* \"#utility.yul\":2990:3499   */\n            tag_15:\n                /* \"#utility.yul\":3059:3065   */\n              0x00\n                /* \"#utility.yul\":3108:3110   */\n              0x20\n                /* \"#utility.yul\":3096:3105   */\n              dup3\n                /* \"#utility.yul\":3087:3094   */\n              dup5\n                /* \"#utility.yul\":3083:3106   */\n              sub\n                /* \"#utility.yul\":3079:3111   */\n              slt\n                /* \"#utility.yul\":3076:3195   */\n              iszero\n              tag_130\n              jumpi\n                /* \"#utility.yul\":3114:3193   */\n              tag_131\n              tag_57\n              jump\t// in\n            tag_131:\n                /* \"#utility.yul\":3076:3195   */\n            tag_130:\n                /* \"#utility.yul\":3262:3263   */\n              0x00\n                /* \"#utility.yul\":3251:3260   */\n              dup3\n                /* \"#utility.yul\":3247:3264   */\n              add\n                /* \"#utility.yul\":3234:3265   */\n              calldataload\n                /* \"#utility.yul\":3292:3310   */\n              0xffffffffffffffff\n                /* \"#utility.yul\":3284:3290   */\n              dup2\n                /* \"#utility.yul\":3281:3311   */\n              gt\n                /* \"#utility.yul\":3278:3395   */\n              iszero\n              tag_132\n              jumpi\n                /* \"#utility.yul\":3314:3393   */\n              tag_133\n              tag_58\n              jump\t// in\n            tag_133:\n                /* \"#utility.yul\":3278:3395   */\n            tag_132:\n                /* \"#utility.yul\":3419:3482   */\n              tag_134\n                /* \"#utility.yul\":3474:3481   */\n              dup5\n                /* \"#utility.yul\":3465:3471   */\n              dup3\n                /* \"#utility.yul\":3454:3463   */\n              dup6\n                /* \"#utility.yul\":3450:3472   */\n              add\n                /* \"#utility.yul\":3419:3482   */\n              tag_68\n              jump\t// in\n            tag_134:\n                /* \"#utility.yul\":3409:3482   */\n              swap2\n              pop\n                /* \"#utility.yul\":3205:3492   */\n              pop\n                /* \"#utility.yul\":2990:3499   */\n              swap3\n              swap2\n              pop\n              pop\n              jump\t// out\n                /* \"#utility.yul\":3505:3627   */\n            tag_69:\n                /* \"#utility.yul\":3578:3602   */\n              tag_136\n                /* \"#utility.yul\":3596:3601   */\n              dup2\n                /* \"#utility.yul\":3578:3602   */\n              tag_54\n              jump\t// in\n            tag_136:\n                /* \"#utility.yul\":3571:3576   */\n              dup2\n                /* \"#utility.yul\":3568:3603   */\n              eq\n                /* \"#utility.yul\":3558:3621   */\n              tag_137\n              jumpi\n                /* \"#utility.yul\":3617:3618   */\n              0x00\n                /* \"#utility.yul\":3614:3615   */\n              dup1\n                /* \"#utility.yul\":3607:3619   */\n              revert\n                /* \"#utility.yul\":3558:3621   */\n            tag_137:\n                /* \"#utility.yul\":3505:3627   */\n              pop\n              jump\t// out\n                /* \"#utility.yul\":3633:3772   */\n            tag_70:\n                /* \"#utility.yul\":3679:3684   */\n              0x00\n                /* \"#utility.yul\":3717:3723   */\n              dup2\n                /* \"#utility.yul\":3704:3724   */\n              calldataload\n                /* \"#utility.yul\":3695:3724   */\n              swap1\n              pop\n                /* \"#utility.yul\":3733:3766   */\n              tag_139\n                /* \"#utility.yul\":3760:3765   */\n              dup2\n                /* \"#utility.yul\":3733:3766   */\n              tag_69\n              jump\t// in\n            tag_139:\n                /* \"#utility.yul\":3633:3772   */\n              swap3\n              swap2\n              pop\n              pop\n              jump\t// out\n                /* \"#utility.yul\":3778:4107   */\n            tag_20:\n                /* \"#utility.yul\":3837:3843   */\n              0x00\n                /* \"#utility.yul\":3886:3888   */\n              0x20\n                /* \"#utility.yul\":3874:3883   */\n              dup3\n                /* \"#utility.yul\":3865:3872   */\n              dup5\n                /* \"#utility.yul\":3861:3884   */\n              sub\n                /* \"#utility.yul\":3857:3889   */\n              slt\n                /* \"#utility.yul\":3854:3973   */\n              iszero\n              tag_141\n              jumpi\n                /* \"#utility.yul\":3892:3971   */\n              tag_142\n              tag_57\n              jump\t// in\n            tag_142:\n                /* \"#utility.yul\":3854:3973   */\n            tag_141:\n                /* \"#utility.yul\":4012:4013   */\n              0x00\n                /* \"#utility.yul\":4037:4090   */\n              tag_143\n                /* \"#utility.yul\":4082:4089   */\n              dup5\n                /* \"#utility.yul\":4073:4079   */\n              dup3\n                /* \"#utility.yul\":4062:4071   */\n              dup6\n                /* \"#utility.yul\":4058:4080   */\n              add\n                /* \"#utility.yul\":4037:4090   */\n              tag_70\n              jump\t// in\n            tag_143:\n                /* \"#utility.yul\":4027:4090   */\n              swap2\n              pop\n                /* \"#utility.yul\":3983:4100   */\n              pop\n                /* \"#utility.yul\":3778:4107   */\n              swap3\n              swap2\n              pop\n              pop\n              jump\t// out\n                /* \"#utility.yul\":4113:4767   */\n            tag_24:\n                /* \"#utility.yul\":4191:4197   */\n              0x00\n                /* \"#utility.yul\":4199:4205   */\n              dup1\n                /* \"#utility.yul\":4248:4250   */\n              0x40\n                /* \"#utility.yul\":4236:4245   */\n              dup4\n                /* \"#utility.yul\":4227:4234   */\n              dup6\n                /* \"#utility.yul\":4223:4246   */\n              sub\n                /* \"#utility.yul\":4219:4251   */\n              slt\n                /* \"#utility.yul\":4216:4335   */\n              iszero\n              tag_145\n              jumpi\n                /* \"#utility.yul\":4254:4333   */\n              tag_146\n              tag_57\n              jump\t// in\n            tag_146:\n                /* \"#utility.yul\":4216:4335   */\n            tag_145:\n                /* \"#utility.yul\":4402:4403   */\n              0x00\n                /* \"#utility.yul\":4391:4400   */\n              dup4\n                /* \"#utility.yul\":4387:4404   */\n              add\n                /* \"#utility.yul\":4374:4405   */\n              calldataload\n                /* \"#utility.yul\":4432:4450   */\n              0xffffffffffffffff\n                /* \"#utility.yul\":4424:4430   */\n              dup2\n                /* \"#utility.yul\":4421:4451   */\n              gt\n                /* \"#utility.yul\":4418:4535   */\n              iszero\n              tag_147\n              jumpi\n                /* \"#utility.yul\":4454:4533   */\n              tag_148\n              tag_58\n              jump\t// in\n            tag_148:\n                /* \"#utility.yul\":4418:4535   */\n            tag_147:\n                /* \"#utility.yul\":4559:4622   */\n              tag_149\n                /* \"#utility.yul\":4614:4621   */\n              dup6\n                /* \"#utility.yul\":4605:4611   */\n              dup3\n                /* \"#utility.yul\":4594:4603   */\n              dup7\n                /* \"#utility.yul\":4590:4612   */\n              add\n                /* \"#utility.yul\":4559:4622   */\n              tag_68\n              jump\t// in\n            tag_149:\n                /* \"#utility.yul\":4549:4622   */\n              swap3\n              pop\n                /* \"#utility.yul\":4345:4632   */\n              pop\n                /* \"#utility.yul\":4671:4673   */\n              0x20\n                /* \"#utility.yul\":4697:4750   */\n              tag_150\n                /* \"#utility.yul\":4742:4749   */\n              dup6\n                /* \"#utility.yul\":4733:4739   */\n              dup3\n                /* \"#utility.yul\":4722:4731   */\n              dup7\n                /* \"#utility.yul\":4718:4740   */\n              add\n                /* \"#utility.yul\":4697:4750   */\n              tag_70\n              jump\t// in\n            tag_150:\n                /* \"#utility.yul\":4687:4750   */\n              swap2\n              pop\n                /* \"#utility.yul\":4642:4760   */\n              pop\n                /* \"#utility.yul\":4113:4767   */\n              swap3\n              pop\n              swap3\n              swap1\n              pop\n              jump\t// out\n                /* \"#utility.yul\":4773:4872   */\n            tag_71:\n                /* \"#utility.yul\":4825:4831   */\n              0x00\n                /* \"#utility.yul\":4859:4864   */\n              dup2\n                /* \"#utility.yul\":4853:4865   */\n              mload\n                /* \"#utility.yul\":4843:4865   */\n              swap1\n              pop\n                /* \"#utility.yul\":4773:4872   */\n              swap2\n              swap1\n              pop\n              jump\t// out\n                /* \"#utility.yul\":4878:5047   */\n            tag_72:\n                /* \"#utility.yul\":4962:4973   */\n              0x00\n                /* \"#utility.yul\":4996:5002   */\n              dup3\n                /* \"#utility.yul\":4991:4994   */\n              dup3\n                /* \"#utility.yul\":4984:5003   */\n              mstore\n                /* \"#utility.yul\":5036:5040   */\n              0x20\n                /* \"#utility.yul\":5031:5034   */\n              dup3\n                /* \"#utility.yul\":5027:5041   */\n              add\n                /* \"#utility.yul\":5012:5041   */\n              swap1\n              pop\n                /* \"#utility.yul\":4878:5047   */\n              swap3\n              swap2\n              pop\n              pop\n              jump\t// out\n                /* \"#utility.yul\":5053:5192   */\n            tag_73:\n                /* \"#utility.yul\":5142:5148   */\n              dup3\n                /* \"#utility.yul\":5137:5140   */\n              dup2\n                /* \"#utility.yul\":5132:5135   */\n              dup4\n                /* \"#utility.yul\":5126:5149   */\n              mcopy\n                /* \"#utility.yul\":5183:5184   */\n              0x00\n                /* \"#utility.yul\":5174:5180   */\n              dup4\n                /* \"#utility.yul\":5169:5172   */\n              dup4\n                /* \"#utility.yul\":5165:5181   */\n              add\n                /* \"#utility.yul\":5158:5185   */\n              mstore\n                /* \"#utility.yul\":5053:5192   */\n              pop\n              pop\n              pop\n              jump\t// out\n                /* \"#utility.yul\":5198:5575   */\n            tag_74:\n                /* \"#utility.yul\":5286:5289   */\n              0x00\n                /* \"#utility.yul\":5314:5353   */\n              tag_155\n                /* \"#utility.yul\":5347:5352   */\n              dup3\n                /* \"#utility.yul\":5314:5353   */\n              tag_71\n              jump\t// in\n            tag_155:\n                /* \"#utility.yul\":5369:5440   */\n              tag_156\n                /* \"#utility.yul\":5433:5439   */\n              dup2\n                /* \"#utility.yul\":5428:5431   */\n              dup6\n                /* \"#utility.yul\":5369:5440   */\n              tag_72\n              jump\t// in\n            tag_156:\n                /* \"#utility.yul\":5362:5440   */\n              swap4\n              pop\n                /* \"#utility.yul\":5449:5514   */\n              tag_157\n                /* \"#utility.yul\":5507:5513   */\n              dup2\n                /* \"#utility.yul\":5502:5505   */\n              dup6\n                /* \"#utility.yul\":5495:5499   */\n              0x20\n                /* \"#utility.yul\":5488:5493   */\n              dup7\n                /* \"#utility.yul\":5484:5500   */\n              add\n                /* \"#utility.yul\":5449:5514   */\n              tag_73\n              jump\t// in\n            tag_157:\n                /* \"#utility.yul\":5539:5568   */\n              tag_158\n                /* \"#utility.yul\":5561:5567   */\n              dup2\n                /* \"#utility.yul\":5539:5568   */\n              tag_61\n              jump\t// in\n            tag_158:\n                /* \"#utility.yul\":5534:5537   */\n              dup5\n                /* \"#utility.yul\":5530:5569   */\n              add\n                /* \"#utility.yul\":5523:5569   */\n              swap2\n              pop\n                /* \"#utility.yul\":5290:5575   */\n              pop\n                /* \"#utility.yul\":5198:5575   */\n              swap3\n              swap2\n              pop\n              pop\n              jump\t// out\n                /* \"#utility.yul\":5581:6004   */\n            tag_30:\n                /* \"#utility.yul\":5722:5726   */\n              0x00\n                /* \"#utility.yul\":5760:5762   */\n              0x40\n                /* \"#utility.yul\":5749:5758   */\n              dup3\n                /* \"#utility.yul\":5745:5763   */\n              add\n                /* \"#utility.yul\":5737:5763   */\n              swap1\n              pop\n                /* \"#utility.yul\":5773:5844   */\n              tag_160\n                /* \"#utility.yul\":5841:5842   */\n              0x00\n                /* \"#utility.yul\":5830:5839   */\n              dup4\n                /* \"#utility.yul\":5826:5843   */\n              add\n                /* \"#utility.yul\":5817:5823   */\n              dup6\n                /* \"#utility.yul\":5773:5844   */\n              tag_55\n              jump\t// in\n            tag_160:\n                /* \"#utility.yul\":5891:5900   */\n              dup2\n                /* \"#utility.yul\":5885:5889   */\n              dup2\n                /* \"#utility.yul\":5881:5901   */\n              sub\n                /* \"#utility.yul\":5876:5878   */\n              0x20\n                /* \"#utility.yul\":5865:5874   */\n              dup4\n                /* \"#utility.yul\":5861:5879   */\n              add\n                /* \"#utility.yul\":5854:5902   */\n              mstore\n                /* \"#utility.yul\":5919:5997   */\n              tag_161\n                /* \"#utility.yul\":5992:5996   */\n              dup2\n                /* \"#utility.yul\":5983:5989   */\n              dup5\n                /* \"#utility.yul\":5919:5997   */\n              tag_74\n              jump\t// in\n            tag_161:\n                /* \"#utility.yul\":5911:5997   */\n              swap1\n              pop\n                /* \"#utility.yul\":5581:6004   */\n              swap4\n              swap3\n              pop\n              pop\n              pop\n              jump\t// out\n                /* \"#utility.yul\":6010:6190   */\n            tag_75:\n                /* \"#utility.yul\":6058:6135   */\n              0x4e487b7100000000000000000000000000000000000000000000000000000000\n                /* \"#utility.yul\":6055:6056   */\n              0x00\n                /* \"#utility.yul\":6048:6136   */\n              mstore\n                /* \"#utility.yul\":6155:6159   */\n              0x22\n                /* \"#utility.yul\":6152:6153   */\n              0x04\n                /* \"#utility.yul\":6145:6160   */\n              mstore\n                /* \"#utility.yul\":6179:6183   */\n              0x24\n                /* \"#utility.yul\":6176:6177   */\n              0x00\n                /* \"#utility.yul\":6169:6184   */\n              revert\n                /* \"#utility.yul\":6196:6516   */\n            tag_46:\n                /* \"#utility.yul\":6240:6246   */\n              0x00\n                /* \"#utility.yul\":6277:6278   */\n              0x02\n                /* \"#utility.yul\":6271:6275   */\n              dup3\n                /* \"#utility.yul\":6267:6279   */\n              div\n                /* \"#utility.yul\":6257:6279   */\n              swap1\n              pop\n                /* \"#utility.yul\":6324:6325   */\n              0x01\n                /* \"#utility.yul\":6318:6322   */\n              dup3\n                /* \"#utility.yul\":6314:6326   */\n              and\n                /* \"#utility.yul\":6345:6363   */\n              dup1\n                /* \"#utility.yul\":6335:6416   */\n              tag_164\n              jumpi\n                /* \"#utility.yul\":6401:6405   */\n              0x7f\n                /* \"#utility.yul\":6393:6399   */\n              dup3\n                /* \"#utility.yul\":6389:6406   */\n              and\n                /* \"#utility.yul\":6379:6406   */\n              swap2\n              pop\n                /* \"#utility.yul\":6335:6416   */\n            tag_164:\n                /* \"#utility.yul\":6463:6465   */\n              0x20\n                /* \"#utility.yul\":6455:6461   */\n              dup3\n                /* \"#utility.yul\":6452:6466   */\n              lt\n                /* \"#utility.yul\":6432:6450   */\n              dup2\n                /* \"#utility.yul\":6429:6467   */\n              sub\n                /* \"#utility.yul\":6426:6510   */\n              tag_165\n              jumpi\n                /* \"#utility.yul\":6482:6500   */\n              tag_166\n              tag_75\n              jump\t// in\n            tag_166:\n                /* \"#utility.yul\":6426:6510   */\n            tag_165:\n                /* \"#utility.yul\":6247:6516   */\n              pop\n                /* \"#utility.yul\":6196:6516   */\n              swap2\n              swap1\n              pop\n              jump\t// out\n                /* \"#utility.yul\":6522:6663   */\n            tag_76:\n                /* \"#utility.yul\":6571:6575   */\n              0x00\n                /* \"#utility.yul\":6594:6597   */\n              dup2\n                /* \"#utility.yul\":6586:6597   */\n              swap1\n              pop\n                /* \"#utility.yul\":6617:6620   */\n              dup2\n                /* \"#utility.yul\":6614:6615   */\n              0x00\n                /* \"#utility.yul\":6607:6621   */\n              mstore\n                /* \"#utility.yul\":6651:6655   */\n              0x20\n                /* \"#utility.yul\":6648:6649   */\n              0x00\n                /* \"#utility.yul\":6638:6656   */\n              keccak256\n                /* \"#utility.yul\":6630:6656   */\n              swap1\n              pop\n                /* \"#utility.yul\":6522:6663   */\n              swap2\n              swap1\n              pop\n              jump\t// out\n                /* \"#utility.yul\":6669:6762   */\n            tag_77:\n                /* \"#utility.yul\":6706:6712   */\n              0x00\n                /* \"#utility.yul\":6753:6755   */\n              0x20\n                /* \"#utility.yul\":6748:6750   */\n              0x1f\n                /* \"#utility.yul\":6741:6746   */\n              dup4\n                /* \"#utility.yul\":6737:6751   */\n              add\n                /* \"#utility.yul\":6733:6756   */\n              div\n                /* \"#utility.yul\":6723:6756   */\n              swap1\n              pop\n                /* \"#utility.yul\":6669:6762   */\n              swap2\n              swap1\n              pop\n              jump\t// out\n                /* \"#utility.yul\":6768:6875   */\n            tag_78:\n                /* \"#utility.yul\":6812:6820   */\n              0x00\n                /* \"#utility.yul\":6862:6867   */\n              dup3\n                /* \"#utility.yul\":6856:6860   */\n              dup3\n                /* \"#utility.yul\":6852:6868   */\n              shl\n                /* \"#utility.yul\":6831:6868   */\n              swap1\n              pop\n                /* \"#utility.yul\":6768:6875   */\n              swap3\n              swap2\n              pop\n              pop\n              jump\t// out\n                /* \"#utility.yul\":6881:7274   */\n            tag_79:\n                /* \"#utility.yul\":6950:6956   */\n              0x00\n                /* \"#utility.yul\":7000:7001   */\n              0x08\n                /* \"#utility.yul\":6988:6998   */\n              dup4\n                /* \"#utility.yul\":6984:7002   */\n              mul\n                /* \"#utility.yul\":7023:7120   */\n              tag_171\n                /* \"#utility.yul\":7053:7119   */\n              0xffffffffffffffffffffffffffffffffffffffffffffffffffffffffffffffff\n                /* \"#utility.yul\":7042:7051   */\n              dup3\n                /* \"#utility.yul\":7023:7120   */\n              tag_78\n              jump\t// in\n            tag_171:\n                /* \"#utility.yul\":7141:7180   */\n              tag_172\n                /* \"#utility.yul\":7171:7179   */\n              dup7\n                /* \"#utility.yul\":7160:7169   */\n              dup4\n                /* \"#utility.yul\":7141:7180   */\n              tag_78\n              jump\t// in\n            tag_172:\n                /* \"#utility.yul\":7129:7180   */\n              swap6\n              pop\n                /* \"#utility.yul\":7213:7217   */\n              dup1\n                /* \"#utility.yul\":7209:7218   */\n              not\n                /* \"#utility.yul\":7202:7207   */\n              dup5\n                /* \"#utility.yul\":7198:7219   */\n              and\n                /* \"#utility.yul\":7189:7219   */\n              swap4\n              pop\n                /* \"#utility.yul\":7262:7266   */\n              dup1\n                /* \"#utility.yul\":7252:7260   */\n              dup7\n                /* \"#utility.yul\":7248:7267   */\n              and\n                /* \"#utility.yul\":7241:7246   */\n              dup5\n                /* \"#utility.yul\":7238:7268   */\n              or\n                /* \"#utility.yul\":7228:7268   */\n              swap3\n              pop\n                /* \"#utility.yul\":6957:7274   */\n              pop\n              pop\n                /* \"#utility.yul\":6881:7274   */\n              swap4\n              swap3\n              pop\n              pop\n              pop\n              jump\t// out\n                /* \"#utility.yul\":7280:7340   */\n            tag_80:\n                /* \"#utility.yul\":7308:7311   */\n              0x00\n                /* \"#utility.yul\":7329:7334   */\n              dup2\n                /* \"#utility.yul\":7322:7334   */\n              swap1\n              pop\n                /* \"#utility.yul\":7280:7340   */\n              swap2\n              swap1\n              pop\n              jump\t// out\n                /* \"#utility.yul\":7346:7488   */\n            tag_81:\n                /* \"#utility.yul\":7396:7405   */\n              0x00\n                /* \"#utility.yul\":7429:7482   */\n              tag_175\n                /* \"#utility.yul\":7447:7481   */\n              tag_176\n                /* \"#utility.yul\":7456:7480   */\n              tag_177\n                /* \"#utility.yul\":7474:7479   */\n              dup5\n                /* \"#utility.yul\":7456:7480   */\n              tag_54\n              jump\t// in\n            tag_177:\n                /* \"#utility.yul\":7447:7481   */\n              tag_80\n              jump\t// in\n            tag_176:\n                /* \"#utility.yul\":7429:7482   */\n              tag_54\n              jump\t// in\n            tag_175:\n                /* \"#utility.yul\":7416:7482   */\n              swap1\n              pop\n                /* \"#utility.yul\":7346:7488   */\n              swap2\n              swap1\n              pop\n              jump\t// out\n                /* \"#utility.yul\":7494:7569   */\n            tag_82:\n                /* \"#utility.yul\":7537:7540   */\n              0x00\n                /* \"#utility.yul\":7558:7563   */\n              dup2\n                /* \"#utility.yul\":7551:7563   */\n              swap1\n              pop\n                /* \"#utility.yul\":7494:7569   */\n              swap2\n              swap1\n              pop\n              jump\t// out\n                /* \"#utility.yul\":7575:7844   */\n            tag_83:\n                /* \"#utility.yul\":7685:7724   */\n              tag_180\n                /* \"#utility.yul\":7716:7723   */\n              dup4\n                /* \"#utility.yul\":7685:7724   */\n              tag_81\n              jump\t// in\n            tag_180:\n                /* \"#utility.yul\":7746:7837   */\n              tag_181\n                /* \"#utility.yul\":7795:7836   */\n              tag_182\n                /* \"#utility.yul\":7819:7835   */\n              dup3\n                /* \"#utility.yul\":7795:7836   */\n              tag_82\n              jump\t// in\n            tag_182:\n                /* \"#utility.yul\":7787:7793   */\n              dup5\n                /* \"#utility.yul\":7780:7784   */\n              dup5\n                /* \"#utility.yul\":7774:7785   */\n              sload\n                /* \"#utility.yul\":7746:7837   */\n              tag_79\n              jump\t// in\n            tag_181:\n                /* \"#utility.yul\":7740:7744   */\n              dup3\n                /* \"#utility.yul\":7733:7838   */\n              sstore\n                /* \"#utility.yul\":7651:7844   */\n              pop\n                /* \"#utility.yul\":7575:7844   */\n              pop\n              pop\n              pop\n              jump\t// out\n                /* \"#utility.yul\":7850:7923   */\n            tag_84:\n                /* \"#utility.yul\":7895:7898   */\n              0x00\n                /* \"#utility.yul\":7850:7923   */\n              swap1\n              jump\t// out\n                /* \"#utility.yul\":7929:8118   */\n            tag_85:\n                /* \"#utility.yul\":8006:8038   */\n              tag_185\n              tag_84\n              jump\t// in\n            tag_185:\n                /* \"#utility.yul\":8047:8112   */\n              tag_186\n                /* \"#utility.yul\":8105:8111   */\n              dup2\n                /* \"#utility.yul\":8097:8103   */\n              dup5\n                /* \"#utility.yul\":8091:8095   */\n              dup5\n                /* \"#utility.yul\":8047:8112   */\n              tag_83\n              jump\t// in\n            tag_186:\n                /* \"#utility.yul\":7982:8118   */\n              pop\n                /* \"#utility.yul\":7929:8118   */\n              pop\n              pop\n              jump\t// out\n                /* \"#utility.yul\":8124:8310   */\n            tag_86:\n                /* \"#utility.yul\":8184:8304   */\n            tag_188:\n                /* \"#utility.yul\":8201:8204   */\n              dup2\n                /* \"#utility.yul\":8194:8199   */\n              dup2\n                /* \"#utility.yul\":8191:8205   */\n              lt\n                /* \"#utility.yul\":8184:8304   */\n              iszero\n              tag_190\n              jumpi\n                /* \"#utility.yul\":8255:8294   */\n              tag_191\n                /* \"#utility.yul\":8292:8293   */\n              0x00\n                /* \"#utility.yul\":8285:8290   */\n              dup3\n                /* \"#utility.yul\":8255:8294   */\n              tag_85\n              jump\t// in\n            tag_191:\n                /* \"#utility.yul\":8228:8229   */\n              0x01\n                /* \"#utility.yul\":8221:8226   */\n              dup2\n                /* \"#utility.yul\":8217:8230   */\n              add\n                /* \"#utility.yul\":8208:8230   */\n              swap1\n              pop\n                /* \"#utility.yul\":8184:8304   */\n              jump(tag_188)\n            tag_190:\n                /* \"#utility.yul\":8124:8310   */\n              pop\n              pop\n              jump\t// out\n                /* \"#utility.yul\":8316:8859   */\n            tag_87:\n                /* \"#utility.yul\":8417:8419   */\n              0x1f\n                /* \"#utility.yul\":8412:8415   */\n              dup3\n                /* \"#utility.yul\":8409:8420   */\n              gt\n                /* \"#utility.yul\":8406:8852   */\n              iszero\n              tag_193\n              jumpi\n                /* \"#utility.yul\":8451:8489   */\n              tag_194\n                /* \"#utility.yul\":8483:8488   */\n              dup2\n                /* \"#utility.yul\":8451:8489   */\n              tag_76\n              jump\t// in\n            tag_194:\n                /* \"#utility.yul\":8535:8564   */\n              tag_195\n                /* \"#utility.yul\":8553:8563   */\n              dup5\n                /* \"#utility.yul\":8535:8564   */\n              tag_77\n              jump\t// in\n            tag_195:\n                /* \"#utility.yul\":8525:8533   */\n              dup2\n                /* \"#utility.yul\":8521:8565   */\n              add\n                /* \"#utility.yul\":8718:8720   */\n              0x20\n                /* \"#utility.yul\":8706:8716   */\n              dup6\n                /* \"#utility.yul\":8703:8721   */\n              lt\n                /* \"#utility.yul\":8700:8749   */\n              iszero\n              tag_196\n              jumpi\n                /* \"#utility.yul\":8739:8747   */\n              dup2\n                /* \"#utility.yul\":8724:8747   */\n              swap1\n              pop\n                /* \"#utility.yul\":8700:8749   */\n            tag_196:\n                /* \"#utility.yul\":8762:8842   */\n              tag_197\n                /* \"#utility.yul\":8818:8840   */\n              tag_198\n                /* \"#utility.yul\":8836:8839   */\n              dup6\n                /* \"#utility.yul\":8818:8840   */\n              tag_77\n              jump\t// in\n            tag_198:\n                /* \"#utility.yul\":8808:8816   */\n              dup4\n                /* \"#utility.yul\":8804:8841   */\n              add\n                /* \"#utility.yul\":8791:8802   */\n              dup3\n                /* \"#utility.yul\":8762:8842   */\n              tag_86\n              jump\t// in\n            tag_197:\n                /* \"#utility.yul\":8421:8852   */\n              pop\n              pop\n                /* \"#utility.yul\":8406:8852   */\n            tag_193:\n                /* \"#utility.yul\":8316:8859   */\n              pop\n              pop\n              pop\n              jump\t// out\n                /* \"#utility.yul\":8865:8982   */\n            tag_88:\n                /* \"#utility.yul\":8919:8927   */\n              0x00\n                /* \"#utility.yul\":8969:8974   */\n              dup3\n                /* \"#utility.yul\":8963:8967   */\n              dup3\n                /* \"#utility.yul\":8959:8975   */\n              shr\n                /* \"#utility.yul\":8938:8975   */\n              swap1\n              pop\n                /* \"#utility.yul\":8865:8982   */\n              swap3\n              swap2\n              pop\n              pop\n              jump\t// out\n                /* \"#utility.yul\":8988:9157   */\n            tag_89:\n                /* \"#utility.yul\":9032:9038   */\n              0x00\n                /* \"#utility.yul\":9065:9116   */\n              tag_201\n                /* \"#utility.yul\":9113:9114   */\n              0x00\n                /* \"#utility.yul\":9109:9115   */\n              not\n                /* \"#utility.yul\":9101:9106   */\n              dup5\n                /* \"#utility.yul\":9098:9099   */\n              0x08\n                /* \"#utility.yul\":9094:9107   */\n              mul\n                /* \"#utility.yul\":9065:9116   */\n              tag_88\n              jump\t// in\n            tag_201:\n                /* \"#utility.yul\":9061:9117   */\n              not\n                /* \"#utility.yul\":9146:9150   */\n              dup1\n                /* \"#utility.yul\":9140:9144   */\n              dup4\n                /* \"#utility.yul\":9136:9151   */\n              and\n                /* \"#utility.yul\":9126:9151   */\n              swap2\n              pop\n                /* \"#utility.yul\":9039:9157   */\n              pop\n                /* \"#utility.yul\":8988:9157   */\n              swap3\n              swap2\n              pop\n              pop\n              jump\t// out\n                /* \"#utility.yul\":9162:9457   */\n            tag_90:\n                /* \"#utility.yul\":9238:9242   */\n              0x00\n                /* \"#utility.yul\":9384:9413   */\n              tag_203\n                /* \"#utility.yul\":9409:9412   */\n              dup4\n                /* \"#utility.yul\":9403:9407   */\n              dup4\n                /* \"#utility.yul\":9384:9413   */\n              tag_89\n              jump\t// in\n            tag_203:\n                /* \"#utility.yul\":9376:9413   */\n              swap2\n              pop\n                /* \"#utility.yul\":9446:9449   */\n              dup3\n                /* \"#utility.yul\":9443:9444   */\n              0x02\n                /* \"#utility.yul\":9439:9450   */\n              mul\n                /* \"#utility.yul\":9433:9437   */\n              dup3\n                /* \"#utility.yul\":9430:9451   */\n              or\n                /* \"#utility.yul\":9422:9451   */\n              swap1\n              pop\n                /* \"#utility.yul\":9162:9457   */\n              swap3\n              swap2\n              pop\n              pop\n              jump\t// out\n                /* \"#utility.yul\":9462:10857   */\n            tag_40:\n                /* \"#utility.yul\":9579:9616   */\n              tag_205\n                /* \"#utility.yul\":9612:9615   */\n              dup3\n                /* \"#utility.yul\":9579:9616   */\n              tag_71\n              jump\t// in\n            tag_205:\n                /* \"#utility.yul\":9681:9699   */\n              0xffffffffffffffff\n                /* \"#utility.yul\":9673:9679   */\n              dup2\n                /* \"#utility.yul\":9670:9700   */\n              gt\n                /* \"#utility.yul\":9667:9723   */\n              iszero\n              tag_206\n              jumpi\n                /* \"#utility.yul\":9703:9721   */\n              tag_207\n              tag_62\n              jump\t// in\n            tag_207:\n                /* \"#utility.yul\":9667:9723   */\n            tag_206:\n                /* \"#utility.yul\":9747:9785   */\n              tag_208\n                /* \"#utility.yul\":9779:9783   */\n              dup3\n                /* \"#utility.yul\":9773:9784   */\n              sload\n                /* \"#utility.yul\":9747:9785   */\n              tag_46\n              jump\t// in\n            tag_208:\n                /* \"#utility.yul\":9832:9899   */\n              tag_209\n                /* \"#utility.yul\":9892:9898   */\n              dup3\n                /* \"#utility.yul\":9884:9890   */\n              dup3\n                /* \"#utility.yul\":9878:9882   */\n              dup6\n                /* \"#utility.yul\":9832:9899   */\n              tag_87\n              jump\t// in\n            tag_209:\n                /* \"#utility.yul\":9926:9927   */\n              0x00\n                /* \"#utility.yul\":9950:9954   */\n              0x20\n                /* \"#utility.yul\":9937:9954   */\n              swap1\n              pop\n                /* \"#utility.yul\":9982:9984   */\n              0x1f\n                /* \"#utility.yul\":9974:9980   */\n              dup4\n                /* \"#utility.yul\":9971:9985   */\n              gt\n                /* \"#utility.yul\":9999:10000   */\n              0x01\n                /* \"#utility.yul\":9994:10612   */\n              dup2\n              eq\n              tag_211\n              jumpi\n                /* \"#utility.yul\":10656:10657   */\n              0x00\n                /* \"#utility.yul\":10673:10679   */\n              dup5\n                /* \"#utility.yul\":10670:10747   */\n              iszero\n              tag_212\n              jumpi\n                /* \"#utility.yul\":10722:10731   */\n              dup3\n                /* \"#utility.yul\":10717:10720   */\n              dup8\n                /* \"#utility.yul\":10713:10732   */\n              add\n                /* \"#utility.yul\":10707:10733   */\n              mload\n                /* \"#utility.yul\":10698:10733   */\n              swap1\n              pop\n                /* \"#utility.yul\":10670:10747   */\n            tag_212:\n                /* \"#utility.yul\":10773:10840   */\n              tag_213\n                /* \"#utility.yul\":10833:10839   */\n              dup6\n                /* \"#utility.yul\":10826:10831   */\n              dup3\n                /* \"#utility.yul\":10773:10840   */\n              tag_90\n              jump\t// in\n            tag_213:\n                /* \"#utility.yul\":10767:10771   */\n              dup7\n                /* \"#utility.yul\":10760:10841   */\n              sstore\n                /* \"#utility.yul\":10629:10851   */\n              pop\n                /* \"#utility.yul\":9964:10851   */\n              jump(tag_210)\n                /* \"#utility.yul\":9994:10612   */\n            tag_211:\n                /* \"#utility.yul\":10046:10050   */\n              0x1f\n                /* \"#utility.yul\":10042:10051   */\n              not\n                /* \"#utility.yul\":10034:10040   */\n              dup5\n                /* \"#utility.yul\":10030:10052   */\n              and\n                /* \"#utility.yul\":10080:10117   */\n              tag_214\n                /* \"#utility.yul\":10112:10116   */\n              dup7\n                /* \"#utility.yul\":10080:10117   */\n              tag_76\n              jump\t// in\n            tag_214:\n                /* \"#utility.yul\":10139:10140   */\n              0x00\n                /* \"#utility.yul\":10153:10361   */\n            tag_215:\n                /* \"#utility.yul\":10167:10174   */\n              dup3\n                /* \"#utility.yul\":10164:10165   */\n              dup2\n                /* \"#utility.yul\":10161:10175   */\n              lt\n                /* \"#utility.yul\":10153:10361   */\n              iszero\n              tag_217\n              jumpi\n                /* \"#utility.yul\":10246:10255   */\n              dup5\n                /* \"#utility.yul\":10241:10244   */\n              dup10\n                /* \"#utility.yul\":10237:10256   */\n              add\n                /* \"#utility.yul\":10231:10257   */\n              mload\n                /* \"#utility.yul\":10223:10229   */\n              dup3\n                /* \"#utility.yul\":10216:10258   */\n              sstore\n                /* \"#utility.yul\":10297:10298   */\n              0x01\n                /* \"#utility.yul\":10289:10295   */\n              dup3\n                /* \"#utility.yul\":10285:10299   */\n              add\n                /* \"#utility.yul\":10275:10299   */\n              swap2\n              pop\n                /* \"#utility.yul\":10344:10346   */\n              0x20\n                /* \"#utility.yul\":10333:10342   */\n              dup6\n                /* \"#utility.yul\":10329:10347   */\n              add\n                /* \"#utility.yul\":10316:10347   */\n              swap5\n              pop\n                /* \"#utility.yul\":10190:10194   */\n              0x20\n                /* \"#utility.yul\":10187:10188   */\n              dup2\n                /* \"#utility.yul\":10183:10195   */\n              add\n                /* \"#utility.yul\":10178:10195   */\n              swap1\n              pop\n                /* \"#utility.yul\":10153:10361   */\n              jump(tag_215)\n            tag_217:\n                /* \"#utility.yul\":10389:10395   */\n              dup7\n                /* \"#utility.yul\":10380:10387   */\n              dup4\n                /* \"#utility.yul\":10377:10396   */\n              lt\n                /* \"#utility.yul\":10374:10553   */\n              iszero\n              tag_218\n              jumpi\n                /* \"#utility.yul\":10447:10456   */\n              dup5\n                /* \"#utility.yul\":10442:10445   */\n              dup10\n                /* \"#utility.yul\":10438:10457   */\n              add\n                /* \"#utility.yul\":10432:10458   */\n              mload\n                /* \"#utility.yul\":10490:10538   */\n              tag_219\n                /* \"#utility.yul\":10532:10536   */\n              0x1f\n                /* \"#utility.yul\":10524:10530   */\n              dup10\n                /* \"#utility.yul\":10520:10537   */\n              and\n                /* \"#utility.yul\":10509:10518   */\n              dup3\n                /* \"#utility.yul\":10490:10538   */\n              tag_89\n              jump\t// in\n            tag_219:\n                /* \"#utility.yul\":10482:10488   */\n              dup4\n                /* \"#utility.yul\":10475:10539   */\n              sstore\n                /* \"#utility.yul\":10397:10553   */\n              pop\n                /* \"#utility.yul\":10374:10553   */\n            tag_218:\n                /* \"#utility.yul\":10599:10600   */\n              0x01\n                /* \"#utility.yul\":10595:10596   */\n              0x02\n                /* \"#utility.yul\":10587:10593   */\n              dup9\n                /* \"#utility.yul\":10583:10597   */\n              mul\n                /* \"#utility.yul\":10579:10601   */\n              add\n                /* \"#utility.yul\":10573:10577   */\n              dup9\n                /* \"#utility.yul\":10566:10602   */\n              sstore\n                /* \"#utility.yul\":10001:10612   */\n              pop\n              pop\n              pop\n                /* \"#utility.yul\":9964:10851   */\n            tag_210:\n              pop\n                /* \"#utility.yul\":9554:10857   */\n              pop\n              pop\n              pop\n                /* \"#utility.yul\":9462:10857   */\n              pop\n              pop\n              jump\t// out\n                /* \"#utility.yul\":10863:11011   */\n            tag_91:\n                /* \"#utility.yul\":10965:10976   */\n              0x00\n                /* \"#utility.yul\":11002:11005   */\n              dup2\n                /* \"#utility.yul\":10987:11005   */\n              swap1\n              pop\n                /* \"#utility.yul\":10863:11011   */\n              swap3\n              swap2\n              pop\n              pop\n              jump\t// out\n                /* \"#utility.yul\":11017:11407   */\n            tag_92:\n                /* \"#utility.yul\":11123:11126   */\n              0x00\n                /* \"#utility.yul\":11151:11190   */\n              tag_222\n                /* \"#utility.yul\":11184:11189   */\n              dup3\n                /* \"#utility.yul\":11151:11190   */\n              tag_71\n              jump\t// in\n            tag_222:\n                /* \"#utility.yul\":11206:11295   */\n              tag_223\n                /* \"#utility.yul\":11288:11294   */\n              dup2\n                /* \"#utility.yul\":11283:11286   */\n              dup6\n                /* \"#utility.yul\":11206:11295   */\n              tag_91\n              jump\t// in\n            tag_223:\n                /* \"#utility.yul\":11199:11295   */\n              swap4\n              pop\n                /* \"#utility.yul\":11304:11369   */\n              tag_224\n                /* \"#utility.yul\":11362:11368   */\n              dup2\n                /* \"#utility.yul\":11357:11360   */\n              dup6\n                /* \"#utility.yul\":11350:11354   */\n              0x20\n                /* \"#utility.yul\":11343:11348   */\n              dup7\n                /* \"#utility.yul\":11339:11355   */\n              add\n                /* \"#utility.yul\":11304:11369   */\n              tag_73\n              jump\t// in\n            tag_224:\n                /* \"#utility.yul\":11394:11400   */\n              dup1\n                /* \"#utility.yul\":11389:11392   */\n              dup5\n                /* \"#utility.yul\":11385:11401   */\n              add\n                /* \"#utility.yul\":11378:11401   */\n              swap2\n              pop\n                /* \"#utility.yul\":11127:11407   */\n              pop\n                /* \"#utility.yul\":11017:11407   */\n              swap3\n              swap2\n              pop\n              pop\n              jump\t// out\n                /* \"#utility.yul\":11413:11688   */\n            tag_42:\n                /* \"#utility.yul\":11545:11548   */\n              0x00\n                /* \"#utility.yul\":11567:11662   */\n              tag_226\n                /* \"#utility.yul\":11658:11661   */\n              dup3\n                /* \"#utility.yul\":11649:11655   */\n              dup5\n                /* \"#utility.yul\":11567:11662   */\n              tag_92\n              jump\t// in\n            tag_226:\n                /* \"#utility.yul\":11560:11662   */\n              swap2\n              pop\n                /* \"#utility.yul\":11679:11682   */\n              dup2\n                /* \"#utility.yul\":11672:11682   */\n              swap1\n              pop\n                /* \"#utility.yul\":11413:11688   */\n              swap3\n              swap2\n              pop\n              pop\n              jump\t// out\n                /* \"#utility.yul\":11694:11874   */\n            tag_93:\n                /* \"#utility.yul\":11742:11819   */\n              0x4e487b7100000000000000000000000000000000000000000000000000000000\n                /* \"#utility.yul\":11739:11740   */\n              0x00\n                /* \"#utility.yul\":11732:11820   */\n              mstore\n                /* \"#utility.yul\":11839:11843   */\n              0x11\n                /* \"#utility.yul\":11836:11837   */\n              0x04\n                /* \"#utility.yul\":11829:11844   */\n              mstore\n                /* \"#utility.yul\":11863:11867   */\n              0x24\n                /* \"#utility.yul\":11860:11861   */\n              0x00\n                /* \"#utility.yul\":11853:11868   */\n              revert\n                /* \"#utility.yul\":11880:12290   */\n            tag_53:\n                /* \"#utility.yul\":11920:11927   */\n              0x00\n                /* \"#utility.yul\":11943:11963   */\n              tag_229\n                /* \"#utility.yul\":11961:11962   */\n              dup3\n                /* \"#utility.yul\":11943:11963   */\n              tag_54\n              jump\t// in\n            tag_229:\n                /* \"#utility.yul\":11938:11963   */\n              swap2\n              pop\n                /* \"#utility.yul\":11977:11997   */\n              tag_230\n                /* \"#utility.yul\":11995:11996   */\n              dup4\n                /* \"#utility.yul\":11977:11997   */\n              tag_54\n              jump\t// in\n            tag_230:\n                /* \"#utility.yul\":11972:11997   */\n              swap3\n              pop\n                /* \"#utility.yul\":12032:12033   */\n              dup3\n                /* \"#utility.yul\":12029:12030   */\n              dup3\n                /* \"#utility.yul\":12025:12034   */\n              mul\n                /* \"#utility.yul\":12054:12084   */\n              tag_231\n                /* \"#utility.yul\":12072:12083   */\n              dup2\n                /* \"#utility.yul\":12054:12084   */\n              tag_54\n              jump\t// in\n            tag_231:\n                /* \"#utility.yul\":12043:12084   */\n              swap2\n              pop\n                /* \"#utility.yul\":12233:12234   */\n              dup3\n                /* \"#utility.yul\":12224:12231   */\n              dup3\n                /* \"#utility.yul\":12220:12235   */\n              div\n                /* \"#utility.yul\":12217:12218   */\n              dup5\n                /* \"#utility.yul\":12214:12236   */\n              eq\n                /* \"#utility.yul\":12194:12195   */\n              dup4\n                /* \"#utility.yul\":12187:12196   */\n              iszero\n                /* \"#utility.yul\":12167:12250   */\n              or\n                /* \"#utility.yul\":12144:12283   */\n              tag_232\n              jumpi\n                /* \"#utility.yul\":12263:12281   */\n              tag_233\n              tag_93\n              jump\t// in\n            tag_233:\n                /* \"#utility.yul\":12144:12283   */\n            tag_232:\n                /* \"#utility.yul\":11928:12290   */\n              pop\n                /* \"#utility.yul\":11880:12290   */\n              swap3\n              swap2\n              pop\n              pop\n              jump\t// out\n\n            auxdata: 0xa2646970667358221220ac0117dd9a28ef00088c99f10fea355002d898c551ec77563fe84964b630ddea64736f6c634300081a0033\n        }\n    }\n\n    auxdata: 0xa26469706673582212209402fcbb733cfbdb11cac05ba335a11620cd96797a23de3e8d71e5e808a0b35864736f6c634300081a0033\n}\n",
				"bytecode": {
					"linkReferences": {},
					"object": "6080604052348015600e575f80fd5b50610ea78061001c5f395ff3fe608060405234801561000f575f80fd5b506004361061004a575f3560e01c80631563700f1461004e5780631dda65411461006a57806364591bf114610074578063c5f19c20146100a4575b5f80fd5b61006860048036038101906100639190610330565b6100d4565b005b610072610178565b005b61008e6004803603810190610089919061036e565b610203565b60405161009b9190610413565b60405180910390f35b6100be60048036038101906100b9919061036e565b61023d565b6040516100cb919061043b565b60405180910390f35b5f82815481106100e7576100e6610454565b5b905f5260205f20015f9054906101000a900473ffffffffffffffffffffffffffffffffffffffff1673ffffffffffffffffffffffffffffffffffffffff16636057361d826040518263ffffffff1660e01b8152600401610147919061043b565b5f604051808303815f87803b15801561015e575f80fd5b505af1158015610170573d5f803e3d5ffd5b505050505050565b5f604051610185906102ec565b604051809103905ff08015801561019e573d5f803e3d5ffd5b5090505f81908060018154018082558091505060019003905f5260205f20015f9091909190916101000a81548173ffffffffffffffffffffffffffffffffffffffff021916908373ffffffffffffffffffffffffffffffffffffffff16021790555050565b5f8181548110610211575f80fd5b905f5260205f20015f915054906101000a900473ffffffffffffffffffffffffffffffffffffffff1681565b5f80828154811061025157610250610454565b5b905f5260205f20015f9054906101000a900473ffffffffffffffffffffffffffffffffffffffff1673ffffffffffffffffffffffffffffffffffffffff16632e64cec16040518163ffffffff1660e01b8152600401602060405180830381865afa1580156102c1573d5f803e3d5ffd5b505050506040513d601f19601f820116820180604052508101906102e59190610495565b9050919050565b6109b1806104c183390190565b5f80fd5b5f819050919050565b61030f816102fd565b8114610319575f80fd5b50565b5f8135905061032a81610306565b92915050565b5f8060408385031215610346576103456102f9565b5b5f6103538582860161031c565b92505060206103648582860161031c565b9150509250929050565b5f60208284031215610383576103826102f9565b5b5f6103908482850161031c565b91505092915050565b5f73ffffffffffffffffffffffffffffffffffffffff82169050919050565b5f819050919050565b5f6103db6103d66103d184610399565b6103b8565b610399565b9050919050565b5f6103ec826103c1565b9050919050565b5f6103fd826103e2565b9050919050565b61040d816103f3565b82525050565b5f6020820190506104265f830184610404565b92915050565b610435816102fd565b82525050565b5f60208201905061044e5f83018461042c565b92915050565b7f4e487b71000000000000000000000000000000000000000000000000000000005f52603260045260245ffd5b5f8151905061048f81610306565b92915050565b5f602082840312156104aa576104a96102f9565b5b5f6104b784828501610481565b9150509291505056fe6080604052348015600e575f80fd5b506109958061001c5f395ff3fe608060405234801561000f575f80fd5b5060043610610060575f3560e01c80632e64cec11461006457806343ec8f47146100825780636057361d146100b2578063795fff1d146100ce5780639e7a13ad146100ea578063cd1127f51461011b575b5f80fd5b61006c61014b565b60405161007991906102ee565b60405180910390f35b61009c60048036038101906100979190610454565b610153565b6040516100a991906102ee565b60405180910390f35b6100cc60048036038101906100c791906104c5565b610180565b005b6100e860048036038101906100e391906104f0565b610189565b005b61010460048036038101906100ff91906104c5565b61020d565b6040516101129291906105aa565b60405180910390f35b610135600480360381019061013091906104c5565b6102c2565b60405161014291906102ee565b60405180910390f35b5f8054905090565b6002818051602081018201805184825260208301602085012081835280955050505050505f915090505481565b805f8190555050565b6001604051806040016040528083815260200184815250908060018154018082558091505060019003905f5260205f2090600202015f909190919091505f820151815f015560208201518160010190816101e391906107d2565b505050806002836040516101f791906108db565b9081526020016040518091039020819055505050565b6001818154811061021c575f80fd5b905f5260205f2090600202015f91509050805f01549080600101805461024190610605565b80601f016020809104026020016040519081016040528092919081815260200182805461026d90610605565b80156102b85780601f1061028f576101008083540402835291602001916102b8565b820191905f5260205f20905b81548152906001019060200180831161029b57829003601f168201915b5050505050905082565b5f81826102cf919061091e565b9050919050565b5f819050919050565b6102e8816102d6565b82525050565b5f6020820190506103015f8301846102df565b92915050565b5f604051905090565b5f80fd5b5f80fd5b5f80fd5b5f80fd5b5f601f19601f8301169050919050565b7f4e487b71000000000000000000000000000000000000000000000000000000005f52604160045260245ffd5b61036682610320565b810181811067ffffffffffffffff8211171561038557610384610330565b5b80604052505050565b5f610397610307565b90506103a3828261035d565b919050565b5f67ffffffffffffffff8211156103c2576103c1610330565b5b6103cb82610320565b9050602081019050919050565b828183375f83830152505050565b5f6103f86103f3846103a8565b61038e565b9050828152602081018484840111156104145761041361031c565b5b61041f8482856103d8565b509392505050565b5f82601f83011261043b5761043a610318565b5b813561044b8482602086016103e6565b91505092915050565b5f6020828403121561046957610468610310565b5b5f82013567ffffffffffffffff81111561048657610485610314565b5b61049284828501610427565b91505092915050565b6104a4816102d6565b81146104ae575f80fd5b50565b5f813590506104bf8161049b565b92915050565b5f602082840312156104da576104d9610310565b5b5f6104e7848285016104b1565b91505092915050565b5f806040838503121561050657610505610310565b5b5f83013567ffffffffffffffff81111561052357610522610314565b5b61052f85828601610427565b9250506020610540858286016104b1565b9150509250929050565b5f81519050919050565b5f82825260208201905092915050565b8281835e5f83830152505050565b5f61057c8261054a565b6105868185610554565b9350610596818560208601610564565b61059f81610320565b840191505092915050565b5f6040820190506105bd5f8301856102df565b81810360208301526105cf8184610572565b90509392505050565b7f4e487b71000000000000000000000000000000000000000000000000000000005f52602260045260245ffd5b5f600282049050600182168061061c57607f821691505b60208210810361062f5761062e6105d8565b5b50919050565b5f819050815f5260205f209050919050565b5f6020601f8301049050919050565b5f82821b905092915050565b5f600883026106917fffffffffffffffffffffffffffffffffffffffffffffffffffffffffffffffff82610656565b61069b8683610656565b95508019841693508086168417925050509392505050565b5f819050919050565b5f6106d66106d16106cc846102d6565b6106b3565b6102d6565b9050919050565b5f819050919050565b6106ef836106bc565b6107036106fb826106dd565b848454610662565b825550505050565b5f90565b61071761070b565b6107228184846106e6565b505050565b5b818110156107455761073a5f8261070f565b600181019050610728565b5050565b601f82111561078a5761075b81610635565b61076484610647565b81016020851015610773578190505b61078761077f85610647565b830182610727565b50505b505050565b5f82821c905092915050565b5f6107aa5f198460080261078f565b1980831691505092915050565b5f6107c2838361079b565b9150826002028217905092915050565b6107db8261054a565b67ffffffffffffffff8111156107f4576107f3610330565b5b6107fe8254610605565b610809828285610749565b5f60209050601f83116001811461083a575f8415610828578287015190505b61083285826107b7565b865550610899565b601f19841661084886610635565b5f5b8281101561086f5784890151825560018201915060208501945060208101905061084a565b8683101561088c5784890151610888601f89168261079b565b8355505b6001600288020188555050505b505050505050565b5f81905092915050565b5f6108b58261054a565b6108bf81856108a1565b93506108cf818560208601610564565b80840191505092915050565b5f6108e682846108ab565b915081905092915050565b7f4e487b71000000000000000000000000000000000000000000000000000000005f52601160045260245ffd5b5f610928826102d6565b9150610933836102d6565b9250828202610941816102d6565b91508282048414831517610958576109576108f1565b5b509291505056fea2646970667358221220ac0117dd9a28ef00088c99f10fea355002d898c551ec77563fe84964b630ddea64736f6c634300081a0033a26469706673582212209402fcbb733cfbdb11cac05ba335a11620cd96797a23de3e8d71e5e808a0b35864736f6c634300081a0033",
					"opcodes": "PUSH1 0x80 PUSH1 0x40 MSTORE CALLVALUE DUP1 ISZERO PUSH1 0xE JUMPI PUSH0 DUP1 REVERT JUMPDEST POP PUSH2 0xEA7 DUP1 PUSH2 0x1C PUSH0 CODECOPY PUSH0 RETURN INVALID PUSH1 0x80 PUSH1 0x40 MSTORE CALLVALUE DUP1 ISZERO PUSH2 0xF JUMPI PUSH0 DUP1 REVERT JUMPDEST POP PUSH1 0x4 CALLDATASIZE LT PUSH2 0x4A JUMPI PUSH0 CALLDATALOAD PUSH1 0xE0 SHR DUP1 PUSH4 0x1563700F EQ PUSH2 0x4E JUMPI DUP1 PUSH4 0x1DDA6541 EQ PUSH2 0x6A JUMPI DUP1 PUSH4 0x64591BF1 EQ PUSH2 0x74 JUMPI DUP1 PUSH4 0xC5F19C20 EQ PUSH2 0xA4 JUMPI JUMPDEST PUSH0 DUP1 REVERT JUMPDEST PUSH2 0x68 PUSH1 0x4 DUP1 CALLDATASIZE SUB DUP2 ADD SWAP1 PUSH2 0x63 SWAP2 SWAP1 PUSH2 0x330 JUMP JUMPDEST PUSH2 0xD4 JUMP JUMPDEST STOP JUMPDEST PUSH2 0x72 PUSH2 0x178 JUMP JUMPDEST STOP JUMPDEST PUSH2 0x8E PUSH1 0x4 DUP1 CALLDATASIZE SUB DUP2 ADD SWAP1 PUSH2 0x89 SWAP2 SWAP1 PUSH2 0x36E JUMP JUMPDEST PUSH2 0x203 JUMP JUMPDEST PUSH1 0x40 MLOAD PUSH2 0x9B SWAP2 SWAP1 PUSH2 0x413 JUMP JUMPDEST PUSH1 0x40 MLOAD DUP1 SWAP2 SUB SWAP1 RETURN JUMPDEST PUSH2 0xBE PUSH1 0x4 DUP1 CALLDATASIZE SUB DUP2 ADD SWAP1 PUSH2 0xB9 SWAP2 SWAP1 PUSH2 0x36E JUMP JUMPDEST PUSH2 0x23D JUMP JUMPDEST PUSH1 0x40 MLOAD PUSH2 0xCB SWAP2 SWAP1 PUSH2 0x43B JUMP JUMPDEST PUSH1 0x40 MLOAD DUP1 SWAP2 SUB SWAP1 RETURN JUMPDEST PUSH0 DUP3 DUP2 SLOAD DUP2 LT PUSH2 0xE7 JUMPI PUSH2 0xE6 PUSH2 0x454 JUMP JUMPDEST JUMPDEST SWAP1 PUSH0 MSTORE PUSH1 0x20 PUSH0 KECCAK256 ADD PUSH0 SWAP1 SLOAD SWAP1 PUSH2 0x100 EXP SWAP1 DIV PUSH20 0xFFFFFFFFFFFFFFFFFFFFFFFFFFFFFFFFFFFFFFFF AND PUSH20 0xFFFFFFFFFFFFFFFFFFFFFFFFFFFFFFFFFFFFFFFF AND PUSH4 0x6057361D DUP3 PUSH1 0x40 MLOAD DUP3 PUSH4 0xFFFFFFFF AND PUSH1 0xE0 SHL DUP2 MSTORE PUSH1 0x4 ADD PUSH2 0x147 SWAP2 SWAP1 PUSH2 0x43B JUMP JUMPDEST PUSH0 PUSH1 0x40 MLOAD DUP1 DUP4 SUB DUP2 PUSH0 DUP8 DUP1 EXTCODESIZE ISZERO DUP1 ISZERO PUSH2 0x15E JUMPI PUSH0 DUP1 REVERT JUMPDEST POP GAS CALL ISZERO DUP1 ISZERO PUSH2 0x170 JUMPI RETURNDATASIZE PUSH0 DUP1 RETURNDATACOPY RETURNDATASIZE PUSH0 REVERT JUMPDEST POP POP POP POP POP POP JUMP JUMPDEST PUSH0 PUSH1 0x40 MLOAD PUSH2 0x185 SWAP1 PUSH2 0x2EC JUMP JUMPDEST PUSH1 0x40 MLOAD DUP1 SWAP2 SUB SWAP1 PUSH0 CREATE DUP1 ISZERO DUP1 ISZERO PUSH2 0x19E JUMPI RETURNDATASIZE PUSH0 DUP1 RETURNDATACOPY RETURNDATASIZE PUSH0 REVERT JUMPDEST POP SWAP1 POP PUSH0 DUP2 SWAP1 DUP1 PUSH1 0x1 DUP2 SLOAD ADD DUP1 DUP3 SSTORE DUP1 SWAP2 POP POP PUSH1 0x1 SWAP1 SUB SWAP1 PUSH0 MSTORE PUSH1 0x20 PUSH0 KECCAK256 ADD PUSH0 SWAP1 SWAP2 SWAP1 SWAP2 SWAP1 SWAP2 PUSH2 0x100 EXP DUP2 SLOAD DUP2 PUSH20 0xFFFFFFFFFFFFFFFFFFFFFFFFFFFFFFFFFFFFFFFF MUL NOT AND SWAP1 DUP4 PUSH20 0xFFFFFFFFFFFFFFFFFFFFFFFFFFFFFFFFFFFFFFFF AND MUL OR SWAP1 SSTORE POP POP JUMP JUMPDEST PUSH0 DUP2 DUP2 SLOAD DUP2 LT PUSH2 0x211 JUMPI PUSH0 DUP1 REVERT JUMPDEST SWAP1 PUSH0 MSTORE PUSH1 0x20 PUSH0 KECCAK256 ADD PUSH0 SWAP2 POP SLOAD SWAP1 PUSH2 0x100 EXP SWAP1 DIV PUSH20 0xFFFFFFFFFFFFFFFFFFFFFFFFFFFFFFFFFFFFFFFF AND DUP2 JUMP JUMPDEST PUSH0 DUP1 DUP3 DUP2 SLOAD DUP2 LT PUSH2 0x251 JUMPI PUSH2 0x250 PUSH2 0x454 JUMP JUMPDEST JUMPDEST SWAP1 PUSH0 MSTORE PUSH1 0x20 PUSH0 KECCAK256 ADD PUSH0 SWAP1 SLOAD SWAP1 PUSH2 0x100 EXP SWAP1 DIV PUSH20 0xFFFFFFFFFFFFFFFFFFFFFFFFFFFFFFFFFFFFFFFF AND PUSH20 0xFFFFFFFFFFFFFFFFFFFFFFFFFFFFFFFFFFFFFFFF AND PUSH4 0x2E64CEC1 PUSH1 0x40 MLOAD DUP2 PUSH4 0xFFFFFFFF AND PUSH1 0xE0 SHL DUP2 MSTORE PUSH1 0x4 ADD PUSH1 0x20 PUSH1 0x40 MLOAD DUP1 DUP4 SUB DUP2 DUP7 GAS STATICCALL ISZERO DUP1 ISZERO PUSH2 0x2C1 JUMPI RETURNDATASIZE PUSH0 DUP1 RETURNDATACOPY RETURNDATASIZE PUSH0 REVERT JUMPDEST POP POP POP POP PUSH1 0x40 MLOAD RETURNDATASIZE PUSH1 0x1F NOT PUSH1 0x1F DUP3 ADD AND DUP3 ADD DUP1 PUSH1 0x40 MSTORE POP DUP2 ADD SWAP1 PUSH2 0x2E5 SWAP2 SWAP1 PUSH2 0x495 JUMP JUMPDEST SWAP1 POP SWAP2 SWAP1 POP JUMP JUMPDEST PUSH2 0x9B1 DUP1 PUSH2 0x4C1 DUP4 CODECOPY ADD SWAP1 JUMP JUMPDEST PUSH0 DUP1 REVERT JUMPDEST PUSH0 DUP2 SWAP1 POP SWAP2 SWAP1 POP JUMP JUMPDEST PUSH2 0x30F DUP2 PUSH2 0x2FD JUMP JUMPDEST DUP2 EQ PUSH2 0x319 JUMPI PUSH0 DUP1 REVERT JUMPDEST POP JUMP JUMPDEST PUSH0 DUP2 CALLDATALOAD SWAP1 POP PUSH2 0x32A DUP2 PUSH2 0x306 JUMP JUMPDEST SWAP3 SWAP2 POP POP JUMP JUMPDEST PUSH0 DUP1 PUSH1 0x40 DUP4 DUP6 SUB SLT ISZERO PUSH2 0x346 JUMPI PUSH2 0x345 PUSH2 0x2F9 JUMP JUMPDEST JUMPDEST PUSH0 PUSH2 0x353 DUP6 DUP3 DUP7 ADD PUSH2 0x31C JUMP JUMPDEST SWAP3 POP POP PUSH1 0x20 PUSH2 0x364 DUP6 DUP3 DUP7 ADD PUSH2 0x31C JUMP JUMPDEST SWAP2 POP POP SWAP3 POP SWAP3 SWAP1 POP JUMP JUMPDEST PUSH0 PUSH1 0x20 DUP3 DUP5 SUB SLT ISZERO PUSH2 0x383 JUMPI PUSH2 0x382 PUSH2 0x2F9 JUMP JUMPDEST JUMPDEST PUSH0 PUSH2 0x390 DUP5 DUP3 DUP6 ADD PUSH2 0x31C JUMP JUMPDEST SWAP2 POP POP SWAP3 SWAP2 POP POP JUMP JUMPDEST PUSH0 PUSH20 0xFFFFFFFFFFFFFFFFFFFFFFFFFFFFFFFFFFFFFFFF DUP3 AND SWAP1 POP SWAP2 SWAP1 POP JUMP JUMPDEST PUSH0 DUP2 SWAP1 POP SWAP2 SWAP1 POP JUMP JUMPDEST PUSH0 PUSH2 0x3DB PUSH2 0x3D6 PUSH2 0x3D1 DUP5 PUSH2 0x399 JUMP JUMPDEST PUSH2 0x3B8 JUMP JUMPDEST PUSH2 0x399 JUMP JUMPDEST SWAP1 POP SWAP2 SWAP1 POP JUMP JUMPDEST PUSH0 PUSH2 0x3EC DUP3 PUSH2 0x3C1 JUMP JUMPDEST SWAP1 POP SWAP2 SWAP1 POP JUMP JUMPDEST PUSH0 PUSH2 0x3FD DUP3 PUSH2 0x3E2 JUMP JUMPDEST SWAP1 POP SWAP2 SWAP1 POP JUMP JUMPDEST PUSH2 0x40D DUP2 PUSH2 0x3F3 JUMP JUMPDEST DUP3 MSTORE POP POP JUMP JUMPDEST PUSH0 PUSH1 0x20 DUP3 ADD SWAP1 POP PUSH2 0x426 PUSH0 DUP4 ADD DUP5 PUSH2 0x404 JUMP JUMPDEST SWAP3 SWAP2 POP POP JUMP JUMPDEST PUSH2 0x435 DUP2 PUSH2 0x2FD JUMP JUMPDEST DUP3 MSTORE POP POP JUMP JUMPDEST PUSH0 PUSH1 0x20 DUP3 ADD SWAP1 POP PUSH2 0x44E PUSH0 DUP4 ADD DUP5 PUSH2 0x42C JUMP JUMPDEST SWAP3 SWAP2 POP POP JUMP JUMPDEST PUSH32 0x4E487B7100000000000000000000000000000000000000000000000000000000 PUSH0 MSTORE PUSH1 0x32 PUSH1 0x4 MSTORE PUSH1 0x24 PUSH0 REVERT JUMPDEST PUSH0 DUP2 MLOAD SWAP1 POP PUSH2 0x48F DUP2 PUSH2 0x306 JUMP JUMPDEST SWAP3 SWAP2 POP POP JUMP JUMPDEST PUSH0 PUSH1 0x20 DUP3 DUP5 SUB SLT ISZERO PUSH2 0x4AA JUMPI PUSH2 0x4A9 PUSH2 0x2F9 JUMP JUMPDEST JUMPDEST PUSH0 PUSH2 0x4B7 DUP5 DUP3 DUP6 ADD PUSH2 0x481 JUMP JUMPDEST SWAP2 POP POP SWAP3 SWAP2 POP POP JUMP INVALID PUSH1 0x80 PUSH1 0x40 MSTORE CALLVALUE DUP1 ISZERO PUSH1 0xE JUMPI PUSH0 DUP1 REVERT JUMPDEST POP PUSH2 0x995 DUP1 PUSH2 0x1C PUSH0 CODECOPY PUSH0 RETURN INVALID PUSH1 0x80 PUSH1 0x40 MSTORE CALLVALUE DUP1 ISZERO PUSH2 0xF JUMPI PUSH0 DUP1 REVERT JUMPDEST POP PUSH1 0x4 CALLDATASIZE LT PUSH2 0x60 JUMPI PUSH0 CALLDATALOAD PUSH1 0xE0 SHR DUP1 PUSH4 0x2E64CEC1 EQ PUSH2 0x64 JUMPI DUP1 PUSH4 0x43EC8F47 EQ PUSH2 0x82 JUMPI DUP1 PUSH4 0x6057361D EQ PUSH2 0xB2 JUMPI DUP1 PUSH4 0x795FFF1D EQ PUSH2 0xCE JUMPI DUP1 PUSH4 0x9E7A13AD EQ PUSH2 0xEA JUMPI DUP1 PUSH4 0xCD1127F5 EQ PUSH2 0x11B JUMPI JUMPDEST PUSH0 DUP1 REVERT JUMPDEST PUSH2 0x6C PUSH2 0x14B JUMP JUMPDEST PUSH1 0x40 MLOAD PUSH2 0x79 SWAP2 SWAP1 PUSH2 0x2EE JUMP JUMPDEST PUSH1 0x40 MLOAD DUP1 SWAP2 SUB SWAP1 RETURN JUMPDEST PUSH2 0x9C PUSH1 0x4 DUP1 CALLDATASIZE SUB DUP2 ADD SWAP1 PUSH2 0x97 SWAP2 SWAP1 PUSH2 0x454 JUMP JUMPDEST PUSH2 0x153 JUMP JUMPDEST PUSH1 0x40 MLOAD PUSH2 0xA9 SWAP2 SWAP1 PUSH2 0x2EE JUMP JUMPDEST PUSH1 0x40 MLOAD DUP1 SWAP2 SUB SWAP1 RETURN JUMPDEST PUSH2 0xCC PUSH1 0x4 DUP1 CALLDATASIZE SUB DUP2 ADD SWAP1 PUSH2 0xC7 SWAP2 SWAP1 PUSH2 0x4C5 JUMP JUMPDEST PUSH2 0x180 JUMP JUMPDEST STOP JUMPDEST PUSH2 0xE8 PUSH1 0x4 DUP1 CALLDATASIZE SUB DUP2 ADD SWAP1 PUSH2 0xE3 SWAP2 SWAP1 PUSH2 0x4F0 JUMP JUMPDEST PUSH2 0x189 JUMP JUMPDEST STOP JUMPDEST PUSH2 0x104 PUSH1 0x4 DUP1 CALLDATASIZE SUB DUP2 ADD SWAP1 PUSH2 0xFF SWAP2 SWAP1 PUSH2 0x4C5 JUMP JUMPDEST PUSH2 0x20D JUMP JUMPDEST PUSH1 0x40 MLOAD PUSH2 0x112 SWAP3 SWAP2 SWAP1 PUSH2 0x5AA JUMP JUMPDEST PUSH1 0x40 MLOAD DUP1 SWAP2 SUB SWAP1 RETURN JUMPDEST PUSH2 0x135 PUSH1 0x4 DUP1 CALLDATASIZE SUB DUP2 ADD SWAP1 PUSH2 0x130 SWAP2 SWAP1 PUSH2 0x4C5 JUMP JUMPDEST PUSH2 0x2C2 JUMP JUMPDEST PUSH1 0x40 MLOAD PUSH2 0x142 SWAP2 SWAP1 PUSH2 0x2EE JUMP JUMPDEST PUSH1 0x40 MLOAD DUP1 SWAP2 SUB SWAP1 RETURN JUMPDEST PUSH0 DUP1 SLOAD SWAP1 POP SWAP1 JUMP JUMPDEST PUSH1 0x2 DUP2 DUP1 MLOAD PUSH1 0x20 DUP2 ADD DUP3 ADD DUP1 MLOAD DUP5 DUP3 MSTORE PUSH1 0x20 DUP4 ADD PUSH1 0x20 DUP6 ADD KECCAK256 DUP2 DUP4 MSTORE DUP1 SWAP6 POP POP POP POP POP POP PUSH0 SWAP2 POP SWAP1 POP SLOAD DUP2 JUMP JUMPDEST DUP1 PUSH0 DUP2 SWAP1 SSTORE POP POP JUMP JUMPDEST PUSH1 0x1 PUSH1 0x40 MLOAD DUP1 PUSH1 0x40 ADD PUSH1 0x40 MSTORE DUP1 DUP4 DUP2 MSTORE PUSH1 0x20 ADD DUP5 DUP2 MSTORE POP SWAP1 DUP1 PUSH1 0x1 DUP2 SLOAD ADD DUP1 DUP3 SSTORE DUP1 SWAP2 POP POP PUSH1 0x1 SWAP1 SUB SWAP1 PUSH0 MSTORE PUSH1 0x20 PUSH0 KECCAK256 SWAP1 PUSH1 0x2 MUL ADD PUSH0 SWAP1 SWAP2 SWAP1 SWAP2 SWAP1 SWAP2 POP PUSH0 DUP3 ADD MLOAD DUP2 PUSH0 ADD SSTORE PUSH1 0x20 DUP3 ADD MLOAD DUP2 PUSH1 0x1 ADD SWAP1 DUP2 PUSH2 0x1E3 SWAP2 SWAP1 PUSH2 0x7D2 JUMP JUMPDEST POP POP POP DUP1 PUSH1 0x2 DUP4 PUSH1 0x40 MLOAD PUSH2 0x1F7 SWAP2 SWAP1 PUSH2 0x8DB JUMP JUMPDEST SWAP1 DUP2 MSTORE PUSH1 0x20 ADD PUSH1 0x40 MLOAD DUP1 SWAP2 SUB SWAP1 KECCAK256 DUP2 SWAP1 SSTORE POP POP POP JUMP JUMPDEST PUSH1 0x1 DUP2 DUP2 SLOAD DUP2 LT PUSH2 0x21C JUMPI PUSH0 DUP1 REVERT JUMPDEST SWAP1 PUSH0 MSTORE PUSH1 0x20 PUSH0 KECCAK256 SWAP1 PUSH1 0x2 MUL ADD PUSH0 SWAP2 POP SWAP1 POP DUP1 PUSH0 ADD SLOAD SWAP1 DUP1 PUSH1 0x1 ADD DUP1 SLOAD PUSH2 0x241 SWAP1 PUSH2 0x605 JUMP JUMPDEST DUP1 PUSH1 0x1F ADD PUSH1 0x20 DUP1 SWAP2 DIV MUL PUSH1 0x20 ADD PUSH1 0x40 MLOAD SWAP1 DUP2 ADD PUSH1 0x40 MSTORE DUP1 SWAP3 SWAP2 SWAP1 DUP2 DUP2 MSTORE PUSH1 0x20 ADD DUP3 DUP1 SLOAD PUSH2 0x26D SWAP1 PUSH2 0x605 JUMP JUMPDEST DUP1 ISZERO PUSH2 0x2B8 JUMPI DUP1 PUSH1 0x1F LT PUSH2 0x28F JUMPI PUSH2 0x100 DUP1 DUP4 SLOAD DIV MUL DUP4 MSTORE SWAP2 PUSH1 0x20 ADD SWAP2 PUSH2 0x2B8 JUMP JUMPDEST DUP3 ADD SWAP2 SWAP1 PUSH0 MSTORE PUSH1 0x20 PUSH0 KECCAK256 SWAP1 JUMPDEST DUP2 SLOAD DUP2 MSTORE SWAP1 PUSH1 0x1 ADD SWAP1 PUSH1 0x20 ADD DUP1 DUP4 GT PUSH2 0x29B JUMPI DUP3 SWAP1 SUB PUSH1 0x1F AND DUP3 ADD SWAP2 JUMPDEST POP POP POP POP POP SWAP1 POP DUP3 JUMP JUMPDEST PUSH0 DUP2 DUP3 PUSH2 0x2CF SWAP2 SWAP1 PUSH2 0x91E JUMP JUMPDEST SWAP1 POP SWAP2 SWAP1 POP JUMP JUMPDEST PUSH0 DUP2 SWAP1 POP SWAP2 SWAP1 POP JUMP JUMPDEST PUSH2 0x2E8 DUP2 PUSH2 0x2D6 JUMP JUMPDEST DUP3 MSTORE POP POP JUMP JUMPDEST PUSH0 PUSH1 0x20 DUP3 ADD SWAP1 POP PUSH2 0x301 PUSH0 DUP4 ADD DUP5 PUSH2 0x2DF JUMP JUMPDEST SWAP3 SWAP2 POP POP JUMP JUMPDEST PUSH0 PUSH1 0x40 MLOAD SWAP1 POP SWAP1 JUMP JUMPDEST PUSH0 DUP1 REVERT JUMPDEST PUSH0 DUP1 REVERT JUMPDEST PUSH0 DUP1 REVERT JUMPDEST PUSH0 DUP1 REVERT JUMPDEST PUSH0 PUSH1 0x1F NOT PUSH1 0x1F DUP4 ADD AND SWAP1 POP SWAP2 SWAP1 POP JUMP JUMPDEST PUSH32 0x4E487B7100000000000000000000000000000000000000000000000000000000 PUSH0 MSTORE PUSH1 0x41 PUSH1 0x4 MSTORE PUSH1 0x24 PUSH0 REVERT JUMPDEST PUSH2 0x366 DUP3 PUSH2 0x320 JUMP JUMPDEST DUP2 ADD DUP2 DUP2 LT PUSH8 0xFFFFFFFFFFFFFFFF DUP3 GT OR ISZERO PUSH2 0x385 JUMPI PUSH2 0x384 PUSH2 0x330 JUMP JUMPDEST JUMPDEST DUP1 PUSH1 0x40 MSTORE POP POP POP JUMP JUMPDEST PUSH0 PUSH2 0x397 PUSH2 0x307 JUMP JUMPDEST SWAP1 POP PUSH2 0x3A3 DUP3 DUP3 PUSH2 0x35D JUMP JUMPDEST SWAP2 SWAP1 POP JUMP JUMPDEST PUSH0 PUSH8 0xFFFFFFFFFFFFFFFF DUP3 GT ISZERO PUSH2 0x3C2 JUMPI PUSH2 0x3C1 PUSH2 0x330 JUMP JUMPDEST JUMPDEST PUSH2 0x3CB DUP3 PUSH2 0x320 JUMP JUMPDEST SWAP1 POP PUSH1 0x20 DUP2 ADD SWAP1 POP SWAP2 SWAP1 POP JUMP JUMPDEST DUP3 DUP2 DUP4 CALLDATACOPY PUSH0 DUP4 DUP4 ADD MSTORE POP POP POP JUMP JUMPDEST PUSH0 PUSH2 0x3F8 PUSH2 0x3F3 DUP5 PUSH2 0x3A8 JUMP JUMPDEST PUSH2 0x38E JUMP JUMPDEST SWAP1 POP DUP3 DUP2 MSTORE PUSH1 0x20 DUP2 ADD DUP5 DUP5 DUP5 ADD GT ISZERO PUSH2 0x414 JUMPI PUSH2 0x413 PUSH2 0x31C JUMP JUMPDEST JUMPDEST PUSH2 0x41F DUP5 DUP3 DUP6 PUSH2 0x3D8 JUMP JUMPDEST POP SWAP4 SWAP3 POP POP POP JUMP JUMPDEST PUSH0 DUP3 PUSH1 0x1F DUP4 ADD SLT PUSH2 0x43B JUMPI PUSH2 0x43A PUSH2 0x318 JUMP JUMPDEST JUMPDEST DUP2 CALLDATALOAD PUSH2 0x44B DUP5 DUP3 PUSH1 0x20 DUP7 ADD PUSH2 0x3E6 JUMP JUMPDEST SWAP2 POP POP SWAP3 SWAP2 POP POP JUMP JUMPDEST PUSH0 PUSH1 0x20 DUP3 DUP5 SUB SLT ISZERO PUSH2 0x469 JUMPI PUSH2 0x468 PUSH2 0x310 JUMP JUMPDEST JUMPDEST PUSH0 DUP3 ADD CALLDATALOAD PUSH8 0xFFFFFFFFFFFFFFFF DUP2 GT ISZERO PUSH2 0x486 JUMPI PUSH2 0x485 PUSH2 0x314 JUMP JUMPDEST JUMPDEST PUSH2 0x492 DUP5 DUP3 DUP6 ADD PUSH2 0x427 JUMP JUMPDEST SWAP2 POP POP SWAP3 SWAP2 POP POP JUMP JUMPDEST PUSH2 0x4A4 DUP2 PUSH2 0x2D6 JUMP JUMPDEST DUP2 EQ PUSH2 0x4AE JUMPI PUSH0 DUP1 REVERT JUMPDEST POP JUMP JUMPDEST PUSH0 DUP2 CALLDATALOAD SWAP1 POP PUSH2 0x4BF DUP2 PUSH2 0x49B JUMP JUMPDEST SWAP3 SWAP2 POP POP JUMP JUMPDEST PUSH0 PUSH1 0x20 DUP3 DUP5 SUB SLT ISZERO PUSH2 0x4DA JUMPI PUSH2 0x4D9 PUSH2 0x310 JUMP JUMPDEST JUMPDEST PUSH0 PUSH2 0x4E7 DUP5 DUP3 DUP6 ADD PUSH2 0x4B1 JUMP JUMPDEST SWAP2 POP POP SWAP3 SWAP2 POP POP JUMP JUMPDEST PUSH0 DUP1 PUSH1 0x40 DUP4 DUP6 SUB SLT ISZERO PUSH2 0x506 JUMPI PUSH2 0x505 PUSH2 0x310 JUMP JUMPDEST JUMPDEST PUSH0 DUP4 ADD CALLDATALOAD PUSH8 0xFFFFFFFFFFFFFFFF DUP2 GT ISZERO PUSH2 0x523 JUMPI PUSH2 0x522 PUSH2 0x314 JUMP JUMPDEST JUMPDEST PUSH2 0x52F DUP6 DUP3 DUP7 ADD PUSH2 0x427 JUMP JUMPDEST SWAP3 POP POP PUSH1 0x20 PUSH2 0x540 DUP6 DUP3 DUP7 ADD PUSH2 0x4B1 JUMP JUMPDEST SWAP2 POP POP SWAP3 POP SWAP3 SWAP1 POP JUMP JUMPDEST PUSH0 DUP2 MLOAD SWAP1 POP SWAP2 SWAP1 POP JUMP JUMPDEST PUSH0 DUP3 DUP3 MSTORE PUSH1 0x20 DUP3 ADD SWAP1 POP SWAP3 SWAP2 POP POP JUMP JUMPDEST DUP3 DUP2 DUP4 MCOPY PUSH0 DUP4 DUP4 ADD MSTORE POP POP POP JUMP JUMPDEST PUSH0 PUSH2 0x57C DUP3 PUSH2 0x54A JUMP JUMPDEST PUSH2 0x586 DUP2 DUP6 PUSH2 0x554 JUMP JUMPDEST SWAP4 POP PUSH2 0x596 DUP2 DUP6 PUSH1 0x20 DUP7 ADD PUSH2 0x564 JUMP JUMPDEST PUSH2 0x59F DUP2 PUSH2 0x320 JUMP JUMPDEST DUP5 ADD SWAP2 POP POP SWAP3 SWAP2 POP POP JUMP JUMPDEST PUSH0 PUSH1 0x40 DUP3 ADD SWAP1 POP PUSH2 0x5BD PUSH0 DUP4 ADD DUP6 PUSH2 0x2DF JUMP JUMPDEST DUP2 DUP2 SUB PUSH1 0x20 DUP4 ADD MSTORE PUSH2 0x5CF DUP2 DUP5 PUSH2 0x572 JUMP JUMPDEST SWAP1 POP SWAP4 SWAP3 POP POP POP JUMP JUMPDEST PUSH32 0x4E487B7100000000000000000000000000000000000000000000000000000000 PUSH0 MSTORE PUSH1 0x22 PUSH1 0x4 MSTORE PUSH1 0x24 PUSH0 REVERT JUMPDEST PUSH0 PUSH1 0x2 DUP3 DIV SWAP1 POP PUSH1 0x1 DUP3 AND DUP1 PUSH2 0x61C JUMPI PUSH1 0x7F DUP3 AND SWAP2 POP JUMPDEST PUSH1 0x20 DUP3 LT DUP2 SUB PUSH2 0x62F JUMPI PUSH2 0x62E PUSH2 0x5D8 JUMP JUMPDEST JUMPDEST POP SWAP2 SWAP1 POP JUMP JUMPDEST PUSH0 DUP2 SWAP1 POP DUP2 PUSH0 MSTORE PUSH1 0x20 PUSH0 KECCAK256 SWAP1 POP SWAP2 SWAP1 POP JUMP JUMPDEST PUSH0 PUSH1 0x20 PUSH1 0x1F DUP4 ADD DIV SWAP1 POP SWAP2 SWAP1 POP JUMP JUMPDEST PUSH0 DUP3 DUP3 SHL SWAP1 POP SWAP3 SWAP2 POP POP JUMP JUMPDEST PUSH0 PUSH1 0x8 DUP4 MUL PUSH2 0x691 PUSH32 0xFFFFFFFFFFFFFFFFFFFFFFFFFFFFFFFFFFFFFFFFFFFFFFFFFFFFFFFFFFFFFFFF DUP3 PUSH2 0x656 JUMP JUMPDEST PUSH2 0x69B DUP7 DUP4 PUSH2 0x656 JUMP JUMPDEST SWAP6 POP DUP1 NOT DUP5 AND SWAP4 POP DUP1 DUP7 AND DUP5 OR SWAP3 POP POP POP SWAP4 SWAP3 POP POP POP JUMP JUMPDEST PUSH0 DUP2 SWAP1 POP SWAP2 SWAP1 POP JUMP JUMPDEST PUSH0 PUSH2 0x6D6 PUSH2 0x6D1 PUSH2 0x6CC DUP5 PUSH2 0x2D6 JUMP JUMPDEST PUSH2 0x6B3 JUMP JUMPDEST PUSH2 0x2D6 JUMP JUMPDEST SWAP1 POP SWAP2 SWAP1 POP JUMP JUMPDEST PUSH0 DUP2 SWAP1 POP SWAP2 SWAP1 POP JUMP JUMPDEST PUSH2 0x6EF DUP4 PUSH2 0x6BC JUMP JUMPDEST PUSH2 0x703 PUSH2 0x6FB DUP3 PUSH2 0x6DD JUMP JUMPDEST DUP5 DUP5 SLOAD PUSH2 0x662 JUMP JUMPDEST DUP3 SSTORE POP POP POP POP JUMP JUMPDEST PUSH0 SWAP1 JUMP JUMPDEST PUSH2 0x717 PUSH2 0x70B JUMP JUMPDEST PUSH2 0x722 DUP2 DUP5 DUP5 PUSH2 0x6E6 JUMP JUMPDEST POP POP POP JUMP JUMPDEST JUMPDEST DUP2 DUP2 LT ISZERO PUSH2 0x745 JUMPI PUSH2 0x73A PUSH0 DUP3 PUSH2 0x70F JUMP JUMPDEST PUSH1 0x1 DUP2 ADD SWAP1 POP PUSH2 0x728 JUMP JUMPDEST POP POP JUMP JUMPDEST PUSH1 0x1F DUP3 GT ISZERO PUSH2 0x78A JUMPI PUSH2 0x75B DUP2 PUSH2 0x635 JUMP JUMPDEST PUSH2 0x764 DUP5 PUSH2 0x647 JUMP JUMPDEST DUP2 ADD PUSH1 0x20 DUP6 LT ISZERO PUSH2 0x773 JUMPI DUP2 SWAP1 POP JUMPDEST PUSH2 0x787 PUSH2 0x77F DUP6 PUSH2 0x647 JUMP JUMPDEST DUP4 ADD DUP3 PUSH2 0x727 JUMP JUMPDEST POP POP JUMPDEST POP POP POP JUMP JUMPDEST PUSH0 DUP3 DUP3 SHR SWAP1 POP SWAP3 SWAP2 POP POP JUMP JUMPDEST PUSH0 PUSH2 0x7AA PUSH0 NOT DUP5 PUSH1 0x8 MUL PUSH2 0x78F JUMP JUMPDEST NOT DUP1 DUP4 AND SWAP2 POP POP SWAP3 SWAP2 POP POP JUMP JUMPDEST PUSH0 PUSH2 0x7C2 DUP4 DUP4 PUSH2 0x79B JUMP JUMPDEST SWAP2 POP DUP3 PUSH1 0x2 MUL DUP3 OR SWAP1 POP SWAP3 SWAP2 POP POP JUMP JUMPDEST PUSH2 0x7DB DUP3 PUSH2 0x54A JUMP JUMPDEST PUSH8 0xFFFFFFFFFFFFFFFF DUP2 GT ISZERO PUSH2 0x7F4 JUMPI PUSH2 0x7F3 PUSH2 0x330 JUMP JUMPDEST JUMPDEST PUSH2 0x7FE DUP3 SLOAD PUSH2 0x605 JUMP JUMPDEST PUSH2 0x809 DUP3 DUP3 DUP6 PUSH2 0x749 JUMP JUMPDEST PUSH0 PUSH1 0x20 SWAP1 POP PUSH1 0x1F DUP4 GT PUSH1 0x1 DUP2 EQ PUSH2 0x83A JUMPI PUSH0 DUP5 ISZERO PUSH2 0x828 JUMPI DUP3 DUP8 ADD MLOAD SWAP1 POP JUMPDEST PUSH2 0x832 DUP6 DUP3 PUSH2 0x7B7 JUMP JUMPDEST DUP7 SSTORE POP PUSH2 0x899 JUMP JUMPDEST PUSH1 0x1F NOT DUP5 AND PUSH2 0x848 DUP7 PUSH2 0x635 JUMP JUMPDEST PUSH0 JUMPDEST DUP3 DUP2 LT ISZERO PUSH2 0x86F JUMPI DUP5 DUP10 ADD MLOAD DUP3 SSTORE PUSH1 0x1 DUP3 ADD SWAP2 POP PUSH1 0x20 DUP6 ADD SWAP5 POP PUSH1 0x20 DUP2 ADD SWAP1 POP PUSH2 0x84A JUMP JUMPDEST DUP7 DUP4 LT ISZERO PUSH2 0x88C JUMPI DUP5 DUP10 ADD MLOAD PUSH2 0x888 PUSH1 0x1F DUP10 AND DUP3 PUSH2 0x79B JUMP JUMPDEST DUP4 SSTORE POP JUMPDEST PUSH1 0x1 PUSH1 0x2 DUP9 MUL ADD DUP9 SSTORE POP POP POP JUMPDEST POP POP POP POP POP POP JUMP JUMPDEST PUSH0 DUP2 SWAP1 POP SWAP3 SWAP2 POP POP JUMP JUMPDEST PUSH0 PUSH2 0x8B5 DUP3 PUSH2 0x54A JUMP JUMPDEST PUSH2 0x8BF DUP2 DUP6 PUSH2 0x8A1 JUMP JUMPDEST SWAP4 POP PUSH2 0x8CF DUP2 DUP6 PUSH1 0x20 DUP7 ADD PUSH2 0x564 JUMP JUMPDEST DUP1 DUP5 ADD SWAP2 POP POP SWAP3 SWAP2 POP POP JUMP JUMPDEST PUSH0 PUSH2 0x8E6 DUP3 DUP5 PUSH2 0x8AB JUMP JUMPDEST SWAP2 POP DUP2 SWAP1 POP SWAP3 SWAP2 POP POP JUMP JUMPDEST PUSH32 0x4E487B7100000000000000000000000000000000000000000000000000000000 PUSH0 MSTORE PUSH1 0x11 PUSH1 0x4 MSTORE PUSH1 0x24 PUSH0 REVERT JUMPDEST PUSH0 PUSH2 0x928 DUP3 PUSH2 0x2D6 JUMP JUMPDEST SWAP2 POP PUSH2 0x933 DUP4 PUSH2 0x2D6 JUMP JUMPDEST SWAP3 POP DUP3 DUP3 MUL PUSH2 0x941 DUP2 PUSH2 0x2D6 JUMP JUMPDEST SWAP2 POP DUP3 DUP3 DIV DUP5 EQ DUP4 ISZERO OR PUSH2 0x958 JUMPI PUSH2 0x957 PUSH2 0x8F1 JUMP JUMPDEST JUMPDEST POP SWAP3 SWAP2 POP POP JUMP INVALID LOG2 PUSH5 0x6970667358 0x22 SLT KECCAK256 0xAC ADD OR 0xDD SWAP11 0x28 0xEF STOP ADDMOD DUP13 SWAP10 CALL 0xF 0xEA CALLDATALOAD POP MUL 0xD8 SWAP9 0xC5 MLOAD 0xEC PUSH24 0x563FE84964B630DDEA64736F6C634300081A0033A2646970 PUSH7 0x73582212209402 0xFC 0xBB PUSH20 0x3CFBDB11CAC05BA335A11620CD96797A23DE3E8D PUSH18 0xE5E808A0B35864736F6C634300081A003300 "
				},
				"gasEstimates": {
					"creation": {
						"codeDepositCost": "750200",
						"executionCost": "784",
						"totalCost": "750984"
					},
					"external": {
						"createSimpleStorageContract()": "infinite",
						"sfGet(uint256)": "infinite",
						"sfStore(uint256,uint256)": "infinite",
						"simpleStorageArray(uint256)": "infinite"
					}
				},
				"methodIdentifiers": {
					"createSimpleStorageContract()": "1dda6541",
					"sfGet(uint256)": "c5f19c20",
					"sfStore(uint256,uint256)": "1563700f",
					"simpleStorageArray(uint256)": "64591bf1"
				}
			},
			"storageLayout": {
				"storage": [
					{
						"astId": 78,
						"contract": "contracts/StorageFactory.sol:StorageFactory",
						"label": "simpleStorageArray",
						"offset": 0,
						"slot": "0",
						"type": "t_array(t_contract(SimpleStorage)71)dyn_storage"
					}
				],
				"types": {
					"t_array(t_contract(SimpleStorage)71)dyn_storage": {
						"base": "t_contract(SimpleStorage)71",
						"encoding": "dynamic_array",
						"label": "contract SimpleStorage[]",
						"numberOfBytes": "32"
					},
					"t_contract(SimpleStorage)71": {
						"encoding": "inplace",
						"label": "contract SimpleStorage",
						"numberOfBytes": "20"
					}
				}
			},
			"userdoc": {
				"kind": "user",
				"methods": {},
				"version": 1
			}
		}
	}
}