{
	"data": {
		"bytecode": {
			"linkReferences": {},
			"object": "6080604052348015600e575f80fd5b506109e38061001c5f395ff3fe608060405234801561000f575f80fd5b5060043610610060575f3560e01c80632e64cec11461006457806343ec8f47146100825780636057361d146100b2578063795fff1d146100ce5780639e7a13ad146100ea578063cd1127f51461011b575b5f80fd5b61006c61014b565b6040516100799190610309565b60405180910390f35b61009c6004803603810190610097919061046f565b610153565b6040516100a99190610309565b60405180910390f35b6100cc60048036038101906100c791906104e0565b610180565b005b6100e860048036038101906100e3919061050b565b61019b565b005b61010460048036038101906100ff91906104e0565b61021f565b6040516101129291906105c5565b60405180910390f35b610135600480360381019061013091906104e0565b6102d4565b6040516101429190610309565b60405180910390f35b5f8054905090565b6002818051602081018201805184825260208301602085012081835280955050505050505f915090505481565b60058161018d9190610620565b9050610198816102e8565b50565b6001604051806040016040528083815260200184815250908060018154018082558091505060019003905f5260205f2090600202015f909190919091505f820151815f015560208201518160010190816101f5919061084d565b505050806002836040516102099190610956565b9081526020016040518091039020819055505050565b6001818154811061022e575f80fd5b905f5260205f2090600202015f91509050805f01549080600101805461025390610680565b80601f016020809104026020016040519081016040528092919081815260200182805461027f90610680565b80156102ca5780601f106102a1576101008083540402835291602001916102ca565b820191905f5260205f20905b8154815290600101906020018083116102ad57829003601f168201915b5050505050905082565b5f81826102e1919061096c565b9050919050565b805f8190555050565b5f819050919050565b610303816102f1565b82525050565b5f60208201905061031c5f8301846102fa565b92915050565b5f604051905090565b5f80fd5b5f80fd5b5f80fd5b5f80fd5b5f601f19601f8301169050919050565b7f4e487b71000000000000000000000000000000000000000000000000000000005f52604160045260245ffd5b6103818261033b565b810181811067ffffffffffffffff821117156103a05761039f61034b565b5b80604052505050565b5f6103b2610322565b90506103be8282610378565b919050565b5f67ffffffffffffffff8211156103dd576103dc61034b565b5b6103e68261033b565b9050602081019050919050565b828183375f83830152505050565b5f61041361040e846103c3565b6103a9565b90508281526020810184848401111561042f5761042e610337565b5b61043a8482856103f3565b509392505050565b5f82601f83011261045657610455610333565b5b8135610466848260208601610401565b91505092915050565b5f602082840312156104845761048361032b565b5b5f82013567ffffffffffffffff8111156104a1576104a061032f565b5b6104ad84828501610442565b91505092915050565b6104bf816102f1565b81146104c9575f80fd5b50565b5f813590506104da816104b6565b92915050565b5f602082840312156104f5576104f461032b565b5b5f610502848285016104cc565b91505092915050565b5f80604083850312156105215761052061032b565b5b5f83013567ffffffffffffffff81111561053e5761053d61032f565b5b61054a85828601610442565b925050602061055b858286016104cc565b9150509250929050565b5f81519050919050565b5f82825260208201905092915050565b8281835e5f83830152505050565b5f61059782610565565b6105a1818561056f565b93506105b181856020860161057f565b6105ba8161033b565b840191505092915050565b5f6040820190506105d85f8301856102fa565b81810360208301526105ea818461058d565b90509392505050565b7f4e487b71000000000000000000000000000000000000000000000000000000005f52601160045260245ffd5b5f61062a826102f1565b9150610635836102f1565b925082820190508082111561064d5761064c6105f3565b5b92915050565b7f4e487b71000000000000000000000000000000000000000000000000000000005f52602260045260245ffd5b5f600282049050600182168061069757607f821691505b6020821081036106aa576106a9610653565b5b50919050565b5f819050815f5260205f209050919050565b5f6020601f8301049050919050565b5f82821b905092915050565b5f6008830261070c7fffffffffffffffffffffffffffffffffffffffffffffffffffffffffffffffff826106d1565b61071686836106d1565b95508019841693508086168417925050509392505050565b5f819050919050565b5f61075161074c610747846102f1565b61072e565b6102f1565b9050919050565b5f819050919050565b61076a83610737565b61077e61077682610758565b8484546106dd565b825550505050565b5f90565b610792610786565b61079d818484610761565b505050565b5b818110156107c0576107b55f8261078a565b6001810190506107a3565b5050565b601f821115610805576107d6816106b0565b6107df846106c2565b810160208510156107ee578190505b6108026107fa856106c2565b8301826107a2565b50505b505050565b5f82821c905092915050565b5f6108255f198460080261080a565b1980831691505092915050565b5f61083d8383610816565b9150826002028217905092915050565b61085682610565565b67ffffffffffffffff81111561086f5761086e61034b565b5b6108798254610680565b6108848282856107c4565b5f60209050601f8311600181146108b5575f84156108a3578287015190505b6108ad8582610832565b865550610914565b601f1984166108c3866106b0565b5f5b828110156108ea578489015182556001820191506020850194506020810190506108c5565b868310156109075784890151610903601f891682610816565b8355505b6001600288020188555050505b505050505050565b5f81905092915050565b5f61093082610565565b61093a818561091c565b935061094a81856020860161057f565b80840191505092915050565b5f6109618284610926565b915081905092915050565b5f610976826102f1565b9150610981836102f1565b925082820261098f816102f1565b915082820484148315176109a6576109a56105f3565b5b509291505056fea2646970667358221220cb9f63bd710e953e65016a2e2b33718afd9abb41c90245cf9ac96850dc2cabd064736f6c634300081a0033",
			"opcodes": "PUSH1 0x80 PUSH1 0x40 MSTORE CALLVALUE DUP1 ISZERO PUSH1 0xE JUMPI PUSH0 DUP1 REVERT JUMPDEST POP PUSH2 0x9E3 DUP1 PUSH2 0x1C PUSH0 CODECOPY PUSH0 RETURN INVALID PUSH1 0x80 PUSH1 0x40 MSTORE CALLVALUE DUP1 ISZERO PUSH2 0xF JUMPI PUSH0 DUP1 REVERT JUMPDEST POP PUSH1 0x4 CALLDATASIZE LT PUSH2 0x60 JUMPI PUSH0 CALLDATALOAD PUSH1 0xE0 SHR DUP1 PUSH4 0x2E64CEC1 EQ PUSH2 0x64 JUMPI DUP1 PUSH4 0x43EC8F47 EQ PUSH2 0x82 JUMPI DUP1 PUSH4 0x6057361D EQ PUSH2 0xB2 JUMPI DUP1 PUSH4 0x795FFF1D EQ PUSH2 0xCE JUMPI DUP1 PUSH4 0x9E7A13AD EQ PUSH2 0xEA JUMPI DUP1 PUSH4 0xCD1127F5 EQ PUSH2 0x11B JUMPI JUMPDEST PUSH0 DUP1 REVERT JUMPDEST PUSH2 0x6C PUSH2 0x14B JUMP JUMPDEST PUSH1 0x40 MLOAD PUSH2 0x79 SWAP2 SWAP1 PUSH2 0x309 JUMP JUMPDEST PUSH1 0x40 MLOAD DUP1 SWAP2 SUB SWAP1 RETURN JUMPDEST PUSH2 0x9C PUSH1 0x4 DUP1 CALLDATASIZE SUB DUP2 ADD SWAP1 PUSH2 0x97 SWAP2 SWAP1 PUSH2 0x46F JUMP JUMPDEST PUSH2 0x153 JUMP JUMPDEST PUSH1 0x40 MLOAD PUSH2 0xA9 SWAP2 SWAP1 PUSH2 0x309 JUMP JUMPDEST PUSH1 0x40 MLOAD DUP1 SWAP2 SUB SWAP1 RETURN JUMPDEST PUSH2 0xCC PUSH1 0x4 DUP1 CALLDATASIZE SUB DUP2 ADD SWAP1 PUSH2 0xC7 SWAP2 SWAP1 PUSH2 0x4E0 JUMP JUMPDEST PUSH2 0x180 JUMP JUMPDEST STOP JUMPDEST PUSH2 0xE8 PUSH1 0x4 DUP1 CALLDATASIZE SUB DUP2 ADD SWAP1 PUSH2 0xE3 SWAP2 SWAP1 PUSH2 0x50B JUMP JUMPDEST PUSH2 0x19B JUMP JUMPDEST STOP JUMPDEST PUSH2 0x104 PUSH1 0x4 DUP1 CALLDATASIZE SUB DUP2 ADD SWAP1 PUSH2 0xFF SWAP2 SWAP1 PUSH2 0x4E0 JUMP JUMPDEST PUSH2 0x21F JUMP JUMPDEST PUSH1 0x40 MLOAD PUSH2 0x112 SWAP3 SWAP2 SWAP1 PUSH2 0x5C5 JUMP JUMPDEST PUSH1 0x40 MLOAD DUP1 SWAP2 SUB SWAP1 RETURN JUMPDEST PUSH2 0x135 PUSH1 0x4 DUP1 CALLDATASIZE SUB DUP2 ADD SWAP1 PUSH2 0x130 SWAP2 SWAP1 PUSH2 0x4E0 JUMP JUMPDEST PUSH2 0x2D4 JUMP JUMPDEST PUSH1 0x40 MLOAD PUSH2 0x142 SWAP2 SWAP1 PUSH2 0x309 JUMP JUMPDEST PUSH1 0x40 MLOAD DUP1 SWAP2 SUB SWAP1 RETURN JUMPDEST PUSH0 DUP1 SLOAD SWAP1 POP SWAP1 JUMP JUMPDEST PUSH1 0x2 DUP2 DUP1 MLOAD PUSH1 0x20 DUP2 ADD DUP3 ADD DUP1 MLOAD DUP5 DUP3 MSTORE PUSH1 0x20 DUP4 ADD PUSH1 0x20 DUP6 ADD KECCAK256 DUP2 DUP4 MSTORE DUP1 SWAP6 POP POP POP POP POP POP PUSH0 SWAP2 POP SWAP1 POP SLOAD DUP2 JUMP JUMPDEST PUSH1 0x5 DUP2 PUSH2 0x18D SWAP2 SWAP1 PUSH2 0x620 JUMP JUMPDEST SWAP1 POP PUSH2 0x198 DUP2 PUSH2 0x2E8 JUMP JUMPDEST POP JUMP JUMPDEST PUSH1 0x1 PUSH1 0x40 MLOAD DUP1 PUSH1 0x40 ADD PUSH1 0x40 MSTORE DUP1 DUP4 DUP2 MSTORE PUSH1 0x20 ADD DUP5 DUP2 MSTORE POP SWAP1 DUP1 PUSH1 0x1 DUP2 SLOAD ADD DUP1 DUP3 SSTORE DUP1 SWAP2 POP POP PUSH1 0x1 SWAP1 SUB SWAP1 PUSH0 MSTORE PUSH1 0x20 PUSH0 KECCAK256 SWAP1 PUSH1 0x2 MUL ADD PUSH0 SWAP1 SWAP2 SWAP1 SWAP2 SWAP1 SWAP2 POP PUSH0 DUP3 ADD MLOAD DUP2 PUSH0 ADD SSTORE PUSH1 0x20 DUP3 ADD MLOAD DUP2 PUSH1 0x1 ADD SWAP1 DUP2 PUSH2 0x1F5 SWAP2 SWAP1 PUSH2 0x84D JUMP JUMPDEST POP POP POP DUP1 PUSH1 0x2 DUP4 PUSH1 0x40 MLOAD PUSH2 0x209 SWAP2 SWAP1 PUSH2 0x956 JUMP JUMPDEST SWAP1 DUP2 MSTORE PUSH1 0x20 ADD PUSH1 0x40 MLOAD DUP1 SWAP2 SUB SWAP1 KECCAK256 DUP2 SWAP1 SSTORE POP POP POP JUMP JUMPDEST PUSH1 0x1 DUP2 DUP2 SLOAD DUP2 LT PUSH2 0x22E JUMPI PUSH0 DUP1 REVERT JUMPDEST SWAP1 PUSH0 MSTORE PUSH1 0x20 PUSH0 KECCAK256 SWAP1 PUSH1 0x2 MUL ADD PUSH0 SWAP2 POP SWAP1 POP DUP1 PUSH0 ADD SLOAD SWAP1 DUP1 PUSH1 0x1 ADD DUP1 SLOAD PUSH2 0x253 SWAP1 PUSH2 0x680 JUMP JUMPDEST DUP1 PUSH1 0x1F ADD PUSH1 0x20 DUP1 SWAP2 DIV MUL PUSH1 0x20 ADD PUSH1 0x40 MLOAD SWAP1 DUP2 ADD PUSH1 0x40 MSTORE DUP1 SWAP3 SWAP2 SWAP1 DUP2 DUP2 MSTORE PUSH1 0x20 ADD DUP3 DUP1 SLOAD PUSH2 0x27F SWAP1 PUSH2 0x680 JUMP JUMPDEST DUP1 ISZERO PUSH2 0x2CA JUMPI DUP1 PUSH1 0x1F LT PUSH2 0x2A1 JUMPI PUSH2 0x100 DUP1 DUP4 SLOAD DIV MUL DUP4 MSTORE SWAP2 PUSH1 0x20 ADD SWAP2 PUSH2 0x2CA JUMP JUMPDEST DUP3 ADD SWAP2 SWAP1 PUSH0 MSTORE PUSH1 0x20 PUSH0 KECCAK256 SWAP1 JUMPDEST DUP2 SLOAD DUP2 MSTORE SWAP1 PUSH1 0x1 ADD SWAP1 PUSH1 0x20 ADD DUP1 DUP4 GT PUSH2 0x2AD JUMPI DUP3 SWAP1 SUB PUSH1 0x1F AND DUP3 ADD SWAP2 JUMPDEST POP POP POP POP POP SWAP1 POP DUP3 JUMP JUMPDEST PUSH0 DUP2 DUP3 PUSH2 0x2E1 SWAP2 SWAP1 PUSH2 0x96C JUMP JUMPDEST SWAP1 POP SWAP2 SWAP1 POP JUMP JUMPDEST DUP1 PUSH0 DUP2 SWAP1 SSTORE POP POP JUMP JUMPDEST PUSH0 DUP2 SWAP1 POP SWAP2 SWAP1 POP JUMP JUMPDEST PUSH2 0x303 DUP2 PUSH2 0x2F1 JUMP JUMPDEST DUP3 MSTORE POP POP JUMP JUMPDEST PUSH0 PUSH1 0x20 DUP3 ADD SWAP1 POP PUSH2 0x31C PUSH0 DUP4 ADD DUP5 PUSH2 0x2FA JUMP JUMPDEST SWAP3 SWAP2 POP POP JUMP JUMPDEST PUSH0 PUSH1 0x40 MLOAD SWAP1 POP SWAP1 JUMP JUMPDEST PUSH0 DUP1 REVERT JUMPDEST PUSH0 DUP1 REVERT JUMPDEST PUSH0 DUP1 REVERT JUMPDEST PUSH0 DUP1 REVERT JUMPDEST PUSH0 PUSH1 0x1F NOT PUSH1 0x1F DUP4 ADD AND SWAP1 POP SWAP2 SWAP1 POP JUMP JUMPDEST PUSH32 0x4E487B7100000000000000000000000000000000000000000000000000000000 PUSH0 MSTORE PUSH1 0x41 PUSH1 0x4 MSTORE PUSH1 0x24 PUSH0 REVERT JUMPDEST PUSH2 0x381 DUP3 PUSH2 0x33B JUMP JUMPDEST DUP2 ADD DUP2 DUP2 LT PUSH8 0xFFFFFFFFFFFFFFFF DUP3 GT OR ISZERO PUSH2 0x3A0 JUMPI PUSH2 0x39F PUSH2 0x34B JUMP JUMPDEST JUMPDEST DUP1 PUSH1 0x40 MSTORE POP POP POP JUMP JUMPDEST PUSH0 PUSH2 0x3B2 PUSH2 0x322 JUMP JUMPDEST SWAP1 POP PUSH2 0x3BE DUP3 DUP3 PUSH2 0x378 JUMP JUMPDEST SWAP2 SWAP1 POP JUMP JUMPDEST PUSH0 PUSH8 0xFFFFFFFFFFFFFFFF DUP3 GT ISZERO PUSH2 0x3DD JUMPI PUSH2 0x3DC PUSH2 0x34B JUMP JUMPDEST JUMPDEST PUSH2 0x3E6 DUP3 PUSH2 0x33B JUMP JUMPDEST SWAP1 POP PUSH1 0x20 DUP2 ADD SWAP1 POP SWAP2 SWAP1 POP JUMP JUMPDEST DUP3 DUP2 DUP4 CALLDATACOPY PUSH0 DUP4 DUP4 ADD MSTORE POP POP POP JUMP JUMPDEST PUSH0 PUSH2 0x413 PUSH2 0x40E DUP5 PUSH2 0x3C3 JUMP JUMPDEST PUSH2 0x3A9 JUMP JUMPDEST SWAP1 POP DUP3 DUP2 MSTORE PUSH1 0x20 DUP2 ADD DUP5 DUP5 DUP5 ADD GT ISZERO PUSH2 0x42F JUMPI PUSH2 0x42E PUSH2 0x337 JUMP JUMPDEST JUMPDEST PUSH2 0x43A DUP5 DUP3 DUP6 PUSH2 0x3F3 JUMP JUMPDEST POP SWAP4 SWAP3 POP POP POP JUMP JUMPDEST PUSH0 DUP3 PUSH1 0x1F DUP4 ADD SLT PUSH2 0x456 JUMPI PUSH2 0x455 PUSH2 0x333 JUMP JUMPDEST JUMPDEST DUP2 CALLDATALOAD PUSH2 0x466 DUP5 DUP3 PUSH1 0x20 DUP7 ADD PUSH2 0x401 JUMP JUMPDEST SWAP2 POP POP SWAP3 SWAP2 POP POP JUMP JUMPDEST PUSH0 PUSH1 0x20 DUP3 DUP5 SUB SLT ISZERO PUSH2 0x484 JUMPI PUSH2 0x483 PUSH2 0x32B JUMP JUMPDEST JUMPDEST PUSH0 DUP3 ADD CALLDATALOAD PUSH8 0xFFFFFFFFFFFFFFFF DUP2 GT ISZERO PUSH2 0x4A1 JUMPI PUSH2 0x4A0 PUSH2 0x32F JUMP JUMPDEST JUMPDEST PUSH2 0x4AD DUP5 DUP3 DUP6 ADD PUSH2 0x442 JUMP JUMPDEST SWAP2 POP POP SWAP3 SWAP2 POP POP JUMP JUMPDEST PUSH2 0x4BF DUP2 PUSH2 0x2F1 JUMP JUMPDEST DUP2 EQ PUSH2 0x4C9 JUMPI PUSH0 DUP1 REVERT JUMPDEST POP JUMP JUMPDEST PUSH0 DUP2 CALLDATALOAD SWAP1 POP PUSH2 0x4DA DUP2 PUSH2 0x4B6 JUMP JUMPDEST SWAP3 SWAP2 POP POP JUMP JUMPDEST PUSH0 PUSH1 0x20 DUP3 DUP5 SUB SLT ISZERO PUSH2 0x4F5 JUMPI PUSH2 0x4F4 PUSH2 0x32B JUMP JUMPDEST JUMPDEST PUSH0 PUSH2 0x502 DUP5 DUP3 DUP6 ADD PUSH2 0x4CC JUMP JUMPDEST SWAP2 POP POP SWAP3 SWAP2 POP POP JUMP JUMPDEST PUSH0 DUP1 PUSH1 0x40 DUP4 DUP6 SUB SLT ISZERO PUSH2 0x521 JUMPI PUSH2 0x520 PUSH2 0x32B JUMP JUMPDEST JUMPDEST PUSH0 DUP4 ADD CALLDATALOAD PUSH8 0xFFFFFFFFFFFFFFFF DUP2 GT ISZERO PUSH2 0x53E JUMPI PUSH2 0x53D PUSH2 0x32F JUMP JUMPDEST JUMPDEST PUSH2 0x54A DUP6 DUP3 DUP7 ADD PUSH2 0x442 JUMP JUMPDEST SWAP3 POP POP PUSH1 0x20 PUSH2 0x55B DUP6 DUP3 DUP7 ADD PUSH2 0x4CC JUMP JUMPDEST SWAP2 POP POP SWAP3 POP SWAP3 SWAP1 POP JUMP JUMPDEST PUSH0 DUP2 MLOAD SWAP1 POP SWAP2 SWAP1 POP JUMP JUMPDEST PUSH0 DUP3 DUP3 MSTORE PUSH1 0x20 DUP3 ADD SWAP1 POP SWAP3 SWAP2 POP POP JUMP JUMPDEST DUP3 DUP2 DUP4 MCOPY PUSH0 DUP4 DUP4 ADD MSTORE POP POP POP JUMP JUMPDEST PUSH0 PUSH2 0x597 DUP3 PUSH2 0x565 JUMP JUMPDEST PUSH2 0x5A1 DUP2 DUP6 PUSH2 0x56F JUMP JUMPDEST SWAP4 POP PUSH2 0x5B1 DUP2 DUP6 PUSH1 0x20 DUP7 ADD PUSH2 0x57F JUMP JUMPDEST PUSH2 0x5BA DUP2 PUSH2 0x33B JUMP JUMPDEST DUP5 ADD SWAP2 POP POP SWAP3 SWAP2 POP POP JUMP JUMPDEST PUSH0 PUSH1 0x40 DUP3 ADD SWAP1 POP PUSH2 0x5D8 PUSH0 DUP4 ADD DUP6 PUSH2 0x2FA JUMP JUMPDEST DUP2 DUP2 SUB PUSH1 0x20 DUP4 ADD MSTORE PUSH2 0x5EA DUP2 DUP5 PUSH2 0x58D JUMP JUMPDEST SWAP1 POP SWAP4 SWAP3 POP POP POP JUMP JUMPDEST PUSH32 0x4E487B7100000000000000000000000000000000000000000000000000000000 PUSH0 MSTORE PUSH1 0x11 PUSH1 0x4 MSTORE PUSH1 0x24 PUSH0 REVERT JUMPDEST PUSH0 PUSH2 0x62A DUP3 PUSH2 0x2F1 JUMP JUMPDEST SWAP2 POP PUSH2 0x635 DUP4 PUSH2 0x2F1 JUMP JUMPDEST SWAP3 POP DUP3 DUP3 ADD SWAP1 POP DUP1 DUP3 GT ISZERO PUSH2 0x64D JUMPI PUSH2 0x64C PUSH2 0x5F3 JUMP JUMPDEST JUMPDEST SWAP3 SWAP2 POP POP JUMP JUMPDEST PUSH32 0x4E487B7100000000000000000000000000000000000000000000000000000000 PUSH0 MSTORE PUSH1 0x22 PUSH1 0x4 MSTORE PUSH1 0x24 PUSH0 REVERT JUMPDEST PUSH0 PUSH1 0x2 DUP3 DIV SWAP1 POP PUSH1 0x1 DUP3 AND DUP1 PUSH2 0x697 JUMPI PUSH1 0x7F DUP3 AND SWAP2 POP JUMPDEST PUSH1 0x20 DUP3 LT DUP2 SUB PUSH2 0x6AA JUMPI PUSH2 0x6A9 PUSH2 0x653 JUMP JUMPDEST JUMPDEST POP SWAP2 SWAP1 POP JUMP JUMPDEST PUSH0 DUP2 SWAP1 POP DUP2 PUSH0 MSTORE PUSH1 0x20 PUSH0 KECCAK256 SWAP1 POP SWAP2 SWAP1 POP JUMP JUMPDEST PUSH0 PUSH1 0x20 PUSH1 0x1F DUP4 ADD DIV SWAP1 POP SWAP2 SWAP1 POP JUMP JUMPDEST PUSH0 DUP3 DUP3 SHL SWAP1 POP SWAP3 SWAP2 POP POP JUMP JUMPDEST PUSH0 PUSH1 0x8 DUP4 MUL PUSH2 0x70C PUSH32 0xFFFFFFFFFFFFFFFFFFFFFFFFFFFFFFFFFFFFFFFFFFFFFFFFFFFFFFFFFFFFFFFF DUP3 PUSH2 0x6D1 JUMP JUMPDEST PUSH2 0x716 DUP7 DUP4 PUSH2 0x6D1 JUMP JUMPDEST SWAP6 POP DUP1 NOT DUP5 AND SWAP4 POP DUP1 DUP7 AND DUP5 OR SWAP3 POP POP POP SWAP4 SWAP3 POP POP POP JUMP JUMPDEST PUSH0 DUP2 SWAP1 POP SWAP2 SWAP1 POP JUMP JUMPDEST PUSH0 PUSH2 0x751 PUSH2 0x74C PUSH2 0x747 DUP5 PUSH2 0x2F1 JUMP JUMPDEST PUSH2 0x72E JUMP JUMPDEST PUSH2 0x2F1 JUMP JUMPDEST SWAP1 POP SWAP2 SWAP1 POP JUMP JUMPDEST PUSH0 DUP2 SWAP1 POP SWAP2 SWAP1 POP JUMP JUMPDEST PUSH2 0x76A DUP4 PUSH2 0x737 JUMP JUMPDEST PUSH2 0x77E PUSH2 0x776 DUP3 PUSH2 0x758 JUMP JUMPDEST DUP5 DUP5 SLOAD PUSH2 0x6DD JUMP JUMPDEST DUP3 SSTORE POP POP POP POP JUMP JUMPDEST PUSH0 SWAP1 JUMP JUMPDEST PUSH2 0x792 PUSH2 0x786 JUMP JUMPDEST PUSH2 0x79D DUP2 DUP5 DUP5 PUSH2 0x761 JUMP JUMPDEST POP POP POP JUMP JUMPDEST JUMPDEST DUP2 DUP2 LT ISZERO PUSH2 0x7C0 JUMPI PUSH2 0x7B5 PUSH0 DUP3 PUSH2 0x78A JUMP JUMPDEST PUSH1 0x1 DUP2 ADD SWAP1 POP PUSH2 0x7A3 JUMP JUMPDEST POP POP JUMP JUMPDEST PUSH1 0x1F DUP3 GT ISZERO PUSH2 0x805 JUMPI PUSH2 0x7D6 DUP2 PUSH2 0x6B0 JUMP JUMPDEST PUSH2 0x7DF DUP5 PUSH2 0x6C2 JUMP JUMPDEST DUP2 ADD PUSH1 0x20 DUP6 LT ISZERO PUSH2 0x7EE JUMPI DUP2 SWAP1 POP JUMPDEST PUSH2 0x802 PUSH2 0x7FA DUP6 PUSH2 0x6C2 JUMP JUMPDEST DUP4 ADD DUP3 PUSH2 0x7A2 JUMP JUMPDEST POP POP JUMPDEST POP POP POP JUMP JUMPDEST PUSH0 DUP3 DUP3 SHR SWAP1 POP SWAP3 SWAP2 POP POP JUMP JUMPDEST PUSH0 PUSH2 0x825 PUSH0 NOT DUP5 PUSH1 0x8 MUL PUSH2 0x80A JUMP JUMPDEST NOT DUP1 DUP4 AND SWAP2 POP POP SWAP3 SWAP2 POP POP JUMP JUMPDEST PUSH0 PUSH2 0x83D DUP4 DUP4 PUSH2 0x816 JUMP JUMPDEST SWAP2 POP DUP3 PUSH1 0x2 MUL DUP3 OR SWAP1 POP SWAP3 SWAP2 POP POP JUMP JUMPDEST PUSH2 0x856 DUP3 PUSH2 0x565 JUMP JUMPDEST PUSH8 0xFFFFFFFFFFFFFFFF DUP2 GT ISZERO PUSH2 0x86F JUMPI PUSH2 0x86E PUSH2 0x34B JUMP JUMPDEST JUMPDEST PUSH2 0x879 DUP3 SLOAD PUSH2 0x680 JUMP JUMPDEST PUSH2 0x884 DUP3 DUP3 DUP6 PUSH2 0x7C4 JUMP JUMPDEST PUSH0 PUSH1 0x20 SWAP1 POP PUSH1 0x1F DUP4 GT PUSH1 0x1 DUP2 EQ PUSH2 0x8B5 JUMPI PUSH0 DUP5 ISZERO PUSH2 0x8A3 JUMPI DUP3 DUP8 ADD MLOAD SWAP1 POP JUMPDEST PUSH2 0x8AD DUP6 DUP3 PUSH2 0x832 JUMP JUMPDEST DUP7 SSTORE POP PUSH2 0x914 JUMP JUMPDEST PUSH1 0x1F NOT DUP5 AND PUSH2 0x8C3 DUP7 PUSH2 0x6B0 JUMP JUMPDEST PUSH0 JUMPDEST DUP3 DUP2 LT ISZERO PUSH2 0x8EA JUMPI DUP5 DUP10 ADD MLOAD DUP3 SSTORE PUSH1 0x1 DUP3 ADD SWAP2 POP PUSH1 0x20 DUP6 ADD SWAP5 POP PUSH1 0x20 DUP2 ADD SWAP1 POP PUSH2 0x8C5 JUMP JUMPDEST DUP7 DUP4 LT ISZERO PUSH2 0x907 JUMPI DUP5 DUP10 ADD MLOAD PUSH2 0x903 PUSH1 0x1F DUP10 AND DUP3 PUSH2 0x816 JUMP JUMPDEST DUP4 SSTORE POP JUMPDEST PUSH1 0x1 PUSH1 0x2 DUP9 MUL ADD DUP9 SSTORE POP POP POP JUMPDEST POP POP POP POP POP POP JUMP JUMPDEST PUSH0 DUP2 SWAP1 POP SWAP3 SWAP2 POP POP JUMP JUMPDEST PUSH0 PUSH2 0x930 DUP3 PUSH2 0x565 JUMP JUMPDEST PUSH2 0x93A DUP2 DUP6 PUSH2 0x91C JUMP JUMPDEST SWAP4 POP PUSH2 0x94A DUP2 DUP6 PUSH1 0x20 DUP7 ADD PUSH2 0x57F JUMP JUMPDEST DUP1 DUP5 ADD SWAP2 POP POP SWAP3 SWAP2 POP POP JUMP JUMPDEST PUSH0 PUSH2 0x961 DUP3 DUP5 PUSH2 0x926 JUMP JUMPDEST SWAP2 POP DUP2 SWAP1 POP SWAP3 SWAP2 POP POP JUMP JUMPDEST PUSH0 PUSH2 0x976 DUP3 PUSH2 0x2F1 JUMP JUMPDEST SWAP2 POP PUSH2 0x981 DUP4 PUSH2 0x2F1 JUMP JUMPDEST SWAP3 POP DUP3 DUP3 MUL PUSH2 0x98F DUP2 PUSH2 0x2F1 JUMP JUMPDEST SWAP2 POP DUP3 DUP3 DIV DUP5 EQ DUP4 ISZERO OR PUSH2 0x9A6 JUMPI PUSH2 0x9A5 PUSH2 0x5F3 JUMP JUMPDEST JUMPDEST POP SWAP3 SWAP2 POP POP JUMP INVALID LOG2 PUSH5 0x6970667358 0x22 SLT KECCAK256 0xCB SWAP16 PUSH4 0xBD710E95 RETURNDATACOPY PUSH6 0x16A2E2B3371 DUP11 REVERT SWAP11 0xBB COINBASE 0xC9 MUL GASLIMIT 0xCF SWAP11 0xC9 PUSH9 0x50DC2CABD064736F6C PUSH4 0x4300081A STOP CALLER "
		},
		"gasEstimates": {
			"creation": {
				"codeDepositCost": "506200",
				"executionCost": "541",
				"totalCost": "506741"
			},
			"external": {
				"addPeople(string,uint256)": "infinite",
				"multilply(uint256)": "infinite",
				"nameToFavNumber(string)": "infinite",
				"people(uint256)": "infinite",
				"retrieve()": "2410",
				"store(uint256)": "infinite"
			}
		},
		"methodIdentifiers": {
			"addPeople(string,uint256)": "795fff1d",
			"multilply(uint256)": "cd1127f5",
			"nameToFavNumber(string)": "43ec8f47",
			"people(uint256)": "9e7a13ad",
			"retrieve()": "2e64cec1",
			"store(uint256)": "6057361d"
		}
	},
	"abi": [
		{
			"inputs": [
				{
					"internalType": "string",
					"name": "_name",
					"type": "string"
				},
				{
					"internalType": "uint256",
					"name": "_favoriteNumber",
					"type": "uint256"
				}
			],
			"name": "addPeople",
			"outputs": [],
			"stateMutability": "nonpayable",
			"type": "function"
		},
		{
			"inputs": [
				{
					"internalType": "uint256",
					"name": "a",
					"type": "uint256"
				}
			],
			"name": "multilply",
			"outputs": [
				{
					"internalType": "uint256",
					"name": "",
					"type": "uint256"
				}
			],
			"stateMutability": "pure",
			"type": "function"
		},
		{
			"inputs": [
				{
					"internalType": "string",
					"name": "",
					"type": "string"
				}
			],
			"name": "nameToFavNumber",
			"outputs": [
				{
					"internalType": "uint256",
					"name": "",
					"type": "uint256"
				}
			],
			"stateMutability": "view",
			"type": "function"
		},
		{
			"inputs": [
				{
					"internalType": "uint256",
					"name": "",
					"type": "uint256"
				}
			],
			"name": "people",
			"outputs": [
				{
					"internalType": "uint256",
					"name": "favoriteNumber",
					"type": "uint256"
				},
				{
					"internalType": "string",
					"name": "name",
					"type": "string"
				}
			],
			"stateMutability": "view",
			"type": "function"
		},
		{
			"inputs": [],
			"name": "retrieve",
			"outputs": [
				{
					"internalType": "uint256",
					"name": "",
					"type": "uint256"
				}
			],
			"stateMutability": "view",
			"type": "function"
		},
		{
			"inputs": [
				{
					"internalType": "uint256",
					"name": "_favNumber",
					"type": "uint256"
				}
			],
			"name": "store",
			"outputs": [],
			"stateMutability": "nonpayable",
			"type": "function"
		}
	]
}